{
  "_format": "hh-sol-artifact-1",
  "contractName": "VoteDappQuadratic",
  "sourceName": "contracts/VoteDappQuadratic.sol",
  "abi": [
    {
      "inputs": [
        {
          "internalType": "address",
          "name": "_token",
          "type": "address"
        },
        {
          "internalType": "address",
          "name": "_storage",
          "type": "address"
        }
      ],
      "stateMutability": "nonpayable",
      "type": "constructor"
    },
    {
      "anonymous": false,
      "inputs": [
        {
          "indexed": true,
          "internalType": "string",
          "name": "_pollName",
          "type": "string"
        },
        {
          "indexed": false,
          "internalType": "address",
          "name": "_owner",
          "type": "address"
        }
      ],
      "name": "pollCreated",
      "type": "event"
    },
    {
      "anonymous": false,
      "inputs": [
        {
          "indexed": true,
          "internalType": "string",
          "name": "_pollName",
          "type": "string"
        }
      ],
      "name": "pollEnded",
      "type": "event"
    },
    {
      "anonymous": false,
      "inputs": [
        {
          "indexed": true,
          "internalType": "string",
          "name": "_pollName",
          "type": "string"
        },
        {
          "indexed": false,
          "internalType": "string",
          "name": "_option",
          "type": "string"
        },
        {
          "indexed": false,
          "internalType": "address",
          "name": "_voter",
          "type": "address"
        }
      ],
      "name": "pollVoted",
      "type": "event"
    },
    {
      "inputs": [
        {
          "internalType": "string",
          "name": "",
          "type": "string"
        }
      ],
      "name": "Polls",
      "outputs": [
        {
          "internalType": "address",
          "name": "owner",
          "type": "address"
        },
        {
          "internalType": "address",
          "name": "recipient",
          "type": "address"
        },
        {
          "internalType": "string",
          "name": "description",
          "type": "string"
        },
        {
          "internalType": "bool",
          "name": "open",
          "type": "bool"
        },
        {
          "internalType": "bool",
          "name": "privatePoll",
          "type": "bool"
        },
        {
          "internalType": "bool",
          "name": "returnMoneyOnCompletion",
          "type": "bool"
        },
        {
          "internalType": "uint256",
          "name": "maxVotes",
          "type": "uint256"
        }
      ],
      "stateMutability": "view",
      "type": "function"
    },
    {
      "inputs": [
        {
          "internalType": "string",
          "name": "pollName",
          "type": "string"
        }
      ],
      "name": "checkGetYourMoney",
      "outputs": [
        {
          "internalType": "uint256",
          "name": "",
          "type": "uint256"
        }
      ],
      "stateMutability": "view",
      "type": "function"
    },
    {
      "inputs": [
        {
          "internalType": "string",
          "name": "pollName",
          "type": "string"
        },
        {
          "internalType": "string",
          "name": "description",
          "type": "string"
        },
        {
          "internalType": "string[]",
          "name": "toptions",
          "type": "string[]"
        },
        {
          "internalType": "uint256",
          "name": "maxVotes",
          "type": "uint256"
        },
        {
          "internalType": "bool",
          "name": "returnMoneyOnCompletion",
          "type": "bool"
        },
        {
          "internalType": "bool",
          "name": "privatePoll",
          "type": "bool"
        },
        {
          "internalType": "address[]",
          "name": "allowedVoters",
          "type": "address[]"
        },
        {
          "internalType": "address",
          "name": "recipient",
          "type": "address"
        }
      ],
      "name": "createPoll",
      "outputs": [],
      "stateMutability": "nonpayable",
      "type": "function"
    },
    {
      "inputs": [
        {
          "internalType": "string",
          "name": "pollName",
          "type": "string"
        }
      ],
      "name": "endPoll",
      "outputs": [],
      "stateMutability": "nonpayable",
      "type": "function"
    },
    {
      "inputs": [
        {
          "internalType": "uint256",
          "name": "n",
          "type": "uint256"
        },
        {
          "internalType": "uint256",
          "name": "b",
          "type": "uint256"
        }
      ],
      "name": "findCost",
      "outputs": [
        {
          "internalType": "uint256",
          "name": "",
          "type": "uint256"
        }
      ],
      "stateMutability": "pure",
      "type": "function"
    },
    {
      "inputs": [
        {
          "internalType": "uint256",
          "name": "availableTokens",
          "type": "uint256"
        }
      ],
      "name": "findVotes",
      "outputs": [
        {
          "internalType": "uint256",
          "name": "i",
          "type": "uint256"
        }
      ],
      "stateMutability": "pure",
      "type": "function"
    },
    {
      "inputs": [
        {
          "internalType": "string",
          "name": "pollName",
          "type": "string"
        }
      ],
      "name": "getPollDescription",
      "outputs": [
        {
          "internalType": "string",
          "name": "",
          "type": "string"
        }
      ],
      "stateMutability": "view",
      "type": "function"
    },
    {
      "inputs": [],
      "name": "getPollList",
      "outputs": [
        {
          "internalType": "string[]",
          "name": "",
          "type": "string[]"
        }
      ],
      "stateMutability": "view",
      "type": "function"
    },
    {
      "inputs": [
        {
          "internalType": "string",
          "name": "pollName",
          "type": "string"
        }
      ],
      "name": "getPollOwner",
      "outputs": [
        {
          "internalType": "address",
          "name": "",
          "type": "address"
        }
      ],
      "stateMutability": "view",
      "type": "function"
    },
    {
      "inputs": [
        {
          "internalType": "string",
          "name": "pollName",
          "type": "string"
        }
      ],
      "name": "getYourMoney",
      "outputs": [],
      "stateMutability": "nonpayable",
      "type": "function"
    },
    {
      "inputs": [
        {
          "internalType": "string",
          "name": "pollName",
          "type": "string"
        },
        {
          "internalType": "address",
          "name": "voter",
          "type": "address"
        }
      ],
      "name": "isAllowedToVote",
      "outputs": [
        {
          "internalType": "bool",
          "name": "",
          "type": "bool"
        }
      ],
      "stateMutability": "view",
      "type": "function"
    },
    {
      "inputs": [
        {
          "internalType": "uint256",
          "name": "",
          "type": "uint256"
        }
      ],
      "name": "listofPolls",
      "outputs": [
        {
          "internalType": "string",
          "name": "",
          "type": "string"
        }
      ],
      "stateMutability": "view",
      "type": "function"
    },
    {
      "inputs": [
        {
          "internalType": "string",
          "name": "pollName",
          "type": "string"
        },
        {
          "internalType": "string",
          "name": "option",
          "type": "string"
        }
      ],
      "name": "requestOptionVotes",
      "outputs": [
        {
          "internalType": "uint256",
          "name": "",
          "type": "uint256"
        }
      ],
      "stateMutability": "view",
      "type": "function"
    },
    {
      "inputs": [
        {
          "internalType": "string",
          "name": "pollName",
          "type": "string"
        }
      ],
      "name": "requestOptions",
      "outputs": [
        {
          "internalType": "string[]",
          "name": "",
          "type": "string[]"
        }
      ],
      "stateMutability": "view",
      "type": "function"
    },
    {
      "inputs": [
        {
          "internalType": "string",
          "name": "pollName",
          "type": "string"
        }
      ],
      "name": "requestWinner",
      "outputs": [
        {
          "internalType": "string[]",
          "name": "",
          "type": "string[]"
        }
      ],
      "stateMutability": "view",
      "type": "function"
    },
    {
      "inputs": [
        {
          "internalType": "string",
          "name": "pollName",
          "type": "string"
        },
        {
          "internalType": "string",
          "name": "option",
          "type": "string"
        },
        {
          "internalType": "address",
          "name": "voter",
          "type": "address"
        }
      ],
      "name": "trackSpecificPayments",
      "outputs": [
        {
          "internalType": "uint256",
          "name": "",
          "type": "uint256"
        }
      ],
      "stateMutability": "view",
      "type": "function"
    },
    {
      "inputs": [
        {
          "internalType": "string",
          "name": "pollName",
          "type": "string"
        },
        {
          "internalType": "address",
          "name": "voter",
          "type": "address"
        }
      ],
      "name": "trackTotalPayments",
      "outputs": [
        {
          "internalType": "uint256",
          "name": "",
          "type": "uint256"
        }
      ],
      "stateMutability": "view",
      "type": "function"
    },
    {
      "inputs": [
        {
          "internalType": "string",
          "name": "pollName",
          "type": "string"
        },
        {
          "internalType": "string",
          "name": "option",
          "type": "string"
        },
        {
          "internalType": "uint256",
          "name": "votes",
          "type": "uint256"
        }
      ],
      "name": "vote",
      "outputs": [],
      "stateMutability": "nonpayable",
      "type": "function"
    }
  ],
  "bytecode": "0x608060405234801561001057600080fd5b506040516151e23803806151e28339818101604052810190610032919061011e565b81600260006101000a81548173ffffffffffffffffffffffffffffffffffffffff021916908373ffffffffffffffffffffffffffffffffffffffff16021790555080600360006101000a81548173ffffffffffffffffffffffffffffffffffffffff021916908373ffffffffffffffffffffffffffffffffffffffff160217905550505061015e565b600080fd5b600073ffffffffffffffffffffffffffffffffffffffff82169050919050565b60006100eb826100c0565b9050919050565b6100fb816100e0565b811461010657600080fd5b50565b600081519050610118816100f2565b92915050565b60008060408385031215610135576101346100bb565b5b600061014385828601610109565b925050602061015485828601610109565b9150509250929050565b6150758061016d6000396000f3fe608060405234801561001057600080fd5b50600436106101165760003560e01c80636f3ea48c116100a2578063afe32fbd11610071578063afe32fbd14610329578063b81d5a9614610359578063bb0299bb14610389578063d499b299146103b9578063e8692c61146103ef57610116565b80636f3ea48c1461027d5780637a4c96ad146102ad57806394d5cbfd146102c9578063ad27106b146102f957610116565b8063497df5f2116100e9578063497df5f2146101b357806354a9ac5e146101e357806361e123d31461021357806363511325146102435780636a506c221461025f57610116565b80631b8f20e81461011b578063299c44911461014b5780632adf51f214610167578063420f632314610197575b600080fd5b610135600480360381019061013091906136a3565b61041f565b6040516101429190613760565b60405180910390f35b610165600480360381019061016091906138b7565b6104cb565b005b610181600480360381019061017c9190613900565b610a78565b60405161018e9190613987565b60405180910390f35b6101b160048036038101906101ac9190613be1565b610b75565b005b6101cd60048036038101906101c89190613d07565b61116c565b6040516101da9190613987565b60405180910390f35b6101fd60048036038101906101f891906138b7565b6111b8565b60405161020a9190613e53565b60405180910390f35b61022d600480360381019061022891906136a3565b61165a565b60405161023a9190613987565b60405180910390f35b61025d600480360381019061025891906138b7565b6116bf565b005b610267611af2565b6040516102749190613e53565b60405180910390f35b610297600480360381019061029291906138b7565b611bcb565b6040516102a49190613760565b60405180910390f35b6102c760048036038101906102c29190613e75565b611d30565b005b6102e360048036038101906102de91906138b7565b612700565b6040516102f09190613987565b60405180910390f35b610313600480360381019061030e91906138b7565b612b60565b6040516103209190613f0f565b60405180910390f35b610343600480360381019061033e9190613f2a565b612baa565b6040516103509190613987565b60405180910390f35b610373600480360381019061036e91906138b7565b612eb1565b6040516103809190613e53565b60405180910390f35b6103a3600480360381019061039e9190613fb5565b61305d565b6040516103b09190613987565b60405180910390f35b6103d360048036038101906103ce91906138b7565b6132d0565b6040516103e69796959493929190614020565b60405180910390f35b61040960048036038101906104049190613fb5565b613417565b6040516104169190614096565b60405180910390f35b6001818154811061042f57600080fd5b90600052602060002001600091509050805461044a906140e0565b80601f0160208091040260200160405190810160405280929190818152602001828054610476906140e0565b80156104c35780601f10610498576101008083540402835291602001916104c3565b820191906000526020600020905b8154815290600101906020018083116104a657829003601f168201915b505050505081565b80600073ffffffffffffffffffffffffffffffffffffffff166000826040516104f4919061414d565b908152602001604051809103902060000160009054906101000a900473ffffffffffffffffffffffffffffffffffffffff1673ffffffffffffffffffffffffffffffffffffffff160361057c576040517f08c379a0000000000000000000000000000000000000000000000000000000008152600401610573906141b0565b60405180910390fd5b60008260405161058c919061414d565b908152602001604051809103902060030160009054906101000a900460ff16156105eb576040517f08c379a00000000000000000000000000000000000000000000000000000000081526004016105e290614242565b60405180910390fd5b6000826040516105fb919061414d565b908152602001604051809103902060060160003373ffffffffffffffffffffffffffffffffffffffff1673ffffffffffffffffffffffffffffffffffffffff16815260200190815260200160002060000160009054906101000a900460ff161561066457600080fd5b6001600083604051610676919061414d565b908152602001604051809103902060060160003373ffffffffffffffffffffffffffffffffffffffff1673ffffffffffffffffffffffffffffffffffffffff16815260200190815260200160002060000160006101000a81548160ff021916908315150217905550600080836040516106ef919061414d565b9081526020016040518091039020600401805480602002602001604051908101604052809291908181526020016000905b828210156107cc57838290600052602060002001805461073f906140e0565b80601f016020809104026020016040519081016040528092919081815260200182805461076b906140e0565b80156107b85780601f1061078d576101008083540402835291602001916107b8565b820191906000526020600020905b81548152906001019060200180831161079b57829003601f168201915b505050505081526020019060010190610720565b5050505090506000805b8251811015610891576000856040516107ef919061414d565b908152602001604051809103902060050183828151811061081357610812614262565b5b6020026020010151604051610828919061414d565b908152602001604051809103902060000160003373ffffffffffffffffffffffffffffffffffffffff1673ffffffffffffffffffffffffffffffffffffffff168152602001908152602001600020548261088291906142c0565b915080806001019150506107d6565b506000846040516108a2919061414d565b908152602001604051809103902060030160029054906101000a900460ff166109935760006108d0856111b8565b905060005b8151811015610990576000866040516108ee919061414d565b908152602001604051809103902060050182828151811061091257610911614262565b5b6020026020010151604051610927919061414d565b908152602001604051809103902060000160003373ffffffffffffffffffffffffffffffffffffffff1673ffffffffffffffffffffffffffffffffffffffff168152602001908152602001600020548361098191906142f4565b925080806001019150506108d5565b50505b600260009054906101000a900473ffffffffffffffffffffffffffffffffffffffff1673ffffffffffffffffffffffffffffffffffffffff1663a9059cbb33836040518363ffffffff1660e01b81526004016109f0929190614328565b6020604051808303816000875af1158015610a0f573d6000803e3d6000fd5b505050506040513d601f19601f82011682018060405250810190610a339190614366565b610a72576040517f08c379a0000000000000000000000000000000000000000000000000000000008152600401610a69906143df565b60405180910390fd5b50505050565b600082600073ffffffffffffffffffffffffffffffffffffffff16600082604051610aa3919061414d565b908152602001604051809103902060000160009054906101000a900473ffffffffffffffffffffffffffffffffffffffff1673ffffffffffffffffffffffffffffffffffffffff1603610b2b576040517f08c379a0000000000000000000000000000000000000000000000000000000008152600401610b22906141b0565b60405180910390fd5b600084604051610b3b919061414d565b908152602001604051809103902060050183604051610b5a919061414d565b90815260200160405180910390206001015491505092915050565b600073ffffffffffffffffffffffffffffffffffffffff16600089604051610b9d919061414d565b908152602001604051809103902060000160009054906101000a900473ffffffffffffffffffffffffffffffffffffffff1673ffffffffffffffffffffffffffffffffffffffff1614610c25576040517f08c379a0000000000000000000000000000000000000000000000000000000008152600401610c1c90614471565b60405180910390fd5b6001851015610c69576040517f08c379a0000000000000000000000000000000000000000000000000000000008152600401610c6090614503565b60405180910390fd5b600360009054906101000a900473ffffffffffffffffffffffffffffffffffffffff1673ffffffffffffffffffffffffffffffffffffffff166311456b47896040518263ffffffff1660e01b8152600401610cc49190613760565b6020604051808303816000875af1158015610ce3573d6000803e3d6000fd5b505050506040513d601f19601f82011682018060405250810190610d079190614366565b610d46576040517f08c379a0000000000000000000000000000000000000000000000000000000008152600401610d3d9061456f565b60405180910390fd5b8215610e7d576000825111610d90576040517f08c379a0000000000000000000000000000000000000000000000000000000008152600401610d8790614601565b60405180910390fd5b6001600089604051610da2919061414d565b908152602001604051809103902060030160016101000a81548160ff02191690831515021790555060005b8251811015610e7757600160008a604051610de8919061414d565b90815260200160405180910390206006016000858481518110610e0e57610e0d614262565b5b602002602001015173ffffffffffffffffffffffffffffffffffffffff1673ffffffffffffffffffffffffffffffffffffffff16815260200190815260200160002060000160016101000a81548160ff0219169083151502179055508080600101915050610dcd565b50610ec2565b6000825114610ec1576040517f08c379a0000000000000000000000000000000000000000000000000000000008152600401610eb890614693565b60405180910390fd5b5b33600089604051610ed3919061414d565b908152602001604051809103902060000160006101000a81548173ffffffffffffffffffffffffffffffffffffffff021916908373ffffffffffffffffffffffffffffffffffffffff16021790555080600089604051610f33919061414d565b908152602001604051809103902060010160006101000a81548173ffffffffffffffffffffffffffffffffffffffff021916908373ffffffffffffffffffffffffffffffffffffffff160217905550604051602001610f91906146d9565b6040516020818303038152906040528051906020012087604051602001610fb8919061414d565b60405160208183030381529060405280519060200120146110035786600089604051610fe4919061414d565b90815260200160405180910390206002019081611001919061489a565b505b84600089604051611014919061414d565b9081526020016040518091039020600701819055508560008960405161103a919061414d565b9081526020016040518091039020600401908051906020019061105e92919061357f565b5060011515841515036110a657600160008960405161107d919061414d565b908152602001604051809103902060030160026101000a81548160ff0219169083151502179055505b60016000896040516110b8919061414d565b908152602001604051809103902060030160006101000a81548160ff021916908315150217905550600188908060018154018082558091505060019003906000526020600020016000909190919091509081611114919061489a565b5087604051611123919061414d565b60405180910390207ffde17daabe48b554ebb28deab1885c922b8c13373b7281fa54b1244b22356b363360405161115a9190613f0f565b60405180910390a25050505050505050565b600080600090506000838561118191906142c0565b90505b838111156111ad57808261119891906142c0565b915080806111a59061496c565b915050611184565b508091505092915050565b606081600073ffffffffffffffffffffffffffffffffffffffff166000826040516111e3919061414d565b908152602001604051809103902060000160009054906101000a900473ffffffffffffffffffffffffffffffffffffffff1673ffffffffffffffffffffffffffffffffffffffff160361126b576040517f08c379a0000000000000000000000000000000000000000000000000000000008152600401611262906141b0565b60405180910390fd5b6000808460405161127c919061414d565b90815260200160405180910390206004018054905067ffffffffffffffff8111156112aa576112a961378c565b5b6040519080825280602002602001820160405280156112dd57816020015b60608152602001906001900390816112c85790505b509050600080856040516112f1919061414d565b90815260200160405180910390206004018054905067ffffffffffffffff81111561131f5761131e61378c565b5b60405190808252806020026020018201604052801561134d5781602001602082028036833780820191505090505b50905060005b600086604051611363919061414d565b9081526020016040518091039020600401805490508110156114285760008660405161138f919061414d565b90815260200160405180910390206005016000876040516113b0919061414d565b908152602001604051809103902060040182815481106113d3576113d2614262565b5b906000526020600020016040516113ea9190614a18565b90815260200160405180910390206001015482828151811061140f5761140e614262565b5b6020026020010181815250508080600101915050611353565b506000805b82518110156114835782818151811061144957611448614262565b5b60200260200101518210156114765782818151811061146b5761146a614262565b5b602002602001015191505b808060010191505061142d565b506000810361149757829450505050611654565b6000805b6000886040516114ab919061414d565b90815260200160405180910390206004018054905081101561164b576000886040516114d7919061414d565b90815260200160405180910390206005016000896040516114f8919061414d565b9081526020016040518091039020600401828154811061151b5761151a614262565b5b906000526020600020016040516115329190614a18565b908152602001604051809103902060010154830361163e5760008860405161155a919061414d565b9081526020016040518091039020600401818154811061157d5761157c614262565b5b906000526020600020018054611592906140e0565b80601f01602080910402602001604051908101604052809291908181526020018280546115be906140e0565b801561160b5780601f106115e05761010080835404028352916020019161160b565b820191906000526020600020905b8154815290600101906020018083116115ee57829003601f168201915b505050505085838151811061162357611622614262565b5b602002602001018190525060018261163b91906142c0565b91505b808060010191505061149b565b50839550505050505b50919050565b60008060009050600091505b8282116116b857818161167991906142c0565b905082810361168857506116ba565b828111156116a55760018261169d91906142f4565b9150506116ba565b81806116b090614a2f565b925050611666565b505b919050565b80600073ffffffffffffffffffffffffffffffffffffffff166000826040516116e8919061414d565b908152602001604051809103902060000160009054906101000a900473ffffffffffffffffffffffffffffffffffffffff1673ffffffffffffffffffffffffffffffffffffffff1603611770576040517f08c379a0000000000000000000000000000000000000000000000000000000008152600401611767906141b0565b60405180910390fd5b600082604051611780919061414d565b908152602001604051809103902060030160009054906101000a900460ff166117de576040517f08c379a00000000000000000000000000000000000000000000000000000000081526004016117d590614ac3565b60405180910390fd5b3373ffffffffffffffffffffffffffffffffffffffff16600083604051611805919061414d565b908152602001604051809103902060000160009054906101000a900473ffffffffffffffffffffffffffffffffffffffff1673ffffffffffffffffffffffffffffffffffffffff161461188d576040517f08c379a000000000000000000000000000000000000000000000000000000000815260040161188490614b55565b60405180910390fd5b6000808360405161189e919061414d565b908152602001604051809103902060030160006101000a81548160ff0219169083151502179055506000826040516118d6919061414d565b908152602001604051809103902060030160029054906101000a900460ff16611aac576000611904836111b8565b90506000805b825181101561198857600085604051611923919061414d565b908152602001604051809103902060050183828151811061194757611946614262565b5b602002602001015160405161195c919061414d565b9081526020016040518091039020600201548261197991906142c0565b9150808060010191505061190a565b50600260009054906101000a900473ffffffffffffffffffffffffffffffffffffffff1673ffffffffffffffffffffffffffffffffffffffff1663a9059cbb6000866040516119d7919061414d565b908152602001604051809103902060010160009054906101000a900473ffffffffffffffffffffffffffffffffffffffff16836040518363ffffffff1660e01b8152600401611a27929190614328565b6020604051808303816000875af1158015611a46573d6000803e3d6000fd5b505050506040513d601f19601f82011682018060405250810190611a6a9190614366565b611aa9576040517f08c379a0000000000000000000000000000000000000000000000000000000008152600401611aa0906143df565b60405180910390fd5b50505b81604051611aba919061414d565b60405180910390207fa00a67652459c6dfc10b09a6811992aba29bf54e23a7b7c81a7b324d4e3994be60405160405180910390a25050565b60606001805480602002602001604051908101604052809291908181526020016000905b82821015611bc2578382906000526020600020018054611b35906140e0565b80601f0160208091040260200160405190810160405280929190818152602001828054611b61906140e0565b8015611bae5780601f10611b8357610100808354040283529160200191611bae565b820191906000526020600020905b815481529060010190602001808311611b9157829003601f168201915b505050505081526020019060010190611b16565b50505050905090565b606081600073ffffffffffffffffffffffffffffffffffffffff16600082604051611bf6919061414d565b908152602001604051809103902060000160009054906101000a900473ffffffffffffffffffffffffffffffffffffffff1673ffffffffffffffffffffffffffffffffffffffff1603611c7e576040517f08c379a0000000000000000000000000000000000000000000000000000000008152600401611c75906141b0565b60405180910390fd5b600083604051611c8e919061414d565b90815260200160405180910390206002018054611caa906140e0565b80601f0160208091040260200160405190810160405280929190818152602001828054611cd6906140e0565b8015611d235780601f10611cf857610100808354040283529160200191611d23565b820191906000526020600020905b815481529060010190602001808311611d0657829003601f168201915b5050505050915050919050565b600083604051611d40919061414d565b908152602001604051809103902060030160009054906101000a900460ff16611d9e576040517f08c379a0000000000000000000000000000000000000000000000000000000008152600401611d9590614be7565b60405180910390fd5b60008084604051611daf919061414d565b9081526020016040518091039020600401805480602002602001604051908101604052809291908181526020016000905b82821015611e8c578382906000526020600020018054611dff906140e0565b80601f0160208091040260200160405190810160405280929190818152602001828054611e2b906140e0565b8015611e785780601f10611e4d57610100808354040283529160200191611e78565b820191906000526020600020905b815481529060010190602001808311611e5b57829003601f168201915b505050505081526020019060010190611de0565b50505050905060005b8151811015611f685783604051602001611eaf919061414d565b60405160208183030381529060405280519060200120828281518110611ed857611ed7614262565b5b6020026020010151604051602001611ef0919061414d565b604051602081830303815290604052805190602001200315611f685760018251611f1a91906142f4565b8103611f5b576040517f08c379a0000000000000000000000000000000000000000000000000000000008152600401611f5290614c53565b60405180910390fd5b8080600101915050611e95565b5060008211611fac576040517f08c379a0000000000000000000000000000000000000000000000000000000008152600401611fa390614cbf565b60405180910390fd5b600084604051611fbc919061414d565b908152602001604051809103902060030160019054906101000a900460ff161561208f57600084604051611ff0919061414d565b908152602001604051809103902060060160003373ffffffffffffffffffffffffffffffffffffffff1673ffffffffffffffffffffffffffffffffffffffff16815260200190815260200160002060000160019054906101000a900460ff1661208e576040517f08c379a000000000000000000000000000000000000000000000000000000000815260040161208590614d2b565b60405180910390fd5b5b6000805b825181101561214e576000866040516120ac919061414d565b90815260200160405180910390206005018382815181106120d0576120cf614262565b5b60200260200101516040516120e5919061414d565b908152602001604051809103902060000160003373ffffffffffffffffffffffffffffffffffffffff1673ffffffffffffffffffffffffffffffffffffffff168152602001908152602001600020548261213f91906142c0565b91508080600101915050612093565b50600061215a8261165a565b90506000848261216a91906142c0565b905060008760405161217c919061414d565b9081526020016040518091039020600701548111156121d0576040517f08c379a00000000000000000000000000000000000000000000000000000000081526004016121c790614dbd565b60405180910390fd5b60006121dc868461116c565b905080600260009054906101000a900473ffffffffffffffffffffffffffffffffffffffff1673ffffffffffffffffffffffffffffffffffffffff166370a08231336040518263ffffffff1660e01b815260040161223a9190613f0f565b602060405180830381865afa158015612257573d6000803e3d6000fd5b505050506040513d601f19601f8201168201806040525081019061227b9190614df2565b10156122bc576040517f08c379a00000000000000000000000000000000000000000000000000000000081526004016122b390614e91565b60405180910390fd5b80600260009054906101000a900473ffffffffffffffffffffffffffffffffffffffff1673ffffffffffffffffffffffffffffffffffffffff1663dd62ed3e33306040518363ffffffff1660e01b815260040161231a929190614eb1565b602060405180830381865afa158015612337573d6000803e3d6000fd5b505050506040513d601f19601f8201168201806040525081019061235b9190614df2565b101561239c576040517f08c379a000000000000000000000000000000000000000000000000000000000815260040161239390614f4c565b60405180910390fd5b600260009054906101000a900473ffffffffffffffffffffffffffffffffffffffff1673ffffffffffffffffffffffffffffffffffffffff166323b872dd3330846040518463ffffffff1660e01b81526004016123fb93929190614f6c565b6020604051808303816000875af115801561241a573d6000803e3d6000fd5b505050506040513d601f19601f8201168201806040525081019061243e9190614366565b61247d576040517f08c379a0000000000000000000000000000000000000000000000000000000008152600401612474906143df565b60405180910390fd5b8060008960405161248e919061414d565b9081526020016040518091039020600501886040516124ad919061414d565b908152602001604051809103902060000160003373ffffffffffffffffffffffffffffffffffffffff1673ffffffffffffffffffffffffffffffffffffffff1681526020019081526020016000205461250691906142c0565b600089604051612516919061414d565b908152602001604051809103902060050188604051612535919061414d565b908152602001604051809103902060000160003373ffffffffffffffffffffffffffffffffffffffff1673ffffffffffffffffffffffffffffffffffffffff1681526020019081526020016000208190555085600089604051612598919061414d565b9081526020016040518091039020600501886040516125b7919061414d565b9081526020016040518091039020600101546125d391906142c0565b6000896040516125e3919061414d565b908152602001604051809103902060050188604051612602919061414d565b90815260200160405180910390206001018190555080600089604051612628919061414d565b908152602001604051809103902060050188604051612647919061414d565b90815260200160405180910390206002015461266391906142c0565b600089604051612673919061414d565b908152602001604051809103902060050188604051612692919061414d565b908152602001604051809103902060020181905550876040516126b5919061414d565b60405180910390207f709cc456c2be834035f2c7655ccd34b1cdd97b374537807e49ce05afb2bbdcf288336040516126ee929190614fa3565b60405180910390a25050505050505050565b600081600073ffffffffffffffffffffffffffffffffffffffff1660008260405161272b919061414d565b908152602001604051809103902060000160009054906101000a900473ffffffffffffffffffffffffffffffffffffffff1673ffffffffffffffffffffffffffffffffffffffff16036127b3576040517f08c379a00000000000000000000000000000000000000000000000000000000081526004016127aa906141b0565b60405180910390fd5b6000836040516127c3919061414d565b908152602001604051809103902060030160009054906101000a900460ff1615612822576040517f08c379a00000000000000000000000000000000000000000000000000000000081526004016128199061501f565b60405180910390fd5b600083604051612832919061414d565b908152602001604051809103902060060160003373ffffffffffffffffffffffffffffffffffffffff1673ffffffffffffffffffffffffffffffffffffffff16815260200190815260200160002060000160009054906101000a900460ff161561289f5760009150612b5a565b600080846040516128b0919061414d565b9081526020016040518091039020600401805480602002602001604051908101604052809291908181526020016000905b8282101561298d578382906000526020600020018054612900906140e0565b80601f016020809104026020016040519081016040528092919081815260200182805461292c906140e0565b80156129795780601f1061294e57610100808354040283529160200191612979565b820191906000526020600020905b81548152906001019060200180831161295c57829003601f168201915b5050505050815260200190600101906128e1565b5050505090506000805b8251811015612a52576000866040516129b0919061414d565b90815260200160405180910390206005018382815181106129d4576129d3614262565b5b60200260200101516040516129e9919061414d565b908152602001604051809103902060000160003373ffffffffffffffffffffffffffffffffffffffff1673ffffffffffffffffffffffffffffffffffffffff1681526020019081526020016000205482612a4391906142c0565b91508080600101915050612997565b50600085604051612a63919061414d565b908152602001604051809103902060030160029054906101000a900460ff16612b54576000612a91866111b8565b905060005b8151811015612b5157600087604051612aaf919061414d565b9081526020016040518091039020600501828281518110612ad357612ad2614262565b5b6020026020010151604051612ae8919061414d565b908152602001604051809103902060000160003373ffffffffffffffffffffffffffffffffffffffff1673ffffffffffffffffffffffffffffffffffffffff1681526020019081526020016000205483612b4291906142f4565b92508080600101915050612a96565b50505b80935050505b50919050565b60008082604051612b71919061414d565b908152602001604051809103902060000160009054906101000a900473ffffffffffffffffffffffffffffffffffffffff169050919050565b600083600073ffffffffffffffffffffffffffffffffffffffff16600082604051612bd5919061414d565b908152602001604051809103902060000160009054906101000a900473ffffffffffffffffffffffffffffffffffffffff1673ffffffffffffffffffffffffffffffffffffffff1603612c5d576040517f08c379a0000000000000000000000000000000000000000000000000000000008152600401612c54906141b0565b60405180910390fd5b60008086604051612c6e919061414d565b9081526020016040518091039020600401805480602002602001604051908101604052809291908181526020016000905b82821015612d4b578382906000526020600020018054612cbe906140e0565b80601f0160208091040260200160405190810160405280929190818152602001828054612cea906140e0565b8015612d375780601f10612d0c57610100808354040283529160200191612d37565b820191906000526020600020905b815481529060010190602001808311612d1a57829003601f168201915b505050505081526020019060010190612c9f565b50505050905060005b8151811015612e275785604051602001612d6e919061414d565b60405160208183030381529060405280519060200120828281518110612d9757612d96614262565b5b6020026020010151604051602001612daf919061414d565b604051602081830303815290604052805190602001200315612e275760018251612dd991906142f4565b8103612e1a576040517f08c379a0000000000000000000000000000000000000000000000000000000008152600401612e1190614c53565b60405180910390fd5b8080600101915050612d54565b50600086604051612e38919061414d565b908152602001604051809103902060050185604051612e57919061414d565b908152602001604051809103902060000160008573ffffffffffffffffffffffffffffffffffffffff1673ffffffffffffffffffffffffffffffffffffffff16815260200190815260200160002054925050509392505050565b606081600073ffffffffffffffffffffffffffffffffffffffff16600082604051612edc919061414d565b908152602001604051809103902060000160009054906101000a900473ffffffffffffffffffffffffffffffffffffffff1673ffffffffffffffffffffffffffffffffffffffff1603612f64576040517f08c379a0000000000000000000000000000000000000000000000000000000008152600401612f5b906141b0565b60405180910390fd5b600083604051612f74919061414d565b9081526020016040518091039020600401805480602002602001604051908101604052809291908181526020016000905b82821015613051578382906000526020600020018054612fc4906140e0565b80601f0160208091040260200160405190810160405280929190818152602001828054612ff0906140e0565b801561303d5780601f106130125761010080835404028352916020019161303d565b820191906000526020600020905b81548152906001019060200180831161302057829003601f168201915b505050505081526020019060010190612fa5565b50505050915050919050565b600082600073ffffffffffffffffffffffffffffffffffffffff16600082604051613088919061414d565b908152602001604051809103902060000160009054906101000a900473ffffffffffffffffffffffffffffffffffffffff1673ffffffffffffffffffffffffffffffffffffffff1603613110576040517f08c379a0000000000000000000000000000000000000000000000000000000008152600401613107906141b0565b60405180910390fd5b60008085604051613121919061414d565b9081526020016040518091039020600401805480602002602001604051908101604052809291908181526020016000905b828210156131fe578382906000526020600020018054613171906140e0565b80601f016020809104026020016040519081016040528092919081815260200182805461319d906140e0565b80156131ea5780601f106131bf576101008083540402835291602001916131ea565b820191906000526020600020905b8154815290600101906020018083116131cd57829003601f168201915b505050505081526020019060010190613152565b5050505090506000805b82518110156132c357600087604051613221919061414d565b908152602001604051809103902060050183828151811061324557613244614262565b5b602002602001015160405161325a919061414d565b908152602001604051809103902060000160008773ffffffffffffffffffffffffffffffffffffffff1673ffffffffffffffffffffffffffffffffffffffff16815260200190815260200160002054826132b491906142c0565b91508080600101915050613208565b5080935050505092915050565b6000818051602081018201805184825260208301602085012081835280955050505050506000915090508060000160009054906101000a900473ffffffffffffffffffffffffffffffffffffffff16908060010160009054906101000a900473ffffffffffffffffffffffffffffffffffffffff1690806002018054613355906140e0565b80601f0160208091040260200160405190810160405280929190818152602001828054613381906140e0565b80156133ce5780601f106133a3576101008083540402835291602001916133ce565b820191906000526020600020905b8154815290600101906020018083116133b157829003601f168201915b5050505050908060030160009054906101000a900460ff16908060030160019054906101000a900460ff16908060030160029054906101000a900460ff16908060070154905087565b600082600073ffffffffffffffffffffffffffffffffffffffff16600082604051613442919061414d565b908152602001604051809103902060000160009054906101000a900473ffffffffffffffffffffffffffffffffffffffff1673ffffffffffffffffffffffffffffffffffffffff16036134ca576040517f08c379a00000000000000000000000000000000000000000000000000000000081526004016134c1906141b0565b60405180910390fd5b6000846040516134da919061414d565b908152602001604051809103902060030160019054906101000a900460ff166135065760019150613578565b600084604051613516919061414d565b908152602001604051809103902060060160008473ffffffffffffffffffffffffffffffffffffffff1673ffffffffffffffffffffffffffffffffffffffff16815260200190815260200160002060000160019054906101000a900460ff1691505b5092915050565b8280548282559060005260206000209081019282156135c7579160200282015b828111156135c65782518290816135b6919061489a565b509160200191906001019061359f565b5b5090506135d491906135d8565b5090565b5b808211156135f857600081816135ef91906135fc565b506001016135d9565b5090565b508054613608906140e0565b6000825580601f1061361a5750613639565b601f016020900490600052602060002090810190613638919061363c565b5b50565b5b8082111561365557600081600090555060010161363d565b5090565b6000604051905090565b600080fd5b600080fd5b6000819050919050565b6136808161366d565b811461368b57600080fd5b50565b60008135905061369d81613677565b92915050565b6000602082840312156136b9576136b8613663565b5b60006136c78482850161368e565b91505092915050565b600081519050919050565b600082825260208201905092915050565b60005b8381101561370a5780820151818401526020810190506136ef565b60008484015250505050565b6000601f19601f8301169050919050565b6000613732826136d0565b61373c81856136db565b935061374c8185602086016136ec565b61375581613716565b840191505092915050565b6000602082019050818103600083015261377a8184613727565b905092915050565b600080fd5b600080fd5b7f4e487b7100000000000000000000000000000000000000000000000000000000600052604160045260246000fd5b6137c482613716565b810181811067ffffffffffffffff821117156137e3576137e261378c565b5b80604052505050565b60006137f6613659565b905061380282826137bb565b919050565b600067ffffffffffffffff8211156138225761382161378c565b5b61382b82613716565b9050602081019050919050565b82818337600083830152505050565b600061385a61385584613807565b6137ec565b90508281526020810184848401111561387657613875613787565b5b613881848285613838565b509392505050565b600082601f83011261389e5761389d613782565b5b81356138ae848260208601613847565b91505092915050565b6000602082840312156138cd576138cc613663565b5b600082013567ffffffffffffffff8111156138eb576138ea613668565b5b6138f784828501613889565b91505092915050565b6000806040838503121561391757613916613663565b5b600083013567ffffffffffffffff81111561393557613934613668565b5b61394185828601613889565b925050602083013567ffffffffffffffff81111561396257613961613668565b5b61396e85828601613889565b9150509250929050565b6139818161366d565b82525050565b600060208201905061399c6000830184613978565b92915050565b600067ffffffffffffffff8211156139bd576139bc61378c565b5b602082029050602081019050919050565b600080fd5b60006139e66139e1846139a2565b6137ec565b90508083825260208201905060208402830185811115613a0957613a086139ce565b5b835b81811015613a5057803567ffffffffffffffff811115613a2e57613a2d613782565b5b808601613a3b8982613889565b85526020850194505050602081019050613a0b565b5050509392505050565b600082601f830112613a6f57613a6e613782565b5b8135613a7f8482602086016139d3565b91505092915050565b60008115159050919050565b613a9d81613a88565b8114613aa857600080fd5b50565b600081359050613aba81613a94565b92915050565b600067ffffffffffffffff821115613adb57613ada61378c565b5b602082029050602081019050919050565b600073ffffffffffffffffffffffffffffffffffffffff82169050919050565b6000613b1782613aec565b9050919050565b613b2781613b0c565b8114613b3257600080fd5b50565b600081359050613b4481613b1e565b92915050565b6000613b5d613b5884613ac0565b6137ec565b90508083825260208201905060208402830185811115613b8057613b7f6139ce565b5b835b81811015613ba95780613b958882613b35565b845260208401935050602081019050613b82565b5050509392505050565b600082601f830112613bc857613bc7613782565b5b8135613bd8848260208601613b4a565b91505092915050565b600080600080600080600080610100898b031215613c0257613c01613663565b5b600089013567ffffffffffffffff811115613c2057613c1f613668565b5b613c2c8b828c01613889565b985050602089013567ffffffffffffffff811115613c4d57613c4c613668565b5b613c598b828c01613889565b975050604089013567ffffffffffffffff811115613c7a57613c79613668565b5b613c868b828c01613a5a565b9650506060613c978b828c0161368e565b9550506080613ca88b828c01613aab565b94505060a0613cb98b828c01613aab565b93505060c089013567ffffffffffffffff811115613cda57613cd9613668565b5b613ce68b828c01613bb3565b92505060e0613cf78b828c01613b35565b9150509295985092959890939650565b60008060408385031215613d1e57613d1d613663565b5b6000613d2c8582860161368e565b9250506020613d3d8582860161368e565b9150509250929050565b600081519050919050565b600082825260208201905092915050565b6000819050602082019050919050565b600082825260208201905092915050565b6000613d8f826136d0565b613d998185613d73565b9350613da98185602086016136ec565b613db281613716565b840191505092915050565b6000613dc98383613d84565b905092915050565b6000602082019050919050565b6000613de982613d47565b613df38185613d52565b935083602082028501613e0585613d63565b8060005b85811015613e415784840389528151613e228582613dbd565b9450613e2d83613dd1565b925060208a01995050600181019050613e09565b50829750879550505050505092915050565b60006020820190508181036000830152613e6d8184613dde565b905092915050565b600080600060608486031215613e8e57613e8d613663565b5b600084013567ffffffffffffffff811115613eac57613eab613668565b5b613eb886828701613889565b935050602084013567ffffffffffffffff811115613ed957613ed8613668565b5b613ee586828701613889565b9250506040613ef68682870161368e565b9150509250925092565b613f0981613b0c565b82525050565b6000602082019050613f246000830184613f00565b92915050565b600080600060608486031215613f4357613f42613663565b5b600084013567ffffffffffffffff811115613f6157613f60613668565b5b613f6d86828701613889565b935050602084013567ffffffffffffffff811115613f8e57613f8d613668565b5b613f9a86828701613889565b9250506040613fab86828701613b35565b9150509250925092565b60008060408385031215613fcc57613fcb613663565b5b600083013567ffffffffffffffff811115613fea57613fe9613668565b5b613ff685828601613889565b925050602061400785828601613b35565b9150509250929050565b61401a81613a88565b82525050565b600060e082019050614035600083018a613f00565b6140426020830189613f00565b81810360408301526140548188613727565b90506140636060830187614011565b6140706080830186614011565b61407d60a0830185614011565b61408a60c0830184613978565b98975050505050505050565b60006020820190506140ab6000830184614011565b92915050565b7f4e487b7100000000000000000000000000000000000000000000000000000000600052602260045260246000fd5b600060028204905060018216806140f857607f821691505b60208210810361410b5761410a6140b1565b5b50919050565b600081905092915050565b6000614127826136d0565b6141318185614111565b93506141418185602086016136ec565b80840191505092915050565b6000614159828461411c565b915081905092915050565b7f506f6c6c20646f6573206e6f742065786973742e000000000000000000000000600082015250565b600061419a6014836136db565b91506141a582614164565b602082019050919050565b600060208201905081810360008301526141c98161418d565b9050919050565b7f596f752063616e6e6f7420636861726765206261636b20696620706f6c6c206960008201527f73206f70656e2e00000000000000000000000000000000000000000000000000602082015250565b600061422c6027836136db565b9150614237826141d0565b604082019050919050565b6000602082019050818103600083015261425b8161421f565b9050919050565b7f4e487b7100000000000000000000000000000000000000000000000000000000600052603260045260246000fd5b7f4e487b7100000000000000000000000000000000000000000000000000000000600052601160045260246000fd5b60006142cb8261366d565b91506142d68361366d565b92508282019050808211156142ee576142ed614291565b5b92915050565b60006142ff8261366d565b915061430a8361366d565b925082820390508181111561432257614321614291565b5b92915050565b600060408201905061433d6000830185613f00565b61434a6020830184613978565b9392505050565b60008151905061436081613a94565b92915050565b60006020828403121561437c5761437b613663565b5b600061438a84828501614351565b91505092915050565b7f5472616e73616374696f6e206661696c65642e00000000000000000000000000600082015250565b60006143c96013836136db565b91506143d482614393565b602082019050919050565b600060208201905081810360008301526143f8816143bc565b9050919050565b7f416e6f7468657220706f6c6c20616c7265616479206861732074686174206e6160008201527f6d652e0000000000000000000000000000000000000000000000000000000000602082015250565b600061445b6023836136db565b9150614466826143ff565b604082019050919050565b6000602082019050818103600083015261448a8161444e565b9050919050565b7f596f75206d75737420616c6c6f7720666f72206f6e65206f72206d6f7265207660008201527f6f7465732e000000000000000000000000000000000000000000000000000000602082015250565b60006144ed6025836136db565b91506144f882614491565b604082019050919050565b6000602082019050818103600083015261451c816144e0565b9050919050565b7f4e616d65207265736572766174696f6e206661696c65642e0000000000000000600082015250565b60006145596018836136db565b915061456482614523565b602082019050919050565b600060208201905081810360008301526145888161454c565b9050919050565b7f43616e2774206265207072697661746520616e6420616c6c6f77206e6f206f6e60008201527f6500000000000000000000000000000000000000000000000000000000000000602082015250565b60006145eb6021836136db565b91506145f68261458f565b604082019050919050565b6000602082019050818103600083015261461a816145de565b9050919050565b7f43616e2774206265207075626c696320616e6420726573747269637420766f7460008201527f6572732e00000000000000000000000000000000000000000000000000000000602082015250565b600061467d6024836136db565b915061468882614621565b604082019050919050565b600060208201905081810360008301526146ac81614670565b9050919050565b50565b60006146c3600083614111565b91506146ce826146b3565b600082019050919050565b60006146e4826146b6565b9150819050919050565b60008190508160005260206000209050919050565b60006020601f8301049050919050565b600082821b905092915050565b6000600883026147507fffffffffffffffffffffffffffffffffffffffffffffffffffffffffffffffff82614713565b61475a8683614713565b95508019841693508086168417925050509392505050565b6000819050919050565b600061479761479261478d8461366d565b614772565b61366d565b9050919050565b6000819050919050565b6147b18361477c565b6147c56147bd8261479e565b848454614720565b825550505050565b600090565b6147da6147cd565b6147e58184846147a8565b505050565b5b81811015614809576147fe6000826147d2565b6001810190506147eb565b5050565b601f82111561484e5761481f816146ee565b61482884614703565b81016020851015614837578190505b61484b61484385614703565b8301826147ea565b50505b505050565b600082821c905092915050565b600061487160001984600802614853565b1980831691505092915050565b600061488a8383614860565b9150826002028217905092915050565b6148a3826136d0565b67ffffffffffffffff8111156148bc576148bb61378c565b5b6148c682546140e0565b6148d182828561480d565b600060209050601f83116001811461490457600084156148f2578287015190505b6148fc858261487e565b865550614964565b601f198416614912866146ee565b60005b8281101561493a57848901518255600182019150602085019450602081019050614915565b868310156149575784890151614953601f891682614860565b8355505b6001600288020188555050505b505050505050565b60006149778261366d565b91506000820361498a57614989614291565b5b600182039050919050565b600081546149a2816140e0565b6149ac8186614111565b945060018216600081146149c757600181146149dc57614a0f565b60ff1983168652811515820286019350614a0f565b6149e5856146ee565b60005b83811015614a07578154818901526001820191506020810190506149e8565b838801955050505b50505092915050565b6000614a248284614995565b915081905092915050565b6000614a3a8261366d565b91507fffffffffffffffffffffffffffffffffffffffffffffffffffffffffffffffff8203614a6c57614a6b614291565b5b600182019050919050565b7f506f6c6c20616c726561647920636c6f7365642e000000000000000000000000600082015250565b6000614aad6014836136db565b9150614ab882614a77565b602082019050919050565b60006020820190508181036000830152614adc81614aa0565b9050919050565b7f596f7520617265206e6f7420746865206f776e6572206f66207468697320706f60008201527f6c6c2e0000000000000000000000000000000000000000000000000000000000602082015250565b6000614b3f6023836136db565b9150614b4a82614ae3565b604082019050919050565b60006020820190508181036000830152614b6e81614b32565b9050919050565b7f506f6c6c20646f6573206e6f74206578697374206f7220706f6c6c206973206e60008201527f6f74206f70656e2e000000000000000000000000000000000000000000000000602082015250565b6000614bd16028836136db565b9150614bdc82614b75565b604082019050919050565b60006020820190508181036000830152614c0081614bc4565b9050919050565b7f4e6f7420616e206f7074696f6e00000000000000000000000000000000000000600082015250565b6000614c3d600d836136db565b9150614c4882614c07565b602082019050919050565b60006020820190508181036000830152614c6c81614c30565b9050919050565b7f43616e6e6f742068617665203020766f7465732e000000000000000000000000600082015250565b6000614ca96014836136db565b9150614cb482614c73565b602082019050919050565b60006020820190508181036000830152614cd881614c9c565b9050919050565b7f596f7520617265206e6f7420616c6c6f77656420746f20766f74652e00000000600082015250565b6000614d15601c836136db565b9150614d2082614cdf565b602082019050919050565b60006020820190508181036000830152614d4481614d08565b9050919050565b7f596f7520686176652073706563696669656420746f6f206d75636820766f746560008201527f73207468616e20796f752061726520616c6c6f7765642e000000000000000000602082015250565b6000614da76037836136db565b9150614db282614d4b565b604082019050919050565b60006020820190508181036000830152614dd681614d9a565b9050919050565b600081519050614dec81613677565b92915050565b600060208284031215614e0857614e07613663565b5b6000614e1684828501614ddd565b91505092915050565b7f596f7520646f206e6f74206861766520656e6f75676820564f545420636f696e60008201527f732e000000000000000000000000000000000000000000000000000000000000602082015250565b6000614e7b6022836136db565b9150614e8682614e1f565b604082019050919050565b60006020820190508181036000830152614eaa81614e6e565b9050919050565b6000604082019050614ec66000830185613f00565b614ed36020830184613f00565b9392505050565b7f596f7520646964206e6f7420617070726f76652074686520636f6e747261637460008201527f277320616c6c6f77616e63652e00000000000000000000000000000000000000602082015250565b6000614f36602d836136db565b9150614f4182614eda565b604082019050919050565b60006020820190508181036000830152614f6581614f29565b9050919050565b6000606082019050614f816000830186613f00565b614f8e6020830185613f00565b614f9b6040830184613978565b949350505050565b60006040820190508181036000830152614fbd8185613727565b9050614fcc6020830184613f00565b9392505050565b7f506f6c6c206973206f70656e2e00000000000000000000000000000000000000600082015250565b6000615009600d836136db565b915061501482614fd3565b602082019050919050565b6000602082019050818103600083015261503881614ffc565b905091905056fea26469706673582212205cbc0f9c15cfdecd813dec517f5848ea353833d0e4d11b5aeb3ab842c1bad1fe64736f6c634300081a0033",
  "linkReferences": {},
  "deployedLinkReferences": {}
}