{
  "_format": "hh-sol-artifact-1",
  "contractName": "VoteDappRanked",
  "sourceName": "contracts/VoteDappRanked.sol",
  "abi": [
    {
      "inputs": [
        {
          "internalType": "address",
          "name": "_storage",
          "type": "address"
        }
      ],
      "stateMutability": "nonpayable",
      "type": "constructor"
    },
    {
      "anonymous": false,
      "inputs": [
        {
          "indexed": true,
          "internalType": "string",
          "name": "_pollName",
          "type": "string"
        },
        {
          "indexed": false,
          "internalType": "address",
          "name": "_owner",
          "type": "address"
        }
      ],
      "name": "pollCreated",
      "type": "event"
    },
    {
      "anonymous": false,
      "inputs": [
        {
          "indexed": true,
          "internalType": "string",
          "name": "_pollName",
          "type": "string"
        }
      ],
      "name": "pollEnded",
      "type": "event"
    },
    {
      "anonymous": false,
      "inputs": [
        {
          "indexed": true,
          "internalType": "string",
          "name": "_pollName",
          "type": "string"
        },
        {
          "indexed": false,
          "internalType": "string[]",
          "name": "_option",
          "type": "string[]"
        },
        {
          "indexed": false,
          "internalType": "address",
          "name": "_voter",
          "type": "address"
        }
      ],
      "name": "pollVoted",
      "type": "event"
    },
    {
      "inputs": [
        {
          "internalType": "string",
          "name": "",
          "type": "string"
        }
      ],
      "name": "Polls",
      "outputs": [
        {
          "internalType": "address",
          "name": "owner",
          "type": "address"
        },
        {
          "internalType": "string",
          "name": "description",
          "type": "string"
        },
        {
          "internalType": "bool",
          "name": "open",
          "type": "bool"
        },
        {
          "internalType": "bool",
          "name": "privatePoll",
          "type": "bool"
        }
      ],
      "stateMutability": "view",
      "type": "function"
    },
    {
      "inputs": [
        {
          "internalType": "string",
          "name": "pollName",
          "type": "string"
        },
        {
          "internalType": "string",
          "name": "description",
          "type": "string"
        },
        {
          "internalType": "string[]",
          "name": "toptions",
          "type": "string[]"
        },
        {
          "internalType": "bool",
          "name": "privatePoll",
          "type": "bool"
        },
        {
          "internalType": "address[]",
          "name": "allowedVoters",
          "type": "address[]"
        }
      ],
      "name": "createPoll",
      "outputs": [],
      "stateMutability": "nonpayable",
      "type": "function"
    },
    {
      "inputs": [
        {
          "internalType": "string",
          "name": "pollName",
          "type": "string"
        }
      ],
      "name": "endPoll",
      "outputs": [],
      "stateMutability": "nonpayable",
      "type": "function"
    },
    {
      "inputs": [
        {
          "internalType": "string",
          "name": "pollName",
          "type": "string"
        }
      ],
      "name": "getPollDescription",
      "outputs": [
        {
          "internalType": "string",
          "name": "",
          "type": "string"
        }
      ],
      "stateMutability": "view",
      "type": "function"
    },
    {
      "inputs": [],
      "name": "getPollList",
      "outputs": [
        {
          "internalType": "string[]",
          "name": "",
          "type": "string[]"
        }
      ],
      "stateMutability": "view",
      "type": "function"
    },
    {
      "inputs": [
        {
          "internalType": "string",
          "name": "pollName",
          "type": "string"
        }
      ],
      "name": "getPollOwner",
      "outputs": [
        {
          "internalType": "address",
          "name": "",
          "type": "address"
        }
      ],
      "stateMutability": "view",
      "type": "function"
    },
    {
      "inputs": [
        {
          "internalType": "string",
          "name": "pollName",
          "type": "string"
        },
        {
          "internalType": "address",
          "name": "voter",
          "type": "address"
        }
      ],
      "name": "isAllowedToVote",
      "outputs": [
        {
          "internalType": "bool",
          "name": "",
          "type": "bool"
        }
      ],
      "stateMutability": "view",
      "type": "function"
    },
    {
      "inputs": [
        {
          "internalType": "uint256",
          "name": "",
          "type": "uint256"
        }
      ],
      "name": "listofPolls",
      "outputs": [
        {
          "internalType": "string",
          "name": "",
          "type": "string"
        }
      ],
      "stateMutability": "view",
      "type": "function"
    },
    {
      "inputs": [
        {
          "internalType": "string",
          "name": "pollName",
          "type": "string"
        },
        {
          "internalType": "string",
          "name": "option",
          "type": "string"
        }
      ],
      "name": "requestOptionVotes",
      "outputs": [
        {
          "internalType": "uint256[]",
          "name": "",
          "type": "uint256[]"
        }
      ],
      "stateMutability": "view",
      "type": "function"
    },
    {
      "inputs": [
        {
          "internalType": "string",
          "name": "pollName",
          "type": "string"
        }
      ],
      "name": "requestOptions",
      "outputs": [
        {
          "internalType": "string[]",
          "name": "",
          "type": "string[]"
        }
      ],
      "stateMutability": "view",
      "type": "function"
    },
    {
      "inputs": [
        {
          "internalType": "string",
          "name": "pollName",
          "type": "string"
        }
      ],
      "name": "requestWinner",
      "outputs": [
        {
          "internalType": "string[]",
          "name": "winners",
          "type": "string[]"
        }
      ],
      "stateMutability": "view",
      "type": "function"
    },
    {
      "inputs": [
        {
          "internalType": "string",
          "name": "pollName",
          "type": "string"
        },
        {
          "internalType": "address",
          "name": "voter",
          "type": "address"
        }
      ],
      "name": "trackSpecificVotes",
      "outputs": [
        {
          "internalType": "string[]",
          "name": "",
          "type": "string[]"
        }
      ],
      "stateMutability": "view",
      "type": "function"
    },
    {
      "inputs": [
        {
          "internalType": "string",
          "name": "pollName",
          "type": "string"
        },
        {
          "internalType": "string[]",
          "name": "orderofoptions",
          "type": "string[]"
        }
      ],
      "name": "vote",
      "outputs": [],
      "stateMutability": "nonpayable",
      "type": "function"
    }
  ],
  "bytecode": "0x608060405234801561001057600080fd5b50604051614239380380614239833981810160405281019061003291906100dc565b80600260006101000a81548173ffffffffffffffffffffffffffffffffffffffff021916908373ffffffffffffffffffffffffffffffffffffffff16021790555050610109565b600080fd5b600073ffffffffffffffffffffffffffffffffffffffff82169050919050565b60006100a98261007e565b9050919050565b6100b98161009e565b81146100c457600080fd5b50565b6000815190506100d6816100b0565b92915050565b6000602082840312156100f2576100f1610079565b5b6000610100848285016100c7565b91505092915050565b614121806101186000396000f3fe608060405234801561001057600080fd5b50600436106100cf5760003560e01c80636f3ea48c1161008c578063c45a6a6a11610066578063c45a6a6a1461025e578063d499b2991461027a578063e8692c61146102ad578063fefa7cbc146102dd576100cf565b80636f3ea48c146101ce578063ad27106b146101fe578063b81d5a961461022e576100cf565b80631b8f20e8146100d45780632adf51f214610104578063378e1f7d1461013457806354a9ac5e1461016457806363511325146101945780636a506c22146101b0575b600080fd5b6100ee60048036038101906100e99190612b4a565b6102f9565b6040516100fb9190612c07565b60405180910390f35b61011e60048036038101906101199190612d5e565b6103a5565b60405161012b9190612e94565b60405180910390f35b61014e60048036038101906101499190612f14565b61091e565b60405161015b919061307c565b60405180910390f35b61017e6004803603810190610179919061309e565b610b0b565b60405161018b919061307c565b60405180910390f35b6101ae60048036038101906101a9919061309e565b611540565b005b6101b861178d565b6040516101c5919061307c565b60405180910390f35b6101e860048036038101906101e3919061309e565b611866565b6040516101f59190612c07565b60405180910390f35b6102186004803603810190610213919061309e565b6119cb565b60405161022591906130f6565b60405180910390f35b6102486004803603810190610243919061309e565b611a15565b604051610255919061307c565b60405180910390f35b610278600480360381019061027391906132f2565b611bc1565b005b610294600480360381019061028f919061309e565b61220d565b6040516102a494939291906133ec565b60405180910390f35b6102c760048036038101906102c29190612f14565b612315565b6040516102d49190613438565b60405180910390f35b6102f760048036038101906102f29190613453565b61247d565b005b6001818154811061030957600080fd5b906000526020600020016000915090508054610324906134fa565b80601f0160208091040260200160405190810160405280929190818152602001828054610350906134fa565b801561039d5780601f106103725761010080835404028352916020019161039d565b820191906000526020600020905b81548152906001019060200180831161038057829003601f168201915b505050505081565b606082600073ffffffffffffffffffffffffffffffffffffffff166000826040516103d09190613567565b908152602001604051809103902060000160009054906101000a900473ffffffffffffffffffffffffffffffffffffffff1673ffffffffffffffffffffffffffffffffffffffff1603610458576040517f08c379a000000000000000000000000000000000000000000000000000000000815260040161044f906135ca565b60405180910390fd5b600080856040516104699190613567565b9081526020016040518091039020600301805480602002602001604051908101604052809291908181526020016000905b828210156105465783829060005260206000200180546104b9906134fa565b80601f01602080910402602001604051908101604052809291908181526020018280546104e5906134fa565b80156105325780601f1061050757610100808354040283529160200191610532565b820191906000526020600020905b81548152906001019060200180831161051557829003601f168201915b50505050508152602001906001019061049a565b50505050905060005b815181101561062257846040516020016105699190613567565b60405160208183030381529060405280519060200120828281518110610592576105916135ea565b5b60200260200101516040516020016105aa9190613567565b60405160208183030381529060405280519060200120031561062257600182516105d49190613648565b8103610615576040517f08c379a000000000000000000000000000000000000000000000000000000000815260040161060c906136c8565b60405180910390fd5b808060010191505061054f565b50600080866040516106349190613567565b9081526020016040518091039020600401856040516106539190613567565b90815260200160405180910390205490506000825167ffffffffffffffff81111561068157610680612c33565b5b6040519080825280602002602001820160405280156106af5781602001602082028036833780820191505090505b50905060005b6000886040516106c59190613567565b9081526020016040518091039020600601805490508110156109105760005b6000896040516106f49190613567565b90815260200160405180910390206005016000808b6040516107169190613567565b90815260200160405180910390206006018481548110610739576107386135ea565b5b9060005260206000200160009054906101000a900473ffffffffffffffffffffffffffffffffffffffff1673ffffffffffffffffffffffffffffffffffffffff1673ffffffffffffffffffffffffffffffffffffffff16815260200190815260200160002060000180549050811015610902576000896040516107bc9190613567565b908152602001604051809103902060040160008a6040516107dd9190613567565b90815260200160405180910390206005016000808c6040516107ff9190613567565b90815260200160405180910390206006018581548110610822576108216135ea565b5b9060005260206000200160009054906101000a900473ffffffffffffffffffffffffffffffffffffffff1673ffffffffffffffffffffffffffffffffffffffff1673ffffffffffffffffffffffffffffffffffffffff168152602001908152602001600020600001828154811061089c5761089b6135ea565b5b906000526020600020016040516108b39190613780565b90815260200160405180910390205484036108f5578281815181106108db576108da6135ea565b5b6020026020010180518091906108f090613797565b815250505b80806001019150506106e4565b5080806001019150506106b5565b508094505050505092915050565b606082600073ffffffffffffffffffffffffffffffffffffffff166000826040516109499190613567565b908152602001604051809103902060000160009054906101000a900473ffffffffffffffffffffffffffffffffffffffff1673ffffffffffffffffffffffffffffffffffffffff16036109d1576040517f08c379a00000000000000000000000000000000000000000000000000000000081526004016109c8906135ca565b60405180910390fd5b6000846040516109e19190613567565b908152602001604051809103902060050160008473ffffffffffffffffffffffffffffffffffffffff1673ffffffffffffffffffffffffffffffffffffffff168152602001908152602001600020600001805480602002602001604051908101604052809291908181526020016000905b82821015610afe578382906000526020600020018054610a71906134fa565b80601f0160208091040260200160405190810160405280929190818152602001828054610a9d906134fa565b8015610aea5780601f10610abf57610100808354040283529160200191610aea565b820191906000526020600020905b815481529060010190602001808311610acd57829003601f168201915b505050505081526020019060010190610a52565b5050505091505092915050565b606081600073ffffffffffffffffffffffffffffffffffffffff16600082604051610b369190613567565b908152602001604051809103902060000160009054906101000a900473ffffffffffffffffffffffffffffffffffffffff1673ffffffffffffffffffffffffffffffffffffffff1603610bbe576040517f08c379a0000000000000000000000000000000000000000000000000000000008152600401610bb5906135ca565b60405180910390fd5b60008084604051610bcf9190613567565b90815260200160405180910390206006018054905067ffffffffffffffff811115610bfd57610bfc612c33565b5b604051908082528060200260200182016040528015610c3657816020015b610c23612a03565b815260200190600190039081610c1b5790505b50905060005b600085604051610c4c9190613567565b908152602001604051809103902060060180549050811015610e9a5760005b600086604051610c7b9190613567565b908152602001604051809103902060050160008088604051610c9d9190613567565b90815260200160405180910390206006018481548110610cc057610cbf6135ea565b5b9060005260206000200160009054906101000a900473ffffffffffffffffffffffffffffffffffffffff1673ffffffffffffffffffffffffffffffffffffffff1673ffffffffffffffffffffffffffffffffffffffff16815260200190815260200160002060000180549050811015610e8c57600086604051610d439190613567565b9081526020016040518091039020600401600087604051610d649190613567565b908152602001604051809103902060050160008089604051610d869190613567565b90815260200160405180910390206006018581548110610da957610da86135ea565b5b9060005260206000200160009054906101000a900473ffffffffffffffffffffffffffffffffffffffff1673ffffffffffffffffffffffffffffffffffffffff1673ffffffffffffffffffffffffffffffffffffffff1681526020019081526020016000206000018281548110610e2357610e226135ea565b5b90600052602060002001604051610e3a9190613780565b908152602001604051809103902054838381518110610e5c57610e5b6135ea565b5b60200260200101518260638110610e7657610e756135ea565b5b6020020181815250508080600101915050610c6b565b508080600101915050610c3c565b5060008085604051610eac9190613567565b90815260200160405180910390206006018054905067ffffffffffffffff811115610eda57610ed9612c33565b5b604051908082528060200260200182016040528015610f085781602001602082028036833780820191505090505b50905060005b600086604051610f1e9190613567565b9081526020016040518091039020600301805490508110156115365760008087604051610f4b9190613567565b90815260200160405180910390206003018054905067ffffffffffffffff811115610f7957610f78612c33565b5b604051908082528060200260200182016040528015610fa75781602001602082028036833780820191505090505b50905060005b600088604051610fbd9190613567565b9081526020016040518091039020600601805490508110156110445781858281518110610fed57610fec6135ea565b5b6020026020010151600060638110611008576110076135ea565b5b60200201518151811061101e5761101d6135ea565b5b60200260200101805180919061103390613797565b815250508080600101915050610fad565b50600080600090505b82518110156110a357828181518110611069576110686135ea565b5b60200260200101518210156110965782818151811061108b5761108a6135ea565b5b602002602001015191505b808060010191505061104d565b50600267ffffffffffffffff8111156110bf576110be612c33565b5b6040519080825280602002602001820160405280156110f257816020015b60608152602001906001900390816110dd5790505b5096506000810361110757505050505061153a565b6000600260008a60405161111b9190613567565b90815260200160405180910390206006018054905061113a919061380e565b90508082106112a1576000805b60008b6040516111579190613567565b9081526020016040518091039020600301805490508110156112945783858281518110611187576111866135ea565b5b6020026020010151036112875760008b6040516111a49190613567565b908152602001604051809103902060030181815481106111c7576111c66135ea565b5b9060005260206000200180546111dc906134fa565b80601f0160208091040260200160405190810160405280929190818152602001828054611208906134fa565b80156112555780601f1061122a57610100808354040283529160200191611255565b820191906000526020600020905b81548152906001019060200180831161123857829003601f168201915b50505050508a838151811061126d5761126c6135ea565b5b6020026020010181905250818061128390613797565b9250505b8080600101915050611147565b505050505050505061153a565b6000805b84518110156112e1578481815181106112c1576112c06135ea565b5b60200260200101518211156112d4578091505b80806001019150506112a5565b506000808b6040516112f39190613567565b90815260200160405180910390206003018054905067ffffffffffffffff81111561132157611320612c33565b5b60405190808252806020026020018201604052801561134f5781602001602082028036833780820191505090505b5090506000805b86518110156113bc5783878281518110611373576113726135ea565b5b6020026020010151036113af5780838381518110611394576113936135ea565b5b60200260200101818152505081806113ab90613797565b9250505b8080600101915050611356565b5060005b60008d6040516113d09190613567565b9081526020016040518091039020600601805490508110156115225760005b83518110156115145783818151811061140b5761140a6135ea565b5b60200260200101518b8381518110611426576114256135ea565b5b6020026020010151600060638110611441576114406135ea565b5b602002015103611507578a828151811061145e5761145d6135ea565b5b602002602001015160018b848151811061147b5761147a6135ea565b5b602002602001015161148d919061383f565b6063811061149e5761149d6135ea565b5b60200201518b83815181106114b6576114b56135ea565b5b60200260200101516000606381106114d1576114d06135ea565b5b6020020181815250508982815181106114ed576114ec6135ea565b5b60200260200101805180919061150290613797565b815250505b80806001019150506113ef565b5080806001019150506113c0565b505050505050508080600101915050610f0e565b5050505b50919050565b80600073ffffffffffffffffffffffffffffffffffffffff166000826040516115699190613567565b908152602001604051809103902060000160009054906101000a900473ffffffffffffffffffffffffffffffffffffffff1673ffffffffffffffffffffffffffffffffffffffff16036115f1576040517f08c379a00000000000000000000000000000000000000000000000000000000081526004016115e8906135ca565b60405180910390fd5b6000826040516116019190613567565b908152602001604051809103902060020160009054906101000a900460ff1661165f576040517f08c379a0000000000000000000000000000000000000000000000000000000008152600401611656906138bf565b60405180910390fd5b3373ffffffffffffffffffffffffffffffffffffffff166000836040516116869190613567565b908152602001604051809103902060000160009054906101000a900473ffffffffffffffffffffffffffffffffffffffff1673ffffffffffffffffffffffffffffffffffffffff161461170e576040517f08c379a000000000000000000000000000000000000000000000000000000000815260040161170590613951565b60405180910390fd5b6000808360405161171f9190613567565b908152602001604051809103902060020160006101000a81548160ff021916908315150217905550816040516117559190613567565b60405180910390207fa00a67652459c6dfc10b09a6811992aba29bf54e23a7b7c81a7b324d4e3994be60405160405180910390a25050565b60606001805480602002602001604051908101604052809291908181526020016000905b8282101561185d5783829060005260206000200180546117d0906134fa565b80601f01602080910402602001604051908101604052809291908181526020018280546117fc906134fa565b80156118495780601f1061181e57610100808354040283529160200191611849565b820191906000526020600020905b81548152906001019060200180831161182c57829003601f168201915b5050505050815260200190600101906117b1565b50505050905090565b606081600073ffffffffffffffffffffffffffffffffffffffff166000826040516118919190613567565b908152602001604051809103902060000160009054906101000a900473ffffffffffffffffffffffffffffffffffffffff1673ffffffffffffffffffffffffffffffffffffffff1603611919576040517f08c379a0000000000000000000000000000000000000000000000000000000008152600401611910906135ca565b60405180910390fd5b6000836040516119299190613567565b90815260200160405180910390206001018054611945906134fa565b80601f0160208091040260200160405190810160405280929190818152602001828054611971906134fa565b80156119be5780601f10611993576101008083540402835291602001916119be565b820191906000526020600020905b8154815290600101906020018083116119a157829003601f168201915b5050505050915050919050565b600080826040516119dc9190613567565b908152602001604051809103902060000160009054906101000a900473ffffffffffffffffffffffffffffffffffffffff169050919050565b606081600073ffffffffffffffffffffffffffffffffffffffff16600082604051611a409190613567565b908152602001604051809103902060000160009054906101000a900473ffffffffffffffffffffffffffffffffffffffff1673ffffffffffffffffffffffffffffffffffffffff1603611ac8576040517f08c379a0000000000000000000000000000000000000000000000000000000008152600401611abf906135ca565b60405180910390fd5b600083604051611ad89190613567565b9081526020016040518091039020600301805480602002602001604051908101604052809291908181526020016000905b82821015611bb5578382906000526020600020018054611b28906134fa565b80601f0160208091040260200160405190810160405280929190818152602001828054611b54906134fa565b8015611ba15780601f10611b7657610100808354040283529160200191611ba1565b820191906000526020600020905b815481529060010190602001808311611b8457829003601f168201915b505050505081526020019060010190611b09565b50505050915050919050565b600073ffffffffffffffffffffffffffffffffffffffff16600086604051611be99190613567565b908152602001604051809103902060000160009054906101000a900473ffffffffffffffffffffffffffffffffffffffff1673ffffffffffffffffffffffffffffffffffffffff1614611c71576040517f08c379a0000000000000000000000000000000000000000000000000000000008152600401611c68906139e3565b60405180910390fd5b606383511115611cb6576040517f08c379a0000000000000000000000000000000000000000000000000000000008152600401611cad90613a4f565b60405180910390fd5b600260009054906101000a900473ffffffffffffffffffffffffffffffffffffffff1673ffffffffffffffffffffffffffffffffffffffff166311456b47866040518263ffffffff1660e01b8152600401611d119190612c07565b6020604051808303816000875af1158015611d30573d6000803e3d6000fd5b505050506040513d601f19601f82011682018060405250810190611d549190613a84565b611d93576040517f08c379a0000000000000000000000000000000000000000000000000000000008152600401611d8a90613afd565b60405180910390fd5b8115611eca576000815111611ddd576040517f08c379a0000000000000000000000000000000000000000000000000000000008152600401611dd490613b8f565b60405180910390fd5b6001600086604051611def9190613567565b908152602001604051809103902060020160016101000a81548160ff02191690831515021790555060005b8151811015611ec4576001600087604051611e359190613567565b90815260200160405180910390206005016000848481518110611e5b57611e5a6135ea565b5b602002602001015173ffffffffffffffffffffffffffffffffffffffff1673ffffffffffffffffffffffffffffffffffffffff16815260200190815260200160002060010160006101000a81548160ff0219169083151502179055508080600101915050611e1a565b50611f0f565b6000815114611f0e576040517f08c379a0000000000000000000000000000000000000000000000000000000008152600401611f0590613c21565b60405180910390fd5b5b33600086604051611f209190613567565b908152602001604051809103902060000160006101000a81548173ffffffffffffffffffffffffffffffffffffffff021916908373ffffffffffffffffffffffffffffffffffffffff160217905550604051602001611f7e90613c67565b6040516020818303038152906040528051906020012084604051602001611fa59190613567565b6040516020818303038152906040528051906020012014611ff05783600086604051611fd19190613567565b90815260200160405180910390206001019081611fee9190613e13565b505b826000866040516120019190613567565b90815260200160405180910390206003019080519060200190612025929190612a26565b5060005b835181101561209b57806000876040516120439190613567565b9081526020016040518091039020600401858381518110612067576120666135ea565b5b602002602001015160405161207c9190613567565b9081526020016040518091039020819055508080600101915050612029565b5060005b81518110156121495760016000876040516120ba9190613567565b908152602001604051809103902060050160008484815181106120e0576120df6135ea565b5b602002602001015173ffffffffffffffffffffffffffffffffffffffff1673ffffffffffffffffffffffffffffffffffffffff16815260200190815260200160002060010160006101000a81548160ff021916908315150217905550808060010191505061209f565b5060018590806001815401808255809150506001900390600052602060002001600090919091909150908161217e9190613e13565b5060016000866040516121919190613567565b908152602001604051809103902060020160006101000a81548160ff021916908315150217905550846040516121c79190613567565b60405180910390207ffde17daabe48b554ebb28deab1885c922b8c13373b7281fa54b1244b22356b36336040516121fe91906130f6565b60405180910390a25050505050565b6000818051602081018201805184825260208301602085012081835280955050505050506000915090508060000160009054906101000a900473ffffffffffffffffffffffffffffffffffffffff169080600101805461226c906134fa565b80601f0160208091040260200160405190810160405280929190818152602001828054612298906134fa565b80156122e55780601f106122ba576101008083540402835291602001916122e5565b820191906000526020600020905b8154815290600101906020018083116122c857829003601f168201915b5050505050908060020160009054906101000a900460ff16908060020160019054906101000a900460ff16905084565b600082600073ffffffffffffffffffffffffffffffffffffffff166000826040516123409190613567565b908152602001604051809103902060000160009054906101000a900473ffffffffffffffffffffffffffffffffffffffff1673ffffffffffffffffffffffffffffffffffffffff16036123c8576040517f08c379a00000000000000000000000000000000000000000000000000000000081526004016123bf906135ca565b60405180910390fd5b6000846040516123d89190613567565b908152602001604051809103902060020160019054906101000a900460ff166124045760019150612476565b6000846040516124149190613567565b908152602001604051809103902060050160008473ffffffffffffffffffffffffffffffffffffffff1673ffffffffffffffffffffffffffffffffffffffff16815260200190815260200160002060010160009054906101000a900460ff1691505b5092915050565b60008260405161248d9190613567565b908152602001604051809103902060020160009054906101000a900460ff166124eb576040517f08c379a00000000000000000000000000000000000000000000000000000000081526004016124e290613f57565b60405180910390fd5b600080836040516124fc9190613567565b908152602001604051809103902060050160003373ffffffffffffffffffffffffffffffffffffffff1673ffffffffffffffffffffffffffffffffffffffff1681526020019081526020016000206000018054905014612591576040517f08c379a000000000000000000000000000000000000000000000000000000000815260040161258890613fc3565b60405180910390fd5b60008151116125d5576040517f08c379a00000000000000000000000000000000000000000000000000000000081526004016125cc9061402f565b60405180910390fd5b6000826040516125e59190613567565b908152602001604051809103902060020160019054906101000a900460ff16156126b8576000826040516126199190613567565b908152602001604051809103902060050160003373ffffffffffffffffffffffffffffffffffffffff1673ffffffffffffffffffffffffffffffffffffffff16815260200190815260200160002060010160009054906101000a900460ff166126b7576040517f08c379a00000000000000000000000000000000000000000000000000000000081526004016126ae9061409b565b60405180910390fd5b5b600080836040516126c99190613567565b9081526020016040518091039020600301805480602002602001604051908101604052809291908181526020016000905b828210156127a6578382906000526020600020018054612719906134fa565b80601f0160208091040260200160405190810160405280929190818152602001828054612745906134fa565b80156127925780601f1061276757610100808354040283529160200191612792565b820191906000526020600020905b81548152906001019060200180831161277557829003601f168201915b5050505050815260200190600101906126fa565b50505050905060005b82518110156128b65760005b82518110156128a8578382815181106127d7576127d66135ea565b5b60200260200101516040516020016127ef9190613567565b60405160208183030381529060405280519060200120838281518110612818576128176135ea565b5b60200260200101516040516020016128309190613567565b6040516020818303038152906040528051906020012003156128a8576001835161285a9190613648565b810361289b576040517f08c379a0000000000000000000000000000000000000000000000000000000008152600401612892906136c8565b60405180910390fd5b80806001019150506127bb565b5080806001019150506127af565b50816000846040516128c89190613567565b908152602001604051809103902060050160003373ffffffffffffffffffffffffffffffffffffffff1673ffffffffffffffffffffffffffffffffffffffff168152602001908152602001600020600001908051906020019061292c929190612a26565b5060008360405161293d9190613567565b9081526020016040518091039020600601339080600181540180825580915050600190039060005260206000200160009091909190916101000a81548173ffffffffffffffffffffffffffffffffffffffff021916908373ffffffffffffffffffffffffffffffffffffffff160217905550826040516129bd9190613567565b60405180910390207fc0cfec789554396c36a7a6dc3381aedaa0dc128048ac963321da048b6401587d83336040516129f69291906140bb565b60405180910390a2505050565b60405180610c600160405280606390602082028036833780820191505090505090565b828054828255906000526020600020908101928215612a6e579160200282015b82811115612a6d578251829081612a5d9190613e13565b5091602001919060010190612a46565b5b509050612a7b9190612a7f565b5090565b5b80821115612a9f5760008181612a969190612aa3565b50600101612a80565b5090565b508054612aaf906134fa565b6000825580601f10612ac15750612ae0565b601f016020900490600052602060002090810190612adf9190612ae3565b5b50565b5b80821115612afc576000816000905550600101612ae4565b5090565b6000604051905090565b600080fd5b600080fd5b6000819050919050565b612b2781612b14565b8114612b3257600080fd5b50565b600081359050612b4481612b1e565b92915050565b600060208284031215612b6057612b5f612b0a565b5b6000612b6e84828501612b35565b91505092915050565b600081519050919050565b600082825260208201905092915050565b60005b83811015612bb1578082015181840152602081019050612b96565b60008484015250505050565b6000601f19601f8301169050919050565b6000612bd982612b77565b612be38185612b82565b9350612bf3818560208601612b93565b612bfc81612bbd565b840191505092915050565b60006020820190508181036000830152612c218184612bce565b905092915050565b600080fd5b600080fd5b7f4e487b7100000000000000000000000000000000000000000000000000000000600052604160045260246000fd5b612c6b82612bbd565b810181811067ffffffffffffffff82111715612c8a57612c89612c33565b5b80604052505050565b6000612c9d612b00565b9050612ca98282612c62565b919050565b600067ffffffffffffffff821115612cc957612cc8612c33565b5b612cd282612bbd565b9050602081019050919050565b82818337600083830152505050565b6000612d01612cfc84612cae565b612c93565b905082815260208101848484011115612d1d57612d1c612c2e565b5b612d28848285612cdf565b509392505050565b600082601f830112612d4557612d44612c29565b5b8135612d55848260208601612cee565b91505092915050565b60008060408385031215612d7557612d74612b0a565b5b600083013567ffffffffffffffff811115612d9357612d92612b0f565b5b612d9f85828601612d30565b925050602083013567ffffffffffffffff811115612dc057612dbf612b0f565b5b612dcc85828601612d30565b9150509250929050565b600081519050919050565b600082825260208201905092915050565b6000819050602082019050919050565b612e0b81612b14565b82525050565b6000612e1d8383612e02565b60208301905092915050565b6000602082019050919050565b6000612e4182612dd6565b612e4b8185612de1565b9350612e5683612df2565b8060005b83811015612e87578151612e6e8882612e11565b9750612e7983612e29565b925050600181019050612e5a565b5085935050505092915050565b60006020820190508181036000830152612eae8184612e36565b905092915050565b600073ffffffffffffffffffffffffffffffffffffffff82169050919050565b6000612ee182612eb6565b9050919050565b612ef181612ed6565b8114612efc57600080fd5b50565b600081359050612f0e81612ee8565b92915050565b60008060408385031215612f2b57612f2a612b0a565b5b600083013567ffffffffffffffff811115612f4957612f48612b0f565b5b612f5585828601612d30565b9250506020612f6685828601612eff565b9150509250929050565b600081519050919050565b600082825260208201905092915050565b6000819050602082019050919050565b600082825260208201905092915050565b6000612fb882612b77565b612fc28185612f9c565b9350612fd2818560208601612b93565b612fdb81612bbd565b840191505092915050565b6000612ff28383612fad565b905092915050565b6000602082019050919050565b600061301282612f70565b61301c8185612f7b565b93508360208202850161302e85612f8c565b8060005b8581101561306a578484038952815161304b8582612fe6565b945061305683612ffa565b925060208a01995050600181019050613032565b50829750879550505050505092915050565b600060208201905081810360008301526130968184613007565b905092915050565b6000602082840312156130b4576130b3612b0a565b5b600082013567ffffffffffffffff8111156130d2576130d1612b0f565b5b6130de84828501612d30565b91505092915050565b6130f081612ed6565b82525050565b600060208201905061310b60008301846130e7565b92915050565b600067ffffffffffffffff82111561312c5761312b612c33565b5b602082029050602081019050919050565b600080fd5b600061315561315084613111565b612c93565b905080838252602082019050602084028301858111156131785761317761313d565b5b835b818110156131bf57803567ffffffffffffffff81111561319d5761319c612c29565b5b8086016131aa8982612d30565b8552602085019450505060208101905061317a565b5050509392505050565b600082601f8301126131de576131dd612c29565b5b81356131ee848260208601613142565b91505092915050565b60008115159050919050565b61320c816131f7565b811461321757600080fd5b50565b60008135905061322981613203565b92915050565b600067ffffffffffffffff82111561324a57613249612c33565b5b602082029050602081019050919050565b600061326e6132698461322f565b612c93565b905080838252602082019050602084028301858111156132915761329061313d565b5b835b818110156132ba57806132a68882612eff565b845260208401935050602081019050613293565b5050509392505050565b600082601f8301126132d9576132d8612c29565b5b81356132e984826020860161325b565b91505092915050565b600080600080600060a0868803121561330e5761330d612b0a565b5b600086013567ffffffffffffffff81111561332c5761332b612b0f565b5b61333888828901612d30565b955050602086013567ffffffffffffffff81111561335957613358612b0f565b5b61336588828901612d30565b945050604086013567ffffffffffffffff81111561338657613385612b0f565b5b613392888289016131c9565b93505060606133a38882890161321a565b925050608086013567ffffffffffffffff8111156133c4576133c3612b0f565b5b6133d0888289016132c4565b9150509295509295909350565b6133e6816131f7565b82525050565b600060808201905061340160008301876130e7565b81810360208301526134138186612bce565b905061342260408301856133dd565b61342f60608301846133dd565b95945050505050565b600060208201905061344d60008301846133dd565b92915050565b6000806040838503121561346a57613469612b0a565b5b600083013567ffffffffffffffff81111561348857613487612b0f565b5b61349485828601612d30565b925050602083013567ffffffffffffffff8111156134b5576134b4612b0f565b5b6134c1858286016131c9565b9150509250929050565b7f4e487b7100000000000000000000000000000000000000000000000000000000600052602260045260246000fd5b6000600282049050600182168061351257607f821691505b602082108103613525576135246134cb565b5b50919050565b600081905092915050565b600061354182612b77565b61354b818561352b565b935061355b818560208601612b93565b80840191505092915050565b60006135738284613536565b915081905092915050565b7f506f6c6c20646f6573206e6f742065786973742e000000000000000000000000600082015250565b60006135b4601483612b82565b91506135bf8261357e565b602082019050919050565b600060208201905081810360008301526135e3816135a7565b9050919050565b7f4e487b7100000000000000000000000000000000000000000000000000000000600052603260045260246000fd5b7f4e487b7100000000000000000000000000000000000000000000000000000000600052601160045260246000fd5b600061365382612b14565b915061365e83612b14565b925082820390508181111561367657613675613619565b5b92915050565b7f4f6e65206f6620796f7572206f7074696f6e7320697320696e76616c69642e00600082015250565b60006136b2601f83612b82565b91506136bd8261367c565b602082019050919050565b600060208201905081810360008301526136e1816136a5565b9050919050565b60008190508160005260206000209050919050565b6000815461370a816134fa565b613714818661352b565b9450600182166000811461372f576001811461374457613777565b60ff1983168652811515820286019350613777565b61374d856136e8565b60005b8381101561376f57815481890152600182019150602081019050613750565b838801955050505b50505092915050565b600061378c82846136fd565b915081905092915050565b60006137a282612b14565b91507fffffffffffffffffffffffffffffffffffffffffffffffffffffffffffffffff82036137d4576137d3613619565b5b600182019050919050565b7f4e487b7100000000000000000000000000000000000000000000000000000000600052601260045260246000fd5b600061381982612b14565b915061382483612b14565b925082613834576138336137df565b5b828204905092915050565b600061384a82612b14565b915061385583612b14565b925082820190508082111561386d5761386c613619565b5b92915050565b7f506f6c6c20616c726561647920636c6f7365642e000000000000000000000000600082015250565b60006138a9601483612b82565b91506138b482613873565b602082019050919050565b600060208201905081810360008301526138d88161389c565b9050919050565b7f596f7520617265206e6f7420746865206f776e6572206f66207468697320706f60008201527f6c6c2e0000000000000000000000000000000000000000000000000000000000602082015250565b600061393b602383612b82565b9150613946826138df565b604082019050919050565b6000602082019050818103600083015261396a8161392e565b9050919050565b7f416e6f7468657220706f6c6c20616c7265616479206861732074686174206e6160008201527f6d652e0000000000000000000000000000000000000000000000000000000000602082015250565b60006139cd602383612b82565b91506139d882613971565b604082019050919050565b600060208201905081810360008301526139fc816139c0565b9050919050565b7f596f752063616e206f6e6c792068617665203939206f7074696f6e732e000000600082015250565b6000613a39601d83612b82565b9150613a4482613a03565b602082019050919050565b60006020820190508181036000830152613a6881613a2c565b9050919050565b600081519050613a7e81613203565b92915050565b600060208284031215613a9a57613a99612b0a565b5b6000613aa884828501613a6f565b91505092915050565b7f4e616d65207265736572766174696f6e206661696c65642e0000000000000000600082015250565b6000613ae7601883612b82565b9150613af282613ab1565b602082019050919050565b60006020820190508181036000830152613b1681613ada565b9050919050565b7f43616e2774206265207072697661746520616e6420616c6c6f77206e6f206f6e60008201527f6500000000000000000000000000000000000000000000000000000000000000602082015250565b6000613b79602183612b82565b9150613b8482613b1d565b604082019050919050565b60006020820190508181036000830152613ba881613b6c565b9050919050565b7f43616e2774206265207075626c696320616e6420726573747269637420766f7460008201527f6572732e00000000000000000000000000000000000000000000000000000000602082015250565b6000613c0b602483612b82565b9150613c1682613baf565b604082019050919050565b60006020820190508181036000830152613c3a81613bfe565b9050919050565b50565b6000613c5160008361352b565b9150613c5c82613c41565b600082019050919050565b6000613c7282613c44565b9150819050919050565b60006020601f8301049050919050565b600082821b905092915050565b600060088302613cc97fffffffffffffffffffffffffffffffffffffffffffffffffffffffffffffffff82613c8c565b613cd38683613c8c565b95508019841693508086168417925050509392505050565b6000819050919050565b6000613d10613d0b613d0684612b14565b613ceb565b612b14565b9050919050565b6000819050919050565b613d2a83613cf5565b613d3e613d3682613d17565b848454613c99565b825550505050565b600090565b613d53613d46565b613d5e818484613d21565b505050565b5b81811015613d8257613d77600082613d4b565b600181019050613d64565b5050565b601f821115613dc757613d98816136e8565b613da184613c7c565b81016020851015613db0578190505b613dc4613dbc85613c7c565b830182613d63565b50505b505050565b600082821c905092915050565b6000613dea60001984600802613dcc565b1980831691505092915050565b6000613e038383613dd9565b9150826002028217905092915050565b613e1c82612b77565b67ffffffffffffffff811115613e3557613e34612c33565b5b613e3f82546134fa565b613e4a828285613d86565b600060209050601f831160018114613e7d5760008415613e6b578287015190505b613e758582613df7565b865550613edd565b601f198416613e8b866136e8565b60005b82811015613eb357848901518255600182019150602085019450602081019050613e8e565b86831015613ed05784890151613ecc601f891682613dd9565b8355505b6001600288020188555050505b505050505050565b7f506f6c6c20646f6573206e6f74206578697374206f7220706f6c6c206973206e60008201527f6f74206f70656e2e000000000000000000000000000000000000000000000000602082015250565b6000613f41602883612b82565b9150613f4c82613ee5565b604082019050919050565b60006020820190508181036000830152613f7081613f34565b9050919050565b7f596f7520616c726561647920766f7465642e0000000000000000000000000000600082015250565b6000613fad601283612b82565b9150613fb882613f77565b602082019050919050565b60006020820190508181036000830152613fdc81613fa0565b9050919050565b7f43616e6e6f7420766f746520666f72206e6f206f6e652e000000000000000000600082015250565b6000614019601783612b82565b915061402482613fe3565b602082019050919050565b600060208201905081810360008301526140488161400c565b9050919050565b7f596f7520617265206e6f7420616c6c6f77656420746f20766f74652e00000000600082015250565b6000614085601c83612b82565b91506140908261404f565b602082019050919050565b600060208201905081810360008301526140b481614078565b9050919050565b600060408201905081810360008301526140d58185613007565b90506140e460208301846130e7565b939250505056fea2646970667358221220413b68eaa7218e7c88555010d83a6024735b537e8ce840e9933502f2bd27a48564736f6c634300081a0033",
  "linkReferences": {},
  "deployedLinkReferences": {}
}