{
  "_format": "hh-sol-artifact-1",
  "contractName": "VoteDappRegular",
  "sourceName": "contracts/VoteDappRegular.sol",
  "abi": [
    {
      "inputs": [
        {
          "internalType": "address",
          "name": "_token",
          "type": "address"
        },
        {
          "internalType": "address",
          "name": "_storage",
          "type": "address"
        }
      ],
      "stateMutability": "nonpayable",
      "type": "constructor"
    },
    {
      "anonymous": false,
      "inputs": [
        {
          "indexed": true,
          "internalType": "string",
          "name": "_pollName",
          "type": "string"
        },
        {
          "indexed": false,
          "internalType": "address",
          "name": "_owner",
          "type": "address"
        }
      ],
      "name": "pollCreated",
      "type": "event"
    },
    {
      "anonymous": false,
      "inputs": [
        {
          "indexed": true,
          "internalType": "string",
          "name": "_pollName",
          "type": "string"
        }
      ],
      "name": "pollEnded",
      "type": "event"
    },
    {
      "anonymous": false,
      "inputs": [
        {
          "indexed": true,
          "internalType": "string",
          "name": "_pollName",
          "type": "string"
        },
        {
          "indexed": false,
          "internalType": "string",
          "name": "_option",
          "type": "string"
        },
        {
          "indexed": false,
          "internalType": "address",
          "name": "_voter",
          "type": "address"
        }
      ],
      "name": "pollVoted",
      "type": "event"
    },
    {
      "inputs": [
        {
          "internalType": "string",
          "name": "",
          "type": "string"
        }
      ],
      "name": "Polls",
      "outputs": [
        {
          "internalType": "address",
          "name": "owner",
          "type": "address"
        },
        {
          "internalType": "address",
          "name": "recipient",
          "type": "address"
        },
        {
          "internalType": "string",
          "name": "description",
          "type": "string"
        },
        {
          "internalType": "bool",
          "name": "open",
          "type": "bool"
        },
        {
          "internalType": "bool",
          "name": "privatePoll",
          "type": "bool"
        },
        {
          "internalType": "bool",
          "name": "returnMoneyOnCompletion",
          "type": "bool"
        },
        {
          "internalType": "uint256",
          "name": "cost",
          "type": "uint256"
        },
        {
          "internalType": "uint256",
          "name": "maxVotes",
          "type": "uint256"
        }
      ],
      "stateMutability": "view",
      "type": "function"
    },
    {
      "inputs": [
        {
          "internalType": "string",
          "name": "pollName",
          "type": "string"
        }
      ],
      "name": "checkGetYourMoney",
      "outputs": [
        {
          "internalType": "uint256",
          "name": "",
          "type": "uint256"
        }
      ],
      "stateMutability": "view",
      "type": "function"
    },
    {
      "inputs": [
        {
          "internalType": "string",
          "name": "pollName",
          "type": "string"
        },
        {
          "internalType": "string",
          "name": "description",
          "type": "string"
        },
        {
          "internalType": "string[]",
          "name": "toptions",
          "type": "string[]"
        },
        {
          "internalType": "uint256",
          "name": "maxVotes",
          "type": "uint256"
        },
        {
          "internalType": "uint256",
          "name": "votecost",
          "type": "uint256"
        },
        {
          "internalType": "bool",
          "name": "returnMoneyOnCompletion",
          "type": "bool"
        },
        {
          "internalType": "bool",
          "name": "privatePoll",
          "type": "bool"
        },
        {
          "internalType": "address[]",
          "name": "allowedVoters",
          "type": "address[]"
        },
        {
          "internalType": "address",
          "name": "recipient",
          "type": "address"
        }
      ],
      "name": "createPoll",
      "outputs": [],
      "stateMutability": "nonpayable",
      "type": "function"
    },
    {
      "inputs": [
        {
          "internalType": "string",
          "name": "pollName",
          "type": "string"
        }
      ],
      "name": "endPoll",
      "outputs": [],
      "stateMutability": "nonpayable",
      "type": "function"
    },
    {
      "inputs": [
        {
          "internalType": "string",
          "name": "pollName",
          "type": "string"
        }
      ],
      "name": "getPollDescription",
      "outputs": [
        {
          "internalType": "string",
          "name": "",
          "type": "string"
        }
      ],
      "stateMutability": "view",
      "type": "function"
    },
    {
      "inputs": [],
      "name": "getPollList",
      "outputs": [
        {
          "internalType": "string[]",
          "name": "",
          "type": "string[]"
        }
      ],
      "stateMutability": "view",
      "type": "function"
    },
    {
      "inputs": [
        {
          "internalType": "string",
          "name": "pollName",
          "type": "string"
        }
      ],
      "name": "getPollOwner",
      "outputs": [
        {
          "internalType": "address",
          "name": "",
          "type": "address"
        }
      ],
      "stateMutability": "view",
      "type": "function"
    },
    {
      "inputs": [
        {
          "internalType": "string",
          "name": "pollName",
          "type": "string"
        }
      ],
      "name": "getYourMoney",
      "outputs": [],
      "stateMutability": "nonpayable",
      "type": "function"
    },
    {
      "inputs": [
        {
          "internalType": "string",
          "name": "pollName",
          "type": "string"
        },
        {
          "internalType": "address",
          "name": "voter",
          "type": "address"
        }
      ],
      "name": "isAllowedToVote",
      "outputs": [
        {
          "internalType": "bool",
          "name": "",
          "type": "bool"
        }
      ],
      "stateMutability": "view",
      "type": "function"
    },
    {
      "inputs": [
        {
          "internalType": "uint256",
          "name": "",
          "type": "uint256"
        }
      ],
      "name": "listofPolls",
      "outputs": [
        {
          "internalType": "string",
          "name": "",
          "type": "string"
        }
      ],
      "stateMutability": "view",
      "type": "function"
    },
    {
      "inputs": [
        {
          "internalType": "string",
          "name": "pollName",
          "type": "string"
        },
        {
          "internalType": "string",
          "name": "option",
          "type": "string"
        }
      ],
      "name": "requestOptionVotes",
      "outputs": [
        {
          "internalType": "uint256",
          "name": "",
          "type": "uint256"
        }
      ],
      "stateMutability": "view",
      "type": "function"
    },
    {
      "inputs": [
        {
          "internalType": "string",
          "name": "pollName",
          "type": "string"
        }
      ],
      "name": "requestOptions",
      "outputs": [
        {
          "internalType": "string[]",
          "name": "",
          "type": "string[]"
        }
      ],
      "stateMutability": "view",
      "type": "function"
    },
    {
      "inputs": [
        {
          "internalType": "string",
          "name": "pollName",
          "type": "string"
        }
      ],
      "name": "requestWinner",
      "outputs": [
        {
          "internalType": "string[]",
          "name": "",
          "type": "string[]"
        }
      ],
      "stateMutability": "view",
      "type": "function"
    },
    {
      "inputs": [
        {
          "internalType": "string",
          "name": "pollName",
          "type": "string"
        },
        {
          "internalType": "string",
          "name": "option",
          "type": "string"
        },
        {
          "internalType": "address",
          "name": "voter",
          "type": "address"
        }
      ],
      "name": "trackSpecificVotes",
      "outputs": [
        {
          "internalType": "uint256",
          "name": "",
          "type": "uint256"
        }
      ],
      "stateMutability": "view",
      "type": "function"
    },
    {
      "inputs": [
        {
          "internalType": "string",
          "name": "pollName",
          "type": "string"
        },
        {
          "internalType": "address",
          "name": "voter",
          "type": "address"
        }
      ],
      "name": "trackTotalVotes",
      "outputs": [
        {
          "internalType": "uint256",
          "name": "",
          "type": "uint256"
        }
      ],
      "stateMutability": "view",
      "type": "function"
    },
    {
      "inputs": [
        {
          "internalType": "string",
          "name": "pollName",
          "type": "string"
        },
        {
          "internalType": "string",
          "name": "option",
          "type": "string"
        },
        {
          "internalType": "uint256",
          "name": "votes",
          "type": "uint256"
        }
      ],
      "name": "vote",
      "outputs": [],
      "stateMutability": "nonpayable",
      "type": "function"
    }
  ],
  "bytecode": "0x608060405234801561001057600080fd5b5060405161540b38038061540b8339818101604052810190610032919061011e565b81600260006101000a81548173ffffffffffffffffffffffffffffffffffffffff021916908373ffffffffffffffffffffffffffffffffffffffff16021790555080600360006101000a81548173ffffffffffffffffffffffffffffffffffffffff021916908373ffffffffffffffffffffffffffffffffffffffff160217905550505061015e565b600080fd5b600073ffffffffffffffffffffffffffffffffffffffff82169050919050565b60006100eb826100c0565b9050919050565b6100fb816100e0565b811461010657600080fd5b50565b600081519050610118816100f2565b92915050565b60008060408385031215610135576101346100bb565b5b600061014385828601610109565b925050602061015485828601610109565b9150509250929050565b61529e8061016d6000396000f3fe608060405234801561001057600080fd5b50600436106101005760003560e01c80636f3ea48c11610097578063ad27106b11610066578063ad27106b146102e3578063b81d5a9614610313578063d499b29914610343578063e8692c611461037a57610100565b80636f3ea48c146102375780637a4c96ad1461026757806385bf544b1461028357806394d5cbfd146102b357610100565b80634ac3b118116100d35780634ac3b118146101b157806354a9ac5e146101cd57806363511325146101fd5780636a506c221461021957610100565b80631b8f20e814610105578063299c4491146101355780632adf51f2146101515780633333765014610181575b600080fd5b61011f600480360381019061011a9190613840565b6103aa565b60405161012c91906138fd565b60405180910390f35b61014f600480360381019061014a9190613a54565b610456565b005b61016b60048036038101906101669190613a9d565b610ac8565b6040516101789190613b24565b60405180910390f35b61019b60048036038101906101969190613b9d565b610d91565b6040516101a89190613b24565b60405180910390f35b6101cb60048036038101906101c69190613e09565b611098565b005b6101e760048036038101906101e29190613a54565b6116c5565b6040516101f4919061404f565b60405180910390f35b61021760048036038101906102129190613a54565b611b21565b005b610221611fb9565b60405161022e919061404f565b60405180910390f35b610251600480360381019061024c9190613a54565b612092565b60405161025e91906138fd565b60405180910390f35b610281600480360381019061027c9190614071565b6121f7565b005b61029d600480360381019061029891906140fc565b612b73565b6040516102aa9190613b24565b60405180910390f35b6102cd60048036038101906102c89190613a54565b612de6565b6040516102da9190613b24565b60405180910390f35b6102fd60048036038101906102f89190613a54565b613271565b60405161030a9190614167565b60405180910390f35b61032d60048036038101906103289190613a54565b6132bb565b60405161033a919061404f565b60405180910390f35b61035d60048036038101906103589190613a54565b613467565b604051610371989796959493929190614191565b60405180910390f35b610394600480360381019061038f91906140fc565b6135b4565b6040516103a19190614216565b60405180910390f35b600181815481106103ba57600080fd5b9060005260206000200160009150905080546103d590614260565b80601f016020809104026020016040519081016040528092919081815260200182805461040190614260565b801561044e5780601f106104235761010080835404028352916020019161044e565b820191906000526020600020905b81548152906001019060200180831161043157829003601f168201915b505050505081565b80600073ffffffffffffffffffffffffffffffffffffffff1660008260405161047f91906142cd565b908152602001604051809103902060000160009054906101000a900473ffffffffffffffffffffffffffffffffffffffff1673ffffffffffffffffffffffffffffffffffffffff1603610507576040517f08c379a00000000000000000000000000000000000000000000000000000000081526004016104fe90614330565b60405180910390fd5b60008260405161051791906142cd565b908152602001604051809103902060030160009054906101000a900460ff1615610576576040517f08c379a000000000000000000000000000000000000000000000000000000000815260040161056d906143c2565b60405180910390fd5b6000808360405161058791906142cd565b908152602001604051809103902060070154116105d9576040517f08c379a00000000000000000000000000000000000000000000000000000000081526004016105d09061442e565b60405180910390fd5b6000826040516105e991906142cd565b908152602001604051809103902060060160003373ffffffffffffffffffffffffffffffffffffffff1673ffffffffffffffffffffffffffffffffffffffff16815260200190815260200160002060000160009054906101000a900460ff1615610688576040517f08c379a000000000000000000000000000000000000000000000000000000000815260040161067f9061449a565b60405180910390fd5b600160008360405161069a91906142cd565b908152602001604051809103902060060160003373ffffffffffffffffffffffffffffffffffffffff1673ffffffffffffffffffffffffffffffffffffffff16815260200190815260200160002060000160006101000a81548160ff0219169083151502179055506000808360405161071391906142cd565b9081526020016040518091039020600401805480602002602001604051908101604052809291908181526020016000905b828210156107f057838290600052602060002001805461076390614260565b80601f016020809104026020016040519081016040528092919081815260200182805461078f90614260565b80156107dc5780601f106107b1576101008083540402835291602001916107dc565b820191906000526020600020905b8154815290600101906020018083116107bf57829003601f168201915b505050505081526020019060010190610744565b5050505090506000805b82518110156108b55760008560405161081391906142cd565b9081526020016040518091039020600501838281518110610837576108366144ba565b5b602002602001015160405161084c91906142cd565b908152602001604051809103902060010160003373ffffffffffffffffffffffffffffffffffffffff1673ffffffffffffffffffffffffffffffffffffffff16815260200190815260200160002054826108a69190614518565b915080806001019150506107fa565b5060006108c1856116c5565b90506000856040516108d391906142cd565b908152602001604051809103902060030160029054906101000a900460ff166109b65760005b81518110156109b45760008660405161091291906142cd565b9081526020016040518091039020600501828281518110610936576109356144ba565b5b602002602001015160405161094b91906142cd565b908152602001604051809103902060010160003373ffffffffffffffffffffffffffffffffffffffff1673ffffffffffffffffffffffffffffffffffffffff16815260200190815260200160002054836109a5919061454c565b925080806001019150506108f9565b505b600260009054906101000a900473ffffffffffffffffffffffffffffffffffffffff1673ffffffffffffffffffffffffffffffffffffffff1663a9059cbb33600088604051610a0591906142cd565b90815260200160405180910390206007015485610a229190614580565b6040518363ffffffff1660e01b8152600401610a3f9291906145c2565b6020604051808303816000875af1158015610a5e573d6000803e3d6000fd5b505050506040513d601f19601f82011682018060405250810190610a829190614600565b610ac1576040517f08c379a0000000000000000000000000000000000000000000000000000000008152600401610ab890614679565b60405180910390fd5b5050505050565b600082600073ffffffffffffffffffffffffffffffffffffffff16600082604051610af391906142cd565b908152602001604051809103902060000160009054906101000a900473ffffffffffffffffffffffffffffffffffffffff1673ffffffffffffffffffffffffffffffffffffffff1603610b7b576040517f08c379a0000000000000000000000000000000000000000000000000000000008152600401610b7290614330565b60405180910390fd5b60008085604051610b8c91906142cd565b9081526020016040518091039020600401805480602002602001604051908101604052809291908181526020016000905b82821015610c69578382906000526020600020018054610bdc90614260565b80601f0160208091040260200160405190810160405280929190818152602001828054610c0890614260565b8015610c555780601f10610c2a57610100808354040283529160200191610c55565b820191906000526020600020905b815481529060010190602001808311610c3857829003601f168201915b505050505081526020019060010190610bbd565b50505050905060005b8151811015610d455784604051602001610c8c91906142cd565b60405160208183030381529060405280519060200120828281518110610cb557610cb46144ba565b5b6020026020010151604051602001610ccd91906142cd565b604051602081830303815290604052805190602001200315610d455760018251610cf7919061454c565b8103610d38576040517f08c379a0000000000000000000000000000000000000000000000000000000008152600401610d2f906146e5565b60405180910390fd5b8080600101915050610c72565b50600085604051610d5691906142cd565b908152602001604051809103902060050184604051610d7591906142cd565b9081526020016040518091039020600001549250505092915050565b600083600073ffffffffffffffffffffffffffffffffffffffff16600082604051610dbc91906142cd565b908152602001604051809103902060000160009054906101000a900473ffffffffffffffffffffffffffffffffffffffff1673ffffffffffffffffffffffffffffffffffffffff1603610e44576040517f08c379a0000000000000000000000000000000000000000000000000000000008152600401610e3b90614330565b60405180910390fd5b60008086604051610e5591906142cd565b9081526020016040518091039020600401805480602002602001604051908101604052809291908181526020016000905b82821015610f32578382906000526020600020018054610ea590614260565b80601f0160208091040260200160405190810160405280929190818152602001828054610ed190614260565b8015610f1e5780601f10610ef357610100808354040283529160200191610f1e565b820191906000526020600020905b815481529060010190602001808311610f0157829003601f168201915b505050505081526020019060010190610e86565b50505050905060005b815181101561100e5785604051602001610f5591906142cd565b60405160208183030381529060405280519060200120828281518110610f7e57610f7d6144ba565b5b6020026020010151604051602001610f9691906142cd565b60405160208183030381529060405280519060200120031561100e5760018251610fc0919061454c565b8103611001576040517f08c379a0000000000000000000000000000000000000000000000000000000008152600401610ff8906146e5565b60405180910390fd5b8080600101915050610f3b565b5060008660405161101f91906142cd565b90815260200160405180910390206005018560405161103e91906142cd565b908152602001604051809103902060010160008573ffffffffffffffffffffffffffffffffffffffff1673ffffffffffffffffffffffffffffffffffffffff16815260200190815260200160002054925050509392505050565b600073ffffffffffffffffffffffffffffffffffffffff1660008a6040516110c091906142cd565b908152602001604051809103902060000160009054906101000a900473ffffffffffffffffffffffffffffffffffffffff1673ffffffffffffffffffffffffffffffffffffffff1614611148576040517f08c379a000000000000000000000000000000000000000000000000000000000815260040161113f90614777565b60405180910390fd5b600186101561118c576040517f08c379a000000000000000000000000000000000000000000000000000000000815260040161118390614809565b60405180910390fd5b600360009054906101000a900473ffffffffffffffffffffffffffffffffffffffff1673ffffffffffffffffffffffffffffffffffffffff166311456b478a6040518263ffffffff1660e01b81526004016111e791906138fd565b6020604051808303816000875af1158015611206573d6000803e3d6000fd5b505050506040513d601f19601f8201168201806040525081019061122a9190614600565b611269576040517f08c379a000000000000000000000000000000000000000000000000000000000815260040161126090614875565b60405180910390fd5b82156113a05760008251116112b3576040517f08c379a00000000000000000000000000000000000000000000000000000000081526004016112aa90614907565b60405180910390fd5b600160008a6040516112c591906142cd565b908152602001604051809103902060030160016101000a81548160ff02191690831515021790555060005b825181101561139a57600160008b60405161130b91906142cd565b90815260200160405180910390206006016000858481518110611331576113306144ba565b5b602002602001015173ffffffffffffffffffffffffffffffffffffffff1673ffffffffffffffffffffffffffffffffffffffff16815260200190815260200160002060000160016101000a81548160ff02191690831515021790555080806001019150506112f0565b506113e5565b60008251146113e4576040517f08c379a00000000000000000000000000000000000000000000000000000000081526004016113db90614999565b60405180910390fd5b5b3360008a6040516113f691906142cd565b908152602001604051809103902060000160006101000a81548173ffffffffffffffffffffffffffffffffffffffff021916908373ffffffffffffffffffffffffffffffffffffffff160217905550604051602001611454906149df565b604051602081830303815290604052805190602001208860405160200161147b91906142cd565b60405160208183030381529060405280519060200120146114c6578760008a6040516114a791906142cd565b908152602001604051809103902060020190816114c49190614ba0565b505b8560008a6040516114d791906142cd565b9081526020016040518091039020600801819055508660008a6040516114fd91906142cd565b9081526020016040518091039020600401908051906020019061152192919061371c565b5060008511156115fe578460008a60405161153c91906142cd565b908152602001604051809103902060070181905550600115158415150361159c57600160008a60405161156f91906142cd565b908152602001604051809103902060030160026101000a81548160ff0219169083151502179055506115fd565b8060008a6040516115ad91906142cd565b908152602001604051809103902060010160006101000a81548173ffffffffffffffffffffffffffffffffffffffff021916908373ffffffffffffffffffffffffffffffffffffffff1602179055505b5b600160008a60405161161091906142cd565b908152602001604051809103902060030160006101000a81548160ff02191690831515021790555060018990806001815401808255809150506001900390600052602060002001600090919091909150908161166c9190614ba0565b508860405161167b91906142cd565b60405180910390207ffde17daabe48b554ebb28deab1885c922b8c13373b7281fa54b1244b22356b36336040516116b29190614167565b60405180910390a2505050505050505050565b606081600073ffffffffffffffffffffffffffffffffffffffff166000826040516116f091906142cd565b908152602001604051809103902060000160009054906101000a900473ffffffffffffffffffffffffffffffffffffffff1673ffffffffffffffffffffffffffffffffffffffff1603611778576040517f08c379a000000000000000000000000000000000000000000000000000000000815260040161176f90614330565b60405180910390fd5b6000808460405161178991906142cd565b90815260200160405180910390206004018054905067ffffffffffffffff8111156117b7576117b6613929565b5b6040519080825280602002602001820160405280156117e55781602001602082028036833780820191505090505b50905060005b815181101561189d5760008560405161180491906142cd565b908152602001604051809103902060050160008660405161182591906142cd565b90815260200160405180910390206004018281548110611848576118476144ba565b5b9060005260206000200160405161185f9190614cf5565b908152602001604051809103902060000154828281518110611884576118836144ba565b5b60200260200101818152505080806001019150506117eb565b506000805b82518110156118f8578281815181106118be576118bd6144ba565b5b60200260200101518210156118eb578281815181106118e0576118df6144ba565b5b602002602001015191505b80806001019150506118a2565b506000808660405161190a91906142cd565b90815260200160405180910390206004018054905067ffffffffffffffff81111561193857611937613929565b5b60405190808252806020026020018201604052801561196b57816020015b60608152602001906001900390816119565790505b5090506000820361198157809450505050611b1b565b6000805b8451811015611b125760008860405161199e91906142cd565b90815260200160405180910390206005016000896040516119bf91906142cd565b908152602001604051809103902060040182815481106119e2576119e16144ba565b5b906000526020600020016040516119f99190614cf5565b9081526020016040518091039020600001548403611b0557600088604051611a2191906142cd565b90815260200160405180910390206004018181548110611a4457611a436144ba565b5b906000526020600020018054611a5990614260565b80601f0160208091040260200160405190810160405280929190818152602001828054611a8590614260565b8015611ad25780601f10611aa757610100808354040283529160200191611ad2565b820191906000526020600020905b815481529060010190602001808311611ab557829003601f168201915b5050505050838381518110611aea57611ae96144ba565b5b6020026020010181905250600182611b029190614518565b91505b8080600101915050611985565b50819550505050505b50919050565b80600073ffffffffffffffffffffffffffffffffffffffff16600082604051611b4a91906142cd565b908152602001604051809103902060000160009054906101000a900473ffffffffffffffffffffffffffffffffffffffff1673ffffffffffffffffffffffffffffffffffffffff1603611bd2576040517f08c379a0000000000000000000000000000000000000000000000000000000008152600401611bc990614330565b60405180910390fd5b600082604051611be291906142cd565b908152602001604051809103902060030160009054906101000a900460ff16611c40576040517f08c379a0000000000000000000000000000000000000000000000000000000008152600401611c3790614d58565b60405180910390fd5b3373ffffffffffffffffffffffffffffffffffffffff16600083604051611c6791906142cd565b908152602001604051809103902060000160009054906101000a900473ffffffffffffffffffffffffffffffffffffffff1673ffffffffffffffffffffffffffffffffffffffff1614611cef576040517f08c379a0000000000000000000000000000000000000000000000000000000008152600401611ce690614dea565b60405180910390fd5b60008083604051611d0091906142cd565b908152602001604051809103902060030160006101000a81548160ff02191690831515021790555060008083604051611d3991906142cd565b908152602001604051809103902060070154118015611d8a575060001515600083604051611d6791906142cd565b908152602001604051809103902060030160029054906101000a900460ff161515145b15611f73576000611d9a836116c5565b90506000805b8251811015611e1e57600085604051611db991906142cd565b9081526020016040518091039020600501838281518110611ddd57611ddc6144ba565b5b6020026020010151604051611df291906142cd565b90815260200160405180910390206000015482611e0f9190614518565b91508080600101915050611da0565b5060008085604051611e3091906142cd565b908152602001604051809103902060010160009054906101000a900473ffffffffffffffffffffffffffffffffffffffff169050600260009054906101000a900473ffffffffffffffffffffffffffffffffffffffff1673ffffffffffffffffffffffffffffffffffffffff1663a9059cbb82600088604051611eb391906142cd565b90815260200160405180910390206007015485611ed09190614580565b6040518363ffffffff1660e01b8152600401611eed9291906145c2565b6020604051808303816000875af1158015611f0c573d6000803e3d6000fd5b505050506040513d601f19601f82011682018060405250810190611f309190614600565b611f6f576040517f08c379a0000000000000000000000000000000000000000000000000000000008152600401611f6690614679565b60405180910390fd5b5050505b81604051611f8191906142cd565b60405180910390207fa00a67652459c6dfc10b09a6811992aba29bf54e23a7b7c81a7b324d4e3994be60405160405180910390a25050565b60606001805480602002602001604051908101604052809291908181526020016000905b82821015612089578382906000526020600020018054611ffc90614260565b80601f016020809104026020016040519081016040528092919081815260200182805461202890614260565b80156120755780601f1061204a57610100808354040283529160200191612075565b820191906000526020600020905b81548152906001019060200180831161205857829003601f168201915b505050505081526020019060010190611fdd565b50505050905090565b606081600073ffffffffffffffffffffffffffffffffffffffff166000826040516120bd91906142cd565b908152602001604051809103902060000160009054906101000a900473ffffffffffffffffffffffffffffffffffffffff1673ffffffffffffffffffffffffffffffffffffffff1603612145576040517f08c379a000000000000000000000000000000000000000000000000000000000815260040161213c90614330565b60405180910390fd5b60008360405161215591906142cd565b9081526020016040518091039020600201805461217190614260565b80601f016020809104026020016040519081016040528092919081815260200182805461219d90614260565b80156121ea5780601f106121bf576101008083540402835291602001916121ea565b820191906000526020600020905b8154815290600101906020018083116121cd57829003601f168201915b5050505050915050919050565b60008360405161220791906142cd565b908152602001604051809103902060030160009054906101000a900460ff16612265576040517f08c379a000000000000000000000000000000000000000000000000000000000815260040161225c90614e7c565b60405180910390fd5b6000808460405161227691906142cd565b9081526020016040518091039020600401805480602002602001604051908101604052809291908181526020016000905b828210156123535783829060005260206000200180546122c690614260565b80601f01602080910402602001604051908101604052809291908181526020018280546122f290614260565b801561233f5780601f106123145761010080835404028352916020019161233f565b820191906000526020600020905b81548152906001019060200180831161232257829003601f168201915b5050505050815260200190600101906122a7565b50505050905060005b815181101561242f578360405160200161237691906142cd565b6040516020818303038152906040528051906020012082828151811061239f5761239e6144ba565b5b60200260200101516040516020016123b791906142cd565b60405160208183030381529060405280519060200120031561242f57600182516123e1919061454c565b8103612422576040517f08c379a0000000000000000000000000000000000000000000000000000000008152600401612419906146e5565b60405180910390fd5b808060010191505061235c565b5060008211612473576040517f08c379a000000000000000000000000000000000000000000000000000000000815260040161246a90614ee8565b60405180910390fd5b60008460405161248391906142cd565b908152602001604051809103902060030160019054906101000a900460ff1615612556576000846040516124b791906142cd565b908152602001604051809103902060060160003373ffffffffffffffffffffffffffffffffffffffff1673ffffffffffffffffffffffffffffffffffffffff16815260200190815260200160002060000160019054906101000a900460ff16612555576040517f08c379a000000000000000000000000000000000000000000000000000000000815260040161254c90614f54565b60405180910390fd5b5b6000805b82518110156126155760008660405161257391906142cd565b9081526020016040518091039020600501838281518110612597576125966144ba565b5b60200260200101516040516125ac91906142cd565b908152602001604051809103902060010160003373ffffffffffffffffffffffffffffffffffffffff1673ffffffffffffffffffffffffffffffffffffffff16815260200190815260200160002054826126069190614518565b9150808060010191505061255a565b5082816126229190614518565b905060008560405161263491906142cd565b908152602001604051809103902060080154811115612688576040517f08c379a000000000000000000000000000000000000000000000000000000000815260040161267f90614fe6565b60405180910390fd5b6000808660405161269991906142cd565b9081526020016040518091039020600701541115612983576000836000876040516126c491906142cd565b9081526020016040518091039020600701546126e09190614580565b905080600260009054906101000a900473ffffffffffffffffffffffffffffffffffffffff1673ffffffffffffffffffffffffffffffffffffffff166370a08231336040518263ffffffff1660e01b815260040161273e9190614167565b602060405180830381865afa15801561275b573d6000803e3d6000fd5b505050506040513d601f19601f8201168201806040525081019061277f919061501b565b10156127c0576040517f08c379a00000000000000000000000000000000000000000000000000000000081526004016127b7906150ba565b60405180910390fd5b80600260009054906101000a900473ffffffffffffffffffffffffffffffffffffffff1673ffffffffffffffffffffffffffffffffffffffff1663dd62ed3e33306040518363ffffffff1660e01b815260040161281e9291906150da565b602060405180830381865afa15801561283b573d6000803e3d6000fd5b505050506040513d601f19601f8201168201806040525081019061285f919061501b565b10156128a0576040517f08c379a000000000000000000000000000000000000000000000000000000000815260040161289790615175565b60405180910390fd5b600260009054906101000a900473ffffffffffffffffffffffffffffffffffffffff1673ffffffffffffffffffffffffffffffffffffffff166323b872dd3330846040518463ffffffff1660e01b81526004016128ff93929190615195565b6020604051808303816000875af115801561291e573d6000803e3d6000fd5b505050506040513d601f19601f820116820180604052508101906129429190614600565b612981576040517f08c379a000000000000000000000000000000000000000000000000000000000815260040161297890614679565b60405180910390fd5b505b8260008660405161299491906142cd565b9081526020016040518091039020600501856040516129b391906142cd565b908152602001604051809103902060010160003373ffffffffffffffffffffffffffffffffffffffff1673ffffffffffffffffffffffffffffffffffffffff16815260200190815260200160002054612a0c9190614518565b600086604051612a1c91906142cd565b908152602001604051809103902060050185604051612a3b91906142cd565b908152602001604051809103902060010160003373ffffffffffffffffffffffffffffffffffffffff1673ffffffffffffffffffffffffffffffffffffffff1681526020019081526020016000208190555082600086604051612a9e91906142cd565b908152602001604051809103902060050185604051612abd91906142cd565b908152602001604051809103902060000154612ad99190614518565b600086604051612ae991906142cd565b908152602001604051809103902060050185604051612b0891906142cd565b90815260200160405180910390206000018190555084604051612b2b91906142cd565b60405180910390207f709cc456c2be834035f2c7655ccd34b1cdd97b374537807e49ce05afb2bbdcf28533604051612b649291906151cc565b60405180910390a25050505050565b600082600073ffffffffffffffffffffffffffffffffffffffff16600082604051612b9e91906142cd565b908152602001604051809103902060000160009054906101000a900473ffffffffffffffffffffffffffffffffffffffff1673ffffffffffffffffffffffffffffffffffffffff1603612c26576040517f08c379a0000000000000000000000000000000000000000000000000000000008152600401612c1d90614330565b60405180910390fd5b60008085604051612c3791906142cd565b9081526020016040518091039020600401805480602002602001604051908101604052809291908181526020016000905b82821015612d14578382906000526020600020018054612c8790614260565b80601f0160208091040260200160405190810160405280929190818152602001828054612cb390614260565b8015612d005780601f10612cd557610100808354040283529160200191612d00565b820191906000526020600020905b815481529060010190602001808311612ce357829003601f168201915b505050505081526020019060010190612c68565b5050505090506000805b8251811015612dd957600087604051612d3791906142cd565b9081526020016040518091039020600501838281518110612d5b57612d5a6144ba565b5b6020026020010151604051612d7091906142cd565b908152602001604051809103902060010160008773ffffffffffffffffffffffffffffffffffffffff1673ffffffffffffffffffffffffffffffffffffffff1681526020019081526020016000205482612dca9190614518565b91508080600101915050612d1e565b5080935050505092915050565b600081600073ffffffffffffffffffffffffffffffffffffffff16600082604051612e1191906142cd565b908152602001604051809103902060000160009054906101000a900473ffffffffffffffffffffffffffffffffffffffff1673ffffffffffffffffffffffffffffffffffffffff1603612e99576040517f08c379a0000000000000000000000000000000000000000000000000000000008152600401612e9090614330565b60405180910390fd5b600083604051612ea991906142cd565b908152602001604051809103902060030160009054906101000a900460ff1615612f08576040517f08c379a0000000000000000000000000000000000000000000000000000000008152600401612eff90615248565b60405180910390fd5b600083604051612f1891906142cd565b908152602001604051809103902060060160003373ffffffffffffffffffffffffffffffffffffffff1673ffffffffffffffffffffffffffffffffffffffff16815260200190815260200160002060000160009054906101000a900460ff1680612fa2575060008084604051612f8e91906142cd565b908152602001604051809103902060070154145b15612fb0576000915061326b565b60008084604051612fc191906142cd565b9081526020016040518091039020600401805480602002602001604051908101604052809291908181526020016000905b8282101561309e57838290600052602060002001805461301190614260565b80601f016020809104026020016040519081016040528092919081815260200182805461303d90614260565b801561308a5780601f1061305f5761010080835404028352916020019161308a565b820191906000526020600020905b81548152906001019060200180831161306d57829003601f168201915b505050505081526020019060010190612ff2565b5050505090506000805b8251811015613163576000866040516130c191906142cd565b90815260200160405180910390206005018382815181106130e5576130e46144ba565b5b60200260200101516040516130fa91906142cd565b908152602001604051809103902060010160003373ffffffffffffffffffffffffffffffffffffffff1673ffffffffffffffffffffffffffffffffffffffff16815260200190815260200160002054826131549190614518565b915080806001019150506130a8565b50600061316f866116c5565b905060008660405161318191906142cd565b908152602001604051809103902060030160029054906101000a900460ff166132645760005b8151811015613262576000876040516131c091906142cd565b90815260200160405180910390206005018282815181106131e4576131e36144ba565b5b60200260200101516040516131f991906142cd565b908152602001604051809103902060010160003373ffffffffffffffffffffffffffffffffffffffff1673ffffffffffffffffffffffffffffffffffffffff1681526020019081526020016000205483613253919061454c565b925080806001019150506131a7565b505b8194505050505b50919050565b6000808260405161328291906142cd565b908152602001604051809103902060000160009054906101000a900473ffffffffffffffffffffffffffffffffffffffff169050919050565b606081600073ffffffffffffffffffffffffffffffffffffffff166000826040516132e691906142cd565b908152602001604051809103902060000160009054906101000a900473ffffffffffffffffffffffffffffffffffffffff1673ffffffffffffffffffffffffffffffffffffffff160361336e576040517f08c379a000000000000000000000000000000000000000000000000000000000815260040161336590614330565b60405180910390fd5b60008360405161337e91906142cd565b9081526020016040518091039020600401805480602002602001604051908101604052809291908181526020016000905b8282101561345b5783829060005260206000200180546133ce90614260565b80601f01602080910402602001604051908101604052809291908181526020018280546133fa90614260565b80156134475780601f1061341c57610100808354040283529160200191613447565b820191906000526020600020905b81548152906001019060200180831161342a57829003601f168201915b5050505050815260200190600101906133af565b50505050915050919050565b6000818051602081018201805184825260208301602085012081835280955050505050506000915090508060000160009054906101000a900473ffffffffffffffffffffffffffffffffffffffff16908060010160009054906101000a900473ffffffffffffffffffffffffffffffffffffffff16908060020180546134ec90614260565b80601f016020809104026020016040519081016040528092919081815260200182805461351890614260565b80156135655780601f1061353a57610100808354040283529160200191613565565b820191906000526020600020905b81548152906001019060200180831161354857829003601f168201915b5050505050908060030160009054906101000a900460ff16908060030160019054906101000a900460ff16908060030160029054906101000a900460ff16908060070154908060080154905088565b600082600073ffffffffffffffffffffffffffffffffffffffff166000826040516135df91906142cd565b908152602001604051809103902060000160009054906101000a900473ffffffffffffffffffffffffffffffffffffffff1673ffffffffffffffffffffffffffffffffffffffff1603613667576040517f08c379a000000000000000000000000000000000000000000000000000000000815260040161365e90614330565b60405180910390fd5b60008460405161367791906142cd565b908152602001604051809103902060030160019054906101000a900460ff166136a35760019150613715565b6000846040516136b391906142cd565b908152602001604051809103902060060160008473ffffffffffffffffffffffffffffffffffffffff1673ffffffffffffffffffffffffffffffffffffffff16815260200190815260200160002060000160019054906101000a900460ff1691505b5092915050565b828054828255906000526020600020908101928215613764579160200282015b828111156137635782518290816137539190614ba0565b509160200191906001019061373c565b5b5090506137719190613775565b5090565b5b80821115613795576000818161378c9190613799565b50600101613776565b5090565b5080546137a590614260565b6000825580601f106137b757506137d6565b601f0160209004906000526020600020908101906137d591906137d9565b5b50565b5b808211156137f25760008160009055506001016137da565b5090565b6000604051905090565b600080fd5b600080fd5b6000819050919050565b61381d8161380a565b811461382857600080fd5b50565b60008135905061383a81613814565b92915050565b60006020828403121561385657613855613800565b5b60006138648482850161382b565b91505092915050565b600081519050919050565b600082825260208201905092915050565b60005b838110156138a757808201518184015260208101905061388c565b60008484015250505050565b6000601f19601f8301169050919050565b60006138cf8261386d565b6138d98185613878565b93506138e9818560208601613889565b6138f2816138b3565b840191505092915050565b6000602082019050818103600083015261391781846138c4565b905092915050565b600080fd5b600080fd5b7f4e487b7100000000000000000000000000000000000000000000000000000000600052604160045260246000fd5b613961826138b3565b810181811067ffffffffffffffff821117156139805761397f613929565b5b80604052505050565b60006139936137f6565b905061399f8282613958565b919050565b600067ffffffffffffffff8211156139bf576139be613929565b5b6139c8826138b3565b9050602081019050919050565b82818337600083830152505050565b60006139f76139f2846139a4565b613989565b905082815260208101848484011115613a1357613a12613924565b5b613a1e8482856139d5565b509392505050565b600082601f830112613a3b57613a3a61391f565b5b8135613a4b8482602086016139e4565b91505092915050565b600060208284031215613a6a57613a69613800565b5b600082013567ffffffffffffffff811115613a8857613a87613805565b5b613a9484828501613a26565b91505092915050565b60008060408385031215613ab457613ab3613800565b5b600083013567ffffffffffffffff811115613ad257613ad1613805565b5b613ade85828601613a26565b925050602083013567ffffffffffffffff811115613aff57613afe613805565b5b613b0b85828601613a26565b9150509250929050565b613b1e8161380a565b82525050565b6000602082019050613b396000830184613b15565b92915050565b600073ffffffffffffffffffffffffffffffffffffffff82169050919050565b6000613b6a82613b3f565b9050919050565b613b7a81613b5f565b8114613b8557600080fd5b50565b600081359050613b9781613b71565b92915050565b600080600060608486031215613bb657613bb5613800565b5b600084013567ffffffffffffffff811115613bd457613bd3613805565b5b613be086828701613a26565b935050602084013567ffffffffffffffff811115613c0157613c00613805565b5b613c0d86828701613a26565b9250506040613c1e86828701613b88565b9150509250925092565b600067ffffffffffffffff821115613c4357613c42613929565b5b602082029050602081019050919050565b600080fd5b6000613c6c613c6784613c28565b613989565b90508083825260208201905060208402830185811115613c8f57613c8e613c54565b5b835b81811015613cd657803567ffffffffffffffff811115613cb457613cb361391f565b5b808601613cc18982613a26565b85526020850194505050602081019050613c91565b5050509392505050565b600082601f830112613cf557613cf461391f565b5b8135613d05848260208601613c59565b91505092915050565b60008115159050919050565b613d2381613d0e565b8114613d2e57600080fd5b50565b600081359050613d4081613d1a565b92915050565b600067ffffffffffffffff821115613d6157613d60613929565b5b602082029050602081019050919050565b6000613d85613d8084613d46565b613989565b90508083825260208201905060208402830185811115613da857613da7613c54565b5b835b81811015613dd15780613dbd8882613b88565b845260208401935050602081019050613daa565b5050509392505050565b600082601f830112613df057613def61391f565b5b8135613e00848260208601613d72565b91505092915050565b60008060008060008060008060006101208a8c031215613e2c57613e2b613800565b5b60008a013567ffffffffffffffff811115613e4a57613e49613805565b5b613e568c828d01613a26565b99505060208a013567ffffffffffffffff811115613e7757613e76613805565b5b613e838c828d01613a26565b98505060408a013567ffffffffffffffff811115613ea457613ea3613805565b5b613eb08c828d01613ce0565b9750506060613ec18c828d0161382b565b9650506080613ed28c828d0161382b565b95505060a0613ee38c828d01613d31565b94505060c0613ef48c828d01613d31565b93505060e08a013567ffffffffffffffff811115613f1557613f14613805565b5b613f218c828d01613ddb565b925050610100613f338c828d01613b88565b9150509295985092959850929598565b600081519050919050565b600082825260208201905092915050565b6000819050602082019050919050565b600082825260208201905092915050565b6000613f8b8261386d565b613f958185613f6f565b9350613fa5818560208601613889565b613fae816138b3565b840191505092915050565b6000613fc58383613f80565b905092915050565b6000602082019050919050565b6000613fe582613f43565b613fef8185613f4e565b93508360208202850161400185613f5f565b8060005b8581101561403d578484038952815161401e8582613fb9565b945061402983613fcd565b925060208a01995050600181019050614005565b50829750879550505050505092915050565b600060208201905081810360008301526140698184613fda565b905092915050565b60008060006060848603121561408a57614089613800565b5b600084013567ffffffffffffffff8111156140a8576140a7613805565b5b6140b486828701613a26565b935050602084013567ffffffffffffffff8111156140d5576140d4613805565b5b6140e186828701613a26565b92505060406140f28682870161382b565b9150509250925092565b6000806040838503121561411357614112613800565b5b600083013567ffffffffffffffff81111561413157614130613805565b5b61413d85828601613a26565b925050602061414e85828601613b88565b9150509250929050565b61416181613b5f565b82525050565b600060208201905061417c6000830184614158565b92915050565b61418b81613d0e565b82525050565b6000610100820190506141a7600083018b614158565b6141b4602083018a614158565b81810360408301526141c681896138c4565b90506141d56060830188614182565b6141e26080830187614182565b6141ef60a0830186614182565b6141fc60c0830185613b15565b61420960e0830184613b15565b9998505050505050505050565b600060208201905061422b6000830184614182565b92915050565b7f4e487b7100000000000000000000000000000000000000000000000000000000600052602260045260246000fd5b6000600282049050600182168061427857607f821691505b60208210810361428b5761428a614231565b5b50919050565b600081905092915050565b60006142a78261386d565b6142b18185614291565b93506142c1818560208601613889565b80840191505092915050565b60006142d9828461429c565b915081905092915050565b7f506f6c6c20646f6573206e6f742065786973742e000000000000000000000000600082015250565b600061431a601483613878565b9150614325826142e4565b602082019050919050565b600060208201905081810360008301526143498161430d565b9050919050565b7f596f752063616e6e6f7420636861726765206261636b20696620706f6c6c206960008201527f73206f70656e2e00000000000000000000000000000000000000000000000000602082015250565b60006143ac602783613878565b91506143b782614350565b604082019050919050565b600060208201905081810360008301526143db8161439f565b9050919050565b7f4e6f7420612070617920746f20766f746520706f6c6c2e000000000000000000600082015250565b6000614418601783613878565b9150614423826143e2565b602082019050919050565b600060208201905081810360008301526144478161440b565b9050919050565b7f596f7520616c72656164792063686172676564206261636b2e00000000000000600082015250565b6000614484601983613878565b915061448f8261444e565b602082019050919050565b600060208201905081810360008301526144b381614477565b9050919050565b7f4e487b7100000000000000000000000000000000000000000000000000000000600052603260045260246000fd5b7f4e487b7100000000000000000000000000000000000000000000000000000000600052601160045260246000fd5b60006145238261380a565b915061452e8361380a565b9250828201905080821115614546576145456144e9565b5b92915050565b60006145578261380a565b91506145628361380a565b925082820390508181111561457a576145796144e9565b5b92915050565b600061458b8261380a565b91506145968361380a565b92508282026145a48161380a565b915082820484148315176145bb576145ba6144e9565b5b5092915050565b60006040820190506145d76000830185614158565b6145e46020830184613b15565b9392505050565b6000815190506145fa81613d1a565b92915050565b60006020828403121561461657614615613800565b5b6000614624848285016145eb565b91505092915050565b7f5472616e73616374696f6e206661696c65642e00000000000000000000000000600082015250565b6000614663601383613878565b915061466e8261462d565b602082019050919050565b6000602082019050818103600083015261469281614656565b9050919050565b7f4e6f7420616e206f7074696f6e00000000000000000000000000000000000000600082015250565b60006146cf600d83613878565b91506146da82614699565b602082019050919050565b600060208201905081810360008301526146fe816146c2565b9050919050565b7f416e6f7468657220706f6c6c20616c7265616479206861732074686174206e6160008201527f6d652e0000000000000000000000000000000000000000000000000000000000602082015250565b6000614761602383613878565b915061476c82614705565b604082019050919050565b6000602082019050818103600083015261479081614754565b9050919050565b7f596f75206d75737420616c6c6f7720666f72206f6e65206f72206d6f7265207660008201527f6f7465732e000000000000000000000000000000000000000000000000000000602082015250565b60006147f3602583613878565b91506147fe82614797565b604082019050919050565b60006020820190508181036000830152614822816147e6565b9050919050565b7f4e616d65207265736572766174696f6e206661696c65642e0000000000000000600082015250565b600061485f601883613878565b915061486a82614829565b602082019050919050565b6000602082019050818103600083015261488e81614852565b9050919050565b7f43616e2774206265207072697661746520616e6420616c6c6f77206e6f206f6e60008201527f6500000000000000000000000000000000000000000000000000000000000000602082015250565b60006148f1602183613878565b91506148fc82614895565b604082019050919050565b60006020820190508181036000830152614920816148e4565b9050919050565b7f43616e2774206265207075626c696320616e6420726573747269637420766f7460008201527f6572732e00000000000000000000000000000000000000000000000000000000602082015250565b6000614983602483613878565b915061498e82614927565b604082019050919050565b600060208201905081810360008301526149b281614976565b9050919050565b50565b60006149c9600083614291565b91506149d4826149b9565b600082019050919050565b60006149ea826149bc565b9150819050919050565b60008190508160005260206000209050919050565b60006020601f8301049050919050565b600082821b905092915050565b600060088302614a567fffffffffffffffffffffffffffffffffffffffffffffffffffffffffffffffff82614a19565b614a608683614a19565b95508019841693508086168417925050509392505050565b6000819050919050565b6000614a9d614a98614a938461380a565b614a78565b61380a565b9050919050565b6000819050919050565b614ab783614a82565b614acb614ac382614aa4565b848454614a26565b825550505050565b600090565b614ae0614ad3565b614aeb818484614aae565b505050565b5b81811015614b0f57614b04600082614ad8565b600181019050614af1565b5050565b601f821115614b5457614b25816149f4565b614b2e84614a09565b81016020851015614b3d578190505b614b51614b4985614a09565b830182614af0565b50505b505050565b600082821c905092915050565b6000614b7760001984600802614b59565b1980831691505092915050565b6000614b908383614b66565b9150826002028217905092915050565b614ba98261386d565b67ffffffffffffffff811115614bc257614bc1613929565b5b614bcc8254614260565b614bd7828285614b13565b600060209050601f831160018114614c0a5760008415614bf8578287015190505b614c028582614b84565b865550614c6a565b601f198416614c18866149f4565b60005b82811015614c4057848901518255600182019150602085019450602081019050614c1b565b86831015614c5d5784890151614c59601f891682614b66565b8355505b6001600288020188555050505b505050505050565b60008154614c7f81614260565b614c898186614291565b94506001821660008114614ca45760018114614cb957614cec565b60ff1983168652811515820286019350614cec565b614cc2856149f4565b60005b83811015614ce457815481890152600182019150602081019050614cc5565b838801955050505b50505092915050565b6000614d018284614c72565b915081905092915050565b7f506f6c6c20616c726561647920636c6f7365642e000000000000000000000000600082015250565b6000614d42601483613878565b9150614d4d82614d0c565b602082019050919050565b60006020820190508181036000830152614d7181614d35565b9050919050565b7f596f7520617265206e6f7420746865206f776e6572206f66207468697320706f60008201527f6c6c2e0000000000000000000000000000000000000000000000000000000000602082015250565b6000614dd4602383613878565b9150614ddf82614d78565b604082019050919050565b60006020820190508181036000830152614e0381614dc7565b9050919050565b7f506f6c6c20646f6573206e6f74206578697374206f7220706f6c6c206973206e60008201527f6f74206f70656e2e000000000000000000000000000000000000000000000000602082015250565b6000614e66602883613878565b9150614e7182614e0a565b604082019050919050565b60006020820190508181036000830152614e9581614e59565b9050919050565b7f43616e6e6f742068617665203020766f7465732e000000000000000000000000600082015250565b6000614ed2601483613878565b9150614edd82614e9c565b602082019050919050565b60006020820190508181036000830152614f0181614ec5565b9050919050565b7f596f7520617265206e6f7420616c6c6f77656420746f20766f74652e00000000600082015250565b6000614f3e601c83613878565b9150614f4982614f08565b602082019050919050565b60006020820190508181036000830152614f6d81614f31565b9050919050565b7f596f7520686176652073706563696669656420746f6f206d75636820766f746560008201527f73207468616e20796f752061726520616c6c6f7765642e000000000000000000602082015250565b6000614fd0603783613878565b9150614fdb82614f74565b604082019050919050565b60006020820190508181036000830152614fff81614fc3565b9050919050565b60008151905061501581613814565b92915050565b60006020828403121561503157615030613800565b5b600061503f84828501615006565b91505092915050565b7f596f7520646f206e6f74206861766520656e6f75676820564f545420636f696e60008201527f732e000000000000000000000000000000000000000000000000000000000000602082015250565b60006150a4602283613878565b91506150af82615048565b604082019050919050565b600060208201905081810360008301526150d381615097565b9050919050565b60006040820190506150ef6000830185614158565b6150fc6020830184614158565b9392505050565b7f596f7520646964206e6f7420617070726f76652074686520636f6e747261637460008201527f277320616c6c6f77616e63652e00000000000000000000000000000000000000602082015250565b600061515f602d83613878565b915061516a82615103565b604082019050919050565b6000602082019050818103600083015261518e81615152565b9050919050565b60006060820190506151aa6000830186614158565b6151b76020830185614158565b6151c46040830184613b15565b949350505050565b600060408201905081810360008301526151e681856138c4565b90506151f56020830184614158565b9392505050565b7f506f6c6c206973206e6f7420636c6f7365642e00000000000000000000000000600082015250565b6000615232601383613878565b915061523d826151fc565b602082019050919050565b6000602082019050818103600083015261526181615225565b905091905056fea26469706673582212202fe82fb1309966eded4b45be9c5f1222c916b8ea78dc5a9dd29cb6dad0c3d0fc64736f6c634300081a0033",
  "linkReferences": {},
  "deployedLinkReferences": {}
}