{
  "_format": "hh-sol-artifact-1",
  "contractName": "VoteDappStorage",
  "sourceName": "contracts/VoteDappStorageV2.sol",
  "abi": [
    {
      "inputs": [],
      "stateMutability": "nonpayable",
      "type": "constructor"
    },
    {
      "inputs": [
        {
          "internalType": "string",
          "name": "pollName",
          "type": "string"
        }
      ],
      "name": "addName",
      "outputs": [
        {
          "internalType": "bool",
          "name": "",
          "type": "bool"
        }
      ],
      "stateMutability": "nonpayable",
      "type": "function"
    },
    {
      "inputs": [
        {
          "internalType": "address[]",
          "name": "pollAddr",
          "type": "address[]"
        }
      ],
      "name": "addPollType",
      "outputs": [],
      "stateMutability": "nonpayable",
      "type": "function"
    },
    {
      "inputs": [
        {
          "internalType": "string",
          "name": "",
          "type": "string"
        }
      ],
      "name": "pollNameExists",
      "outputs": [
        {
          "internalType": "bool",
          "name": "",
          "type": "bool"
        }
      ],
      "stateMutability": "view",
      "type": "function"
    },
    {
      "inputs": [
        {
          "internalType": "address",
          "name": "",
          "type": "address"
        }
      ],
      "name": "pollTypeExists",
      "outputs": [
        {
          "internalType": "bool",
          "name": "",
          "type": "bool"
        }
      ],
      "stateMutability": "view",
      "type": "function"
    },
    {
      "inputs": [
        {
          "internalType": "address[]",
          "name": "pollAddr",
          "type": "address[]"
        }
      ],
      "name": "removePollType",
      "outputs": [],
      "stateMutability": "nonpayable",
      "type": "function"
    }
  ],
  "bytecode": "0x6080604052348015600f57600080fd5b50336000806101000a81548173ffffffffffffffffffffffffffffffffffffffff021916908373ffffffffffffffffffffffffffffffffffffffff160217905550610aa48061005f6000396000f3fe608060405234801561001057600080fd5b50600436106100575760003560e01c806311456b471461005c57806373bd09d71461008c5780638458d096146100a857806396c81427146100c4578063b6db659b146100f4575b600080fd5b61007660048036038101906100719190610647565b610124565b60405161008391906106ab565b60405180910390f35b6100a660048036038101906100a191906107ec565b61025e565b005b6100c260048036038101906100bd91906107ec565b61037b565b005b6100de60048036038101906100d99190610647565b610497565b6040516100eb91906106ab565b60405180910390f35b61010e60048036038101906101099190610835565b6104cd565b60405161011b91906106ab565b60405180910390f35b6000600160003373ffffffffffffffffffffffffffffffffffffffff1673ffffffffffffffffffffffffffffffffffffffff16815260200190815260200160002060009054906101000a900460ff166101b2576040517f08c379a00000000000000000000000000000000000000000000000000000000081526004016101a9906108bf565b60405180910390fd5b6002826040516101c29190610950565b908152602001604051809103902060009054906101000a900460ff161561021e576040517f08c379a0000000000000000000000000000000000000000000000000000000008152600401610215906109b3565b60405180910390fd5b60016002836040516102309190610950565b908152602001604051809103902060006101000a81548160ff02191690831515021790555060019050919050565b60008054906101000a900473ffffffffffffffffffffffffffffffffffffffff1673ffffffffffffffffffffffffffffffffffffffff163373ffffffffffffffffffffffffffffffffffffffff16146102ec576040517f08c379a00000000000000000000000000000000000000000000000000000000081526004016102e390610a1f565b60405180910390fd5b60005b81518110156103775760006001600084848151811061031157610310610a3f565b5b602002602001015173ffffffffffffffffffffffffffffffffffffffff1673ffffffffffffffffffffffffffffffffffffffff16815260200190815260200160002060006101000a81548160ff02191690831515021790555080806001019150506102ef565b5050565b60008054906101000a900473ffffffffffffffffffffffffffffffffffffffff1673ffffffffffffffffffffffffffffffffffffffff163373ffffffffffffffffffffffffffffffffffffffff1614610409576040517f08c379a000000000000000000000000000000000000000000000000000000000815260040161040090610a1f565b60405180910390fd5b60005b815181101561049357600180600084848151811061042d5761042c610a3f565b5b602002602001015173ffffffffffffffffffffffffffffffffffffffff1673ffffffffffffffffffffffffffffffffffffffff16815260200190815260200160002060006101000a81548160ff021916908315150217905550808060010191505061040c565b5050565b6002818051602081018201805184825260208301602085012081835280955050505050506000915054906101000a900460ff1681565b60016020528060005260406000206000915054906101000a900460ff1681565b6000604051905090565b600080fd5b600080fd5b600080fd5b600080fd5b6000601f19601f8301169050919050565b7f4e487b7100000000000000000000000000000000000000000000000000000000600052604160045260246000fd5b6105548261050b565b810181811067ffffffffffffffff821117156105735761057261051c565b5b80604052505050565b60006105866104ed565b9050610592828261054b565b919050565b600067ffffffffffffffff8211156105b2576105b161051c565b5b6105bb8261050b565b9050602081019050919050565b82818337600083830152505050565b60006105ea6105e584610597565b61057c565b90508281526020810184848401111561060657610605610506565b5b6106118482856105c8565b509392505050565b600082601f83011261062e5761062d610501565b5b813561063e8482602086016105d7565b91505092915050565b60006020828403121561065d5761065c6104f7565b5b600082013567ffffffffffffffff81111561067b5761067a6104fc565b5b61068784828501610619565b91505092915050565b60008115159050919050565b6106a581610690565b82525050565b60006020820190506106c0600083018461069c565b92915050565b600067ffffffffffffffff8211156106e1576106e061051c565b5b602082029050602081019050919050565b600080fd5b600073ffffffffffffffffffffffffffffffffffffffff82169050919050565b6000610722826106f7565b9050919050565b61073281610717565b811461073d57600080fd5b50565b60008135905061074f81610729565b92915050565b6000610768610763846106c6565b61057c565b9050808382526020820190506020840283018581111561078b5761078a6106f2565b5b835b818110156107b457806107a08882610740565b84526020840193505060208101905061078d565b5050509392505050565b600082601f8301126107d3576107d2610501565b5b81356107e3848260208601610755565b91505092915050565b600060208284031215610802576108016104f7565b5b600082013567ffffffffffffffff8111156108205761081f6104fc565b5b61082c848285016107be565b91505092915050565b60006020828403121561084b5761084a6104f7565b5b600061085984828501610740565b91505092915050565b600082825260208201905092915050565b7f4e6f742076616c696420706f6c6c20747970652e000000000000000000000000600082015250565b60006108a9601483610862565b91506108b482610873565b602082019050919050565b600060208201905081810360008301526108d88161089c565b9050919050565b600081519050919050565b600081905092915050565b60005b838110156109135780820151818401526020810190506108f8565b60008484015250505050565b600061092a826108df565b61093481856108ea565b93506109448185602086016108f5565b80840191505092915050565b600061095c828461091f565b915081905092915050565b7f4e616d6520616c72656164792074616b656e2e00000000000000000000000000600082015250565b600061099d601383610862565b91506109a882610967565b602082019050919050565b600060208201905081810360008301526109cc81610990565b9050919050565b7f596f7520617265206e6f7420616c6c6f77656420746f20646f20746869732e00600082015250565b6000610a09601f83610862565b9150610a14826109d3565b602082019050919050565b60006020820190508181036000830152610a38816109fc565b9050919050565b7f4e487b7100000000000000000000000000000000000000000000000000000000600052603260045260246000fdfea2646970667358221220a519602942f271fd786a2c5937894020794bf07cec458c904cc398c382a8f29764736f6c634300081a0033",
  "linkReferences": {},
  "deployedLinkReferences": {}
}