{
  "_format": "hh-sol-artifact-1",
  "contractName": "VoteDappToken",
  "sourceName": "contracts/VoteDappTokenSaleV2.sol",
  "abi": [
    {
      "inputs": [
        {
          "internalType": "uint256",
          "name": "_tokenPrice",
          "type": "uint256"
        }
      ],
      "stateMutability": "nonpayable",
      "type": "constructor"
    },
    {
      "anonymous": false,
      "inputs": [
        {
          "indexed": true,
          "internalType": "address",
          "name": "_owner",
          "type": "address"
        },
        {
          "indexed": true,
          "internalType": "address",
          "name": "_spender",
          "type": "address"
        },
        {
          "indexed": false,
          "internalType": "uint256",
          "name": "_value",
          "type": "uint256"
        }
      ],
      "name": "Approval",
      "type": "event"
    },
    {
      "anonymous": false,
      "inputs": [
        {
          "indexed": false,
          "internalType": "address",
          "name": "_buyer",
          "type": "address"
        },
        {
          "indexed": false,
          "internalType": "uint256",
          "name": "_amount",
          "type": "uint256"
        }
      ],
      "name": "Return",
      "type": "event"
    },
    {
      "anonymous": false,
      "inputs": [
        {
          "indexed": false,
          "internalType": "address",
          "name": "_buyer",
          "type": "address"
        },
        {
          "indexed": false,
          "internalType": "uint256",
          "name": "_amount",
          "type": "uint256"
        }
      ],
      "name": "Sell",
      "type": "event"
    },
    {
      "anonymous": false,
      "inputs": [
        {
          "indexed": true,
          "internalType": "address",
          "name": "_from",
          "type": "address"
        },
        {
          "indexed": true,
          "internalType": "address",
          "name": "_to",
          "type": "address"
        },
        {
          "indexed": false,
          "internalType": "uint256",
          "name": "_value",
          "type": "uint256"
        }
      ],
      "name": "Transfer",
      "type": "event"
    },
    {
      "inputs": [
        {
          "internalType": "address",
          "name": "",
          "type": "address"
        },
        {
          "internalType": "address",
          "name": "",
          "type": "address"
        }
      ],
      "name": "allowance",
      "outputs": [
        {
          "internalType": "uint256",
          "name": "",
          "type": "uint256"
        }
      ],
      "stateMutability": "view",
      "type": "function"
    },
    {
      "inputs": [
        {
          "internalType": "address",
          "name": "_spender",
          "type": "address"
        },
        {
          "internalType": "uint256",
          "name": "_value",
          "type": "uint256"
        }
      ],
      "name": "approve",
      "outputs": [
        {
          "internalType": "bool",
          "name": "",
          "type": "bool"
        }
      ],
      "stateMutability": "nonpayable",
      "type": "function"
    },
    {
      "inputs": [
        {
          "internalType": "address",
          "name": "",
          "type": "address"
        }
      ],
      "name": "balanceOf",
      "outputs": [
        {
          "internalType": "uint256",
          "name": "",
          "type": "uint256"
        }
      ],
      "stateMutability": "view",
      "type": "function"
    },
    {
      "inputs": [
        {
          "internalType": "uint256",
          "name": "amount",
          "type": "uint256"
        }
      ],
      "name": "buyTokens",
      "outputs": [],
      "stateMutability": "payable",
      "type": "function"
    },
    {
      "inputs": [],
      "name": "name",
      "outputs": [
        {
          "internalType": "string",
          "name": "",
          "type": "string"
        }
      ],
      "stateMutability": "view",
      "type": "function"
    },
    {
      "inputs": [
        {
          "internalType": "uint256",
          "name": "amount",
          "type": "uint256"
        }
      ],
      "name": "returnTokens",
      "outputs": [
        {
          "internalType": "bool",
          "name": "",
          "type": "bool"
        }
      ],
      "stateMutability": "nonpayable",
      "type": "function"
    },
    {
      "inputs": [],
      "name": "standard",
      "outputs": [
        {
          "internalType": "string",
          "name": "",
          "type": "string"
        }
      ],
      "stateMutability": "view",
      "type": "function"
    },
    {
      "inputs": [],
      "name": "symbol",
      "outputs": [
        {
          "internalType": "string",
          "name": "",
          "type": "string"
        }
      ],
      "stateMutability": "view",
      "type": "function"
    },
    {
      "inputs": [],
      "name": "tokenPrice",
      "outputs": [
        {
          "internalType": "uint256",
          "name": "",
          "type": "uint256"
        }
      ],
      "stateMutability": "view",
      "type": "function"
    },
    {
      "inputs": [],
      "name": "tokensInCirculation",
      "outputs": [
        {
          "internalType": "uint256",
          "name": "",
          "type": "uint256"
        }
      ],
      "stateMutability": "view",
      "type": "function"
    },
    {
      "inputs": [],
      "name": "tokensSold",
      "outputs": [
        {
          "internalType": "uint256",
          "name": "",
          "type": "uint256"
        }
      ],
      "stateMutability": "view",
      "type": "function"
    },
    {
      "inputs": [
        {
          "internalType": "address",
          "name": "_to",
          "type": "address"
        },
        {
          "internalType": "uint256",
          "name": "_value",
          "type": "uint256"
        }
      ],
      "name": "transfer",
      "outputs": [
        {
          "internalType": "bool",
          "name": "",
          "type": "bool"
        }
      ],
      "stateMutability": "nonpayable",
      "type": "function"
    },
    {
      "inputs": [
        {
          "internalType": "address",
          "name": "_from",
          "type": "address"
        },
        {
          "internalType": "address",
          "name": "_to",
          "type": "address"
        },
        {
          "internalType": "uint256",
          "name": "_value",
          "type": "uint256"
        }
      ],
      "name": "transferFrom",
      "outputs": [
        {
          "internalType": "bool",
          "name": "",
          "type": "bool"
        }
      ],
      "stateMutability": "nonpayable",
      "type": "function"
    }
  ],
  "bytecode": "0x60806040526040518060400160405280600e81526020017f566f74654461707020546f6b656e00000000000000000000000000000000000081525060009081610048919061039f565b506040518060400160405280600381526020017f56444100000000000000000000000000000000000000000000000000000000008152506001908161008d919061039f565b506040518060400160405280601b81526020017f4e4f5420414e204552433230205354414e4441524420544f4b454e0000000000815250600290816100d2919061039f565b503480156100df57600080fd5b50604051611969380380611969833981810160405281019061010191906104a2565b33600360006101000a81548173ffffffffffffffffffffffffffffffffffffffff021916908373ffffffffffffffffffffffffffffffffffffffff16021790555080600481905550506104cf565b600081519050919050565b7f4e487b7100000000000000000000000000000000000000000000000000000000600052604160045260246000fd5b7f4e487b7100000000000000000000000000000000000000000000000000000000600052602260045260246000fd5b600060028204905060018216806101d057607f821691505b6020821081036101e3576101e2610189565b5b50919050565b60008190508160005260206000209050919050565b60006020601f8301049050919050565b600082821b905092915050565b60006008830261024b7fffffffffffffffffffffffffffffffffffffffffffffffffffffffffffffffff8261020e565b610255868361020e565b95508019841693508086168417925050509392505050565b6000819050919050565b6000819050919050565b600061029c6102976102928461026d565b610277565b61026d565b9050919050565b6000819050919050565b6102b683610281565b6102ca6102c2826102a3565b84845461021b565b825550505050565b600090565b6102df6102d2565b6102ea8184846102ad565b505050565b5b8181101561030e576103036000826102d7565b6001810190506102f0565b5050565b601f82111561035357610324816101e9565b61032d846101fe565b8101602085101561033c578190505b610350610348856101fe565b8301826102ef565b50505b505050565b600082821c905092915050565b600061037660001984600802610358565b1980831691505092915050565b600061038f8383610365565b9150826002028217905092915050565b6103a88261014f565b67ffffffffffffffff8111156103c1576103c061015a565b5b6103cb82546101b8565b6103d6828285610312565b600060209050601f83116001811461040957600084156103f7578287015190505b6104018582610383565b865550610469565b601f198416610417866101e9565b60005b8281101561043f5784890151825560018201915060208501945060208101905061041a565b8683101561045c5784890151610458601f891682610365565b8355505b6001600288020188555050505b505050505050565b600080fd5b61047f8161026d565b811461048a57600080fd5b50565b60008151905061049c81610476565b92915050565b6000602082840312156104b8576104b7610471565b5b60006104c68482850161048d565b91505092915050565b61148b806104de6000396000f3fe6080604052600436106100c25760003560e01c80635a3b7e421161007f57806395d89b411161005957806395d89b4114610283578063a9059cbb146102ae578063dd62ed3e146102eb578063f5a0d6c014610328576100c2565b80635a3b7e42146101f057806370a082311461021b5780637ff9b59614610258576100c2565b806306fdde03146100c7578063095ea7b3146100f257806323b872dd1461012f5780633610724e1461016c5780633ae1786f14610188578063518ab2a8146101c5575b600080fd5b3480156100d357600080fd5b506100dc610353565b6040516100e99190610f0c565b60405180910390f35b3480156100fe57600080fd5b5061011960048036038101906101149190610fc7565b6103e1565b6040516101269190611022565b60405180910390f35b34801561013b57600080fd5b506101566004803603810190610151919061103d565b6104d3565b6040516101639190611022565b60405180910390f35b61018660048036038101906101819190611090565b61083e565b005b34801561019457600080fd5b506101af60048036038101906101aa9190611090565b61097f565b6040516101bc9190611022565b60405180910390f35b3480156101d157600080fd5b506101da610b02565b6040516101e791906110cc565b60405180910390f35b3480156101fc57600080fd5b50610205610b08565b6040516102129190610f0c565b60405180910390f35b34801561022757600080fd5b50610242600480360381019061023d91906110e7565b610b96565b60405161024f91906110cc565b60405180910390f35b34801561026457600080fd5b5061026d610bae565b60405161027a91906110cc565b60405180910390f35b34801561028f57600080fd5b50610298610bb4565b6040516102a59190610f0c565b60405180910390f35b3480156102ba57600080fd5b506102d560048036038101906102d09190610fc7565b610c42565b6040516102e29190611022565b60405180910390f35b3480156102f757600080fd5b50610312600480360381019061030d9190611114565b610e51565b60405161031f91906110cc565b60405180910390f35b34801561033457600080fd5b5061033d610e76565b60405161034a91906110cc565b60405180910390f35b6000805461036090611183565b80601f016020809104026020016040519081016040528092919081815260200182805461038c90611183565b80156103d95780601f106103ae576101008083540402835291602001916103d9565b820191906000526020600020905b8154815290600101906020018083116103bc57829003601f168201915b505050505081565b600081600860003373ffffffffffffffffffffffffffffffffffffffff1673ffffffffffffffffffffffffffffffffffffffff16815260200190815260200160002060008573ffffffffffffffffffffffffffffffffffffffff1673ffffffffffffffffffffffffffffffffffffffff168152602001908152602001600020819055508273ffffffffffffffffffffffffffffffffffffffff163373ffffffffffffffffffffffffffffffffffffffff167f8c5be1e5ebec7d5bd14f71427d1e84f3dd0314c0f7b2291e5b200ac8c7c3b925846040516104c191906110cc565b60405180910390a36001905092915050565b6000600760008573ffffffffffffffffffffffffffffffffffffffff1673ffffffffffffffffffffffffffffffffffffffff1681526020019081526020016000205482111561052157600080fd5b600860008573ffffffffffffffffffffffffffffffffffffffff1673ffffffffffffffffffffffffffffffffffffffff16815260200190815260200160002060003373ffffffffffffffffffffffffffffffffffffffff1673ffffffffffffffffffffffffffffffffffffffff168152602001908152602001600020548211156105aa57600080fd5b81600760008673ffffffffffffffffffffffffffffffffffffffff1673ffffffffffffffffffffffffffffffffffffffff168152602001908152602001600020546105f591906111e3565b600760008673ffffffffffffffffffffffffffffffffffffffff1673ffffffffffffffffffffffffffffffffffffffff1681526020019081526020016000208190555081600760008573ffffffffffffffffffffffffffffffffffffffff1673ffffffffffffffffffffffffffffffffffffffff168152602001908152602001600020546106839190611217565b600760008573ffffffffffffffffffffffffffffffffffffffff1673ffffffffffffffffffffffffffffffffffffffff1681526020019081526020016000208190555081600860008673ffffffffffffffffffffffffffffffffffffffff1673ffffffffffffffffffffffffffffffffffffffff16815260200190815260200160002060003373ffffffffffffffffffffffffffffffffffffffff1673ffffffffffffffffffffffffffffffffffffffff1681526020019081526020016000205461074e91906111e3565b600860008673ffffffffffffffffffffffffffffffffffffffff1673ffffffffffffffffffffffffffffffffffffffff16815260200190815260200160002060003373ffffffffffffffffffffffffffffffffffffffff1673ffffffffffffffffffffffffffffffffffffffff168152602001908152602001600020819055508273ffffffffffffffffffffffffffffffffffffffff168473ffffffffffffffffffffffffffffffffffffffff167fddf252ad1be2c89b69c2b068fc378daa952ba7f163c4a11628f55a4df523b3ef8460405161082b91906110cc565b60405180910390a3600190509392505050565b6004548161084c919061124b565b341461088d576040517f08c379a0000000000000000000000000000000000000000000000000000000008152600401610884906112ff565b60405180910390fd5b80600760003373ffffffffffffffffffffffffffffffffffffffff1673ffffffffffffffffffffffffffffffffffffffff168152602001908152602001600020546108d89190611217565b600760003373ffffffffffffffffffffffffffffffffffffffff1673ffffffffffffffffffffffffffffffffffffffff16815260200190815260200160002081905550806005546109299190611217565b6005819055508060065461093d9190611217565b6006819055507f5e5e995ce3133561afceaa51a9a154d5db228cd7525d34df5185582c18d3df09338260405161097492919061132e565b60405180910390a150565b600081600760003373ffffffffffffffffffffffffffffffffffffffff1673ffffffffffffffffffffffffffffffffffffffff168152602001908152602001600020541015610a03576040517f08c379a00000000000000000000000000000000000000000000000000000000081526004016109fa906113c9565b60405180910390fd5b81600760003373ffffffffffffffffffffffffffffffffffffffff1673ffffffffffffffffffffffffffffffffffffffff16815260200190815260200160002054610a4e91906111e3565b600760003373ffffffffffffffffffffffffffffffffffffffff1673ffffffffffffffffffffffffffffffffffffffff168152602001908152602001600020819055503373ffffffffffffffffffffffffffffffffffffffff166108fc60045484610ab9919061124b565b9081150290604051600060405180830381858888f19350505050158015610ae4573d6000803e3d6000fd5b5081600654610af391906111e3565b60068190555060019050919050565b60055481565b60028054610b1590611183565b80601f0160208091040260200160405190810160405280929190818152602001828054610b4190611183565b8015610b8e5780601f10610b6357610100808354040283529160200191610b8e565b820191906000526020600020905b815481529060010190602001808311610b7157829003601f168201915b505050505081565b60076020528060005260406000206000915090505481565b60045481565b60018054610bc190611183565b80601f0160208091040260200160405190810160405280929190818152602001828054610bed90611183565b8015610c3a5780601f10610c0f57610100808354040283529160200191610c3a565b820191906000526020600020905b815481529060010190602001808311610c1d57829003601f168201915b505050505081565b600081600760003373ffffffffffffffffffffffffffffffffffffffff1673ffffffffffffffffffffffffffffffffffffffff168152602001908152602001600020541015610cc6576040517f08c379a0000000000000000000000000000000000000000000000000000000008152600401610cbd90611435565b60405180910390fd5b81600760003373ffffffffffffffffffffffffffffffffffffffff1673ffffffffffffffffffffffffffffffffffffffff16815260200190815260200160002054610d1191906111e3565b600760003373ffffffffffffffffffffffffffffffffffffffff1673ffffffffffffffffffffffffffffffffffffffff1681526020019081526020016000208190555081600760008573ffffffffffffffffffffffffffffffffffffffff1673ffffffffffffffffffffffffffffffffffffffff16815260200190815260200160002054610d9f9190611217565b600760008573ffffffffffffffffffffffffffffffffffffffff1673ffffffffffffffffffffffffffffffffffffffff168152602001908152602001600020819055508273ffffffffffffffffffffffffffffffffffffffff163373ffffffffffffffffffffffffffffffffffffffff167fddf252ad1be2c89b69c2b068fc378daa952ba7f163c4a11628f55a4df523b3ef84604051610e3f91906110cc565b60405180910390a36001905092915050565b6008602052816000526040600020602052806000526040600020600091509150505481565b60065481565b600081519050919050565b600082825260208201905092915050565b60005b83811015610eb6578082015181840152602081019050610e9b565b60008484015250505050565b6000601f19601f8301169050919050565b6000610ede82610e7c565b610ee88185610e87565b9350610ef8818560208601610e98565b610f0181610ec2565b840191505092915050565b60006020820190508181036000830152610f268184610ed3565b905092915050565b600080fd5b600073ffffffffffffffffffffffffffffffffffffffff82169050919050565b6000610f5e82610f33565b9050919050565b610f6e81610f53565b8114610f7957600080fd5b50565b600081359050610f8b81610f65565b92915050565b6000819050919050565b610fa481610f91565b8114610faf57600080fd5b50565b600081359050610fc181610f9b565b92915050565b60008060408385031215610fde57610fdd610f2e565b5b6000610fec85828601610f7c565b9250506020610ffd85828601610fb2565b9150509250929050565b60008115159050919050565b61101c81611007565b82525050565b60006020820190506110376000830184611013565b92915050565b60008060006060848603121561105657611055610f2e565b5b600061106486828701610f7c565b935050602061107586828701610f7c565b925050604061108686828701610fb2565b9150509250925092565b6000602082840312156110a6576110a5610f2e565b5b60006110b484828501610fb2565b91505092915050565b6110c681610f91565b82525050565b60006020820190506110e160008301846110bd565b92915050565b6000602082840312156110fd576110fc610f2e565b5b600061110b84828501610f7c565b91505092915050565b6000806040838503121561112b5761112a610f2e565b5b600061113985828601610f7c565b925050602061114a85828601610f7c565b9150509250929050565b7f4e487b7100000000000000000000000000000000000000000000000000000000600052602260045260246000fd5b6000600282049050600182168061119b57607f821691505b6020821081036111ae576111ad611154565b5b50919050565b7f4e487b7100000000000000000000000000000000000000000000000000000000600052601160045260246000fd5b60006111ee82610f91565b91506111f983610f91565b9250828203905081811115611211576112106111b4565b5b92915050565b600061122282610f91565b915061122d83610f91565b9250828201905080821115611245576112446111b4565b5b92915050565b600061125682610f91565b915061126183610f91565b925082820261126f81610f91565b91508282048414831517611286576112856111b4565b5b5092915050565b7f596f7520646964206e6f742073656e642074686520636f727265637420616d6f60008201527f756e74206f662065746865722e00000000000000000000000000000000000000602082015250565b60006112e9602d83610e87565b91506112f48261128d565b604082019050919050565b60006020820190508181036000830152611318816112dc565b9050919050565b61132881610f53565b82525050565b6000604082019050611343600083018561131f565b61135060208301846110bd565b9392505050565b7f596f7520646f206e6f7420686176652074686174206d75636820746f6b656e7360008201527f2e00000000000000000000000000000000000000000000000000000000000000602082015250565b60006113b3602183610e87565b91506113be82611357565b604082019050919050565b600060208201905081810360008301526113e2816113a6565b9050919050565b7f596f7520646f6e2774206861766520656e6f75676820746f6b656e732e000000600082015250565b600061141f601d83610e87565b915061142a826113e9565b602082019050919050565b6000602082019050818103600083015261144e81611412565b905091905056fea2646970667358221220dc4b3a01306276435cc9027a079702b7c8e8f8fe4220a3415266973a8c41e3bb64736f6c634300081a0033",
  "linkReferences": {},
  "deployedLinkReferences": {}
}