{
  "_format": "hh-sol-artifact-1",
  "contractName": "VoteDappQuadratic",
  "sourceName": "contracts/VoteDappQuadratic.sol",
  "abi": [
    {
      "inputs": [
        {
          "internalType": "address",
          "name": "_token",
          "type": "address"
        },
        {
          "internalType": "address",
          "name": "_storage",
          "type": "address"
        }
      ],
      "stateMutability": "nonpayable",
      "type": "constructor"
    },
    {
      "anonymous": false,
      "inputs": [
        {
          "indexed": true,
          "internalType": "string",
          "name": "_pollName",
          "type": "string"
        },
        {
          "indexed": false,
          "internalType": "address",
          "name": "_owner",
          "type": "address"
        }
      ],
      "name": "pollCreated",
      "type": "event"
    },
    {
      "anonymous": false,
      "inputs": [
        {
          "indexed": true,
          "internalType": "string",
          "name": "_pollName",
          "type": "string"
        }
      ],
      "name": "pollEnded",
      "type": "event"
    },
    {
      "anonymous": false,
      "inputs": [
        {
          "indexed": true,
          "internalType": "string",
          "name": "_pollName",
          "type": "string"
        },
        {
          "indexed": false,
          "internalType": "string",
          "name": "_option",
          "type": "string"
        },
        {
          "indexed": false,
          "internalType": "address",
          "name": "_voter",
          "type": "address"
        }
      ],
      "name": "pollVoted",
      "type": "event"
    },
    {
      "inputs": [
        {
          "internalType": "string",
          "name": "",
          "type": "string"
        }
      ],
      "name": "Polls",
      "outputs": [
        {
          "internalType": "address",
          "name": "owner",
          "type": "address"
        },
        {
          "internalType": "address",
          "name": "recipient",
          "type": "address"
        },
        {
          "internalType": "string",
          "name": "description",
          "type": "string"
        },
        {
          "internalType": "bool",
          "name": "open",
          "type": "bool"
        },
        {
          "internalType": "bool",
          "name": "privatePoll",
          "type": "bool"
        },
        {
          "internalType": "bool",
          "name": "returnMoneyOnCompletion",
          "type": "bool"
        },
        {
          "internalType": "uint256",
          "name": "maxVotes",
          "type": "uint256"
        }
      ],
      "stateMutability": "view",
      "type": "function"
    },
    {
      "inputs": [
        {
          "internalType": "string",
          "name": "pollName",
          "type": "string"
        }
      ],
      "name": "checkGetYourMoney",
      "outputs": [
        {
          "internalType": "uint256",
          "name": "",
          "type": "uint256"
        }
      ],
      "stateMutability": "view",
      "type": "function"
    },
    {
      "inputs": [
        {
          "internalType": "string",
          "name": "pollName",
          "type": "string"
        },
        {
          "internalType": "string",
          "name": "description",
          "type": "string"
        },
        {
          "internalType": "string[]",
          "name": "toptions",
          "type": "string[]"
        },
        {
          "internalType": "uint256",
          "name": "maxVotes",
          "type": "uint256"
        },
        {
          "internalType": "bool",
          "name": "returnMoneyOnCompletion",
          "type": "bool"
        },
        {
          "internalType": "bool",
          "name": "privatePoll",
          "type": "bool"
        },
        {
          "internalType": "address[]",
          "name": "allowedVoters",
          "type": "address[]"
        },
        {
          "internalType": "address",
          "name": "recipient",
          "type": "address"
        }
      ],
      "name": "createPoll",
      "outputs": [],
      "stateMutability": "nonpayable",
      "type": "function"
    },
    {
      "inputs": [
        {
          "internalType": "string",
          "name": "pollName",
          "type": "string"
        }
      ],
      "name": "endPoll",
      "outputs": [],
      "stateMutability": "nonpayable",
      "type": "function"
    },
    {
      "inputs": [
        {
          "internalType": "uint256",
          "name": "n",
          "type": "uint256"
        },
        {
          "internalType": "uint256",
          "name": "b",
          "type": "uint256"
        }
      ],
      "name": "findCost",
      "outputs": [
        {
          "internalType": "uint256",
          "name": "",
          "type": "uint256"
        }
      ],
      "stateMutability": "pure",
      "type": "function"
    },
    {
      "inputs": [
        {
          "internalType": "uint256",
          "name": "availableTokens",
          "type": "uint256"
        }
      ],
      "name": "findVotes",
      "outputs": [
        {
          "internalType": "uint256",
          "name": "i",
          "type": "uint256"
        }
      ],
      "stateMutability": "pure",
      "type": "function"
    },
    {
      "inputs": [
        {
          "internalType": "string",
          "name": "pollName",
          "type": "string"
        }
      ],
      "name": "getPollDescription",
      "outputs": [
        {
          "internalType": "string",
          "name": "",
          "type": "string"
        }
      ],
      "stateMutability": "view",
      "type": "function"
    },
    {
      "inputs": [],
      "name": "getPollList",
      "outputs": [
        {
          "internalType": "string[]",
          "name": "",
          "type": "string[]"
        }
      ],
      "stateMutability": "view",
      "type": "function"
    },
    {
      "inputs": [
        {
          "internalType": "string",
          "name": "pollName",
          "type": "string"
        }
      ],
      "name": "getPollOwner",
      "outputs": [
        {
          "internalType": "address",
          "name": "",
          "type": "address"
        }
      ],
      "stateMutability": "view",
      "type": "function"
    },
    {
      "inputs": [
        {
          "internalType": "string",
          "name": "pollName",
          "type": "string"
        }
      ],
      "name": "getYourMoney",
      "outputs": [],
      "stateMutability": "nonpayable",
      "type": "function"
    },
    {
      "inputs": [
        {
          "internalType": "string",
          "name": "pollName",
          "type": "string"
        },
        {
          "internalType": "address",
          "name": "voter",
          "type": "address"
        }
      ],
      "name": "isAllowedToVote",
      "outputs": [
        {
          "internalType": "bool",
          "name": "",
          "type": "bool"
        }
      ],
      "stateMutability": "view",
      "type": "function"
    },
    {
      "inputs": [
        {
          "internalType": "uint256",
          "name": "",
          "type": "uint256"
        }
      ],
      "name": "listofPolls",
      "outputs": [
        {
          "internalType": "string",
          "name": "",
          "type": "string"
        }
      ],
      "stateMutability": "view",
      "type": "function"
    },
    {
      "inputs": [
        {
          "internalType": "string",
          "name": "pollName",
          "type": "string"
        },
        {
          "internalType": "string",
          "name": "option",
          "type": "string"
        }
      ],
      "name": "requestOptionVotes",
      "outputs": [
        {
          "internalType": "uint256",
          "name": "",
          "type": "uint256"
        }
      ],
      "stateMutability": "view",
      "type": "function"
    },
    {
      "inputs": [
        {
          "internalType": "string",
          "name": "pollName",
          "type": "string"
        }
      ],
      "name": "requestOptions",
      "outputs": [
        {
          "internalType": "string[]",
          "name": "",
          "type": "string[]"
        }
      ],
      "stateMutability": "view",
      "type": "function"
    },
    {
      "inputs": [
        {
          "internalType": "string",
          "name": "pollName",
          "type": "string"
        }
      ],
      "name": "requestWinner",
      "outputs": [
        {
          "internalType": "string[]",
          "name": "",
          "type": "string[]"
        }
      ],
      "stateMutability": "view",
      "type": "function"
    },
    {
      "inputs": [
        {
          "internalType": "string",
          "name": "pollName",
          "type": "string"
        },
        {
          "internalType": "string",
          "name": "option",
          "type": "string"
        },
        {
          "internalType": "address",
          "name": "voter",
          "type": "address"
        }
      ],
      "name": "trackSpecificPayments",
      "outputs": [
        {
          "internalType": "uint256",
          "name": "",
          "type": "uint256"
        }
      ],
      "stateMutability": "view",
      "type": "function"
    },
    {
      "inputs": [
        {
          "internalType": "string",
          "name": "pollName",
          "type": "string"
        },
        {
          "internalType": "address",
          "name": "voter",
          "type": "address"
        }
      ],
      "name": "trackTotalPayments",
      "outputs": [
        {
          "internalType": "uint256",
          "name": "",
          "type": "uint256"
        }
      ],
      "stateMutability": "view",
      "type": "function"
    },
    {
      "inputs": [
        {
          "internalType": "string",
          "name": "pollName",
          "type": "string"
        },
        {
          "internalType": "string",
          "name": "option",
          "type": "string"
        },
        {
          "internalType": "uint256",
          "name": "votes",
          "type": "uint256"
        }
      ],
      "name": "vote",
      "outputs": [],
      "stateMutability": "nonpayable",
      "type": "function"
    }
  ],
  "bytecode": "0x608060405234801561001057600080fd5b506040516153c33803806153c38339818101604052810190610032919061011e565b81600260006101000a81548173ffffffffffffffffffffffffffffffffffffffff021916908373ffffffffffffffffffffffffffffffffffffffff16021790555080600360006101000a81548173ffffffffffffffffffffffffffffffffffffffff021916908373ffffffffffffffffffffffffffffffffffffffff160217905550505061015e565b600080fd5b600073ffffffffffffffffffffffffffffffffffffffff82169050919050565b60006100eb826100c0565b9050919050565b6100fb816100e0565b811461010657600080fd5b50565b600081519050610118816100f2565b92915050565b60008060408385031215610135576101346100bb565b5b600061014385828601610109565b925050602061015485828601610109565b9150509250929050565b6152568061016d6000396000f3fe608060405234801561001057600080fd5b50600436106101165760003560e01c80636f3ea48c116100a2578063afe32fbd11610071578063afe32fbd14610329578063b81d5a9614610359578063bb0299bb14610389578063d499b299146103b9578063e8692c61146103ef57610116565b80636f3ea48c1461027d5780637a4c96ad146102ad57806394d5cbfd146102c9578063ad27106b146102f957610116565b8063497df5f2116100e9578063497df5f2146101b357806354a9ac5e146101e357806361e123d31461021357806363511325146102435780636a506c221461025f57610116565b80631b8f20e81461011b578063299c44911461014b5780632adf51f214610167578063420f632314610197575b600080fd5b61013560048036038101906101309190613818565b61041f565b60405161014291906138d5565b60405180910390f35b61016560048036038101906101609190613a2c565b6104cb565b005b610181600480360381019061017c9190613a75565b610a86565b60405161018e9190613afc565b60405180910390f35b6101b160048036038101906101ac9190613d56565b610b83565b005b6101cd60048036038101906101c89190613e7c565b61117a565b6040516101da9190613afc565b60405180910390f35b6101fd60048036038101906101f89190613a2c565b6111cd565b60405161020a9190613fc8565b60405180910390f35b61022d60048036038101906102289190613818565b611676565b60405161023a9190613afc565b60405180910390f35b61025d60048036038101906102589190613a2c565b6116db565b005b610267611b15565b6040516102749190613fc8565b60405180910390f35b61029760048036038101906102929190613a2c565b611bee565b6040516102a491906138d5565b60405180910390f35b6102c760048036038101906102c29190613fea565b611d53565b005b6102e360048036038101906102de9190613a2c565b61274d565b6040516102f09190613afc565b60405180910390f35b610313600480360381019061030e9190613a2c565b612bbb565b6040516103209190614084565b60405180910390f35b610343600480360381019061033e919061409f565b612c05565b6040516103509190613afc565b60405180910390f35b610373600480360381019061036e9190613a2c565b612f13565b6040516103809190613fc8565b60405180910390f35b6103a3600480360381019061039e919061412a565b6130bf565b6040516103b09190613afc565b60405180910390f35b6103d360048036038101906103ce9190613a2c565b613339565b6040516103e69796959493929190614195565b60405180910390f35b6104096004803603810190610404919061412a565b613480565b604051610416919061420b565b60405180910390f35b6001818154811061042f57600080fd5b90600052602060002001600091509050805461044a90614255565b80601f016020809104026020016040519081016040528092919081815260200182805461047690614255565b80156104c35780601f10610498576101008083540402835291602001916104c3565b820191906000526020600020905b8154815290600101906020018083116104a657829003601f168201915b505050505081565b80600073ffffffffffffffffffffffffffffffffffffffff166000826040516104f491906142c2565b908152602001604051809103902060000160009054906101000a900473ffffffffffffffffffffffffffffffffffffffff1673ffffffffffffffffffffffffffffffffffffffff160361057c576040517f08c379a000000000000000000000000000000000000000000000000000000000815260040161057390614325565b60405180910390fd5b60008260405161058c91906142c2565b908152602001604051809103902060030160009054906101000a900460ff16156105eb576040517f08c379a00000000000000000000000000000000000000000000000000000000081526004016105e2906143b7565b60405180910390fd5b6000826040516105fb91906142c2565b908152602001604051809103902060060160003373ffffffffffffffffffffffffffffffffffffffff1673ffffffffffffffffffffffffffffffffffffffff16815260200190815260200160002060000160009054906101000a900460ff161561066457600080fd5b600160008360405161067691906142c2565b908152602001604051809103902060060160003373ffffffffffffffffffffffffffffffffffffffff1673ffffffffffffffffffffffffffffffffffffffff16815260200190815260200160002060000160006101000a81548160ff021916908315150217905550600080836040516106ef91906142c2565b9081526020016040518091039020600401805480602002602001604051908101604052809291908181526020016000905b828210156107cc57838290600052602060002001805461073f90614255565b80601f016020809104026020016040519081016040528092919081815260200182805461076b90614255565b80156107b85780601f1061078d576101008083540402835291602001916107b8565b820191906000526020600020905b81548152906001019060200180831161079b57829003601f168201915b505050505081526020019060010190610720565b5050505090506000805b8251811015610898576108896000866040516107f291906142c2565b9081526020016040518091039020600501848381518110610816576108156143d7565b5b602002602001015160405161082b91906142c2565b908152602001604051809103902060000160003373ffffffffffffffffffffffffffffffffffffffff1673ffffffffffffffffffffffffffffffffffffffff16815260200190815260200160002054836135e890919063ffffffff16565b915080806001019150506107d6565b506000846040516108a991906142c2565b908152602001604051809103902060030160029054906101000a900460ff166109a15760006108d7856111cd565b905060005b815181101561099e5761098f6000876040516108f891906142c2565b908152602001604051809103902060050183838151811061091c5761091b6143d7565b5b602002602001015160405161093191906142c2565b908152602001604051809103902060000160003373ffffffffffffffffffffffffffffffffffffffff1673ffffffffffffffffffffffffffffffffffffffff168152602001908152602001600020548461364690919063ffffffff16565b925080806001019150506108dc565b50505b600260009054906101000a900473ffffffffffffffffffffffffffffffffffffffff1673ffffffffffffffffffffffffffffffffffffffff1663a9059cbb33836040518363ffffffff1660e01b81526004016109fe929190614406565b6020604051808303816000875af1158015610a1d573d6000803e3d6000fd5b505050506040513d601f19601f82011682018060405250810190610a419190614444565b610a80576040517f08c379a0000000000000000000000000000000000000000000000000000000008152600401610a77906144bd565b60405180910390fd5b50505050565b600082600073ffffffffffffffffffffffffffffffffffffffff16600082604051610ab191906142c2565b908152602001604051809103902060000160009054906101000a900473ffffffffffffffffffffffffffffffffffffffff1673ffffffffffffffffffffffffffffffffffffffff1603610b39576040517f08c379a0000000000000000000000000000000000000000000000000000000008152600401610b3090614325565b60405180910390fd5b600084604051610b4991906142c2565b908152602001604051809103902060050183604051610b6891906142c2565b90815260200160405180910390206001015491505092915050565b600073ffffffffffffffffffffffffffffffffffffffff16600089604051610bab91906142c2565b908152602001604051809103902060000160009054906101000a900473ffffffffffffffffffffffffffffffffffffffff1673ffffffffffffffffffffffffffffffffffffffff1614610c33576040517f08c379a0000000000000000000000000000000000000000000000000000000008152600401610c2a9061454f565b60405180910390fd5b6001851015610c77576040517f08c379a0000000000000000000000000000000000000000000000000000000008152600401610c6e906145e1565b60405180910390fd5b600360009054906101000a900473ffffffffffffffffffffffffffffffffffffffff1673ffffffffffffffffffffffffffffffffffffffff166311456b47896040518263ffffffff1660e01b8152600401610cd291906138d5565b6020604051808303816000875af1158015610cf1573d6000803e3d6000fd5b505050506040513d601f19601f82011682018060405250810190610d159190614444565b610d54576040517f08c379a0000000000000000000000000000000000000000000000000000000008152600401610d4b9061464d565b60405180910390fd5b8215610e8b576000825111610d9e576040517f08c379a0000000000000000000000000000000000000000000000000000000008152600401610d95906146df565b60405180910390fd5b6001600089604051610db091906142c2565b908152602001604051809103902060030160016101000a81548160ff02191690831515021790555060005b8251811015610e8557600160008a604051610df691906142c2565b90815260200160405180910390206006016000858481518110610e1c57610e1b6143d7565b5b602002602001015173ffffffffffffffffffffffffffffffffffffffff1673ffffffffffffffffffffffffffffffffffffffff16815260200190815260200160002060000160016101000a81548160ff0219169083151502179055508080600101915050610ddb565b50610ed0565b6000825114610ecf576040517f08c379a0000000000000000000000000000000000000000000000000000000008152600401610ec690614771565b60405180910390fd5b5b33600089604051610ee191906142c2565b908152602001604051809103902060000160006101000a81548173ffffffffffffffffffffffffffffffffffffffff021916908373ffffffffffffffffffffffffffffffffffffffff16021790555080600089604051610f4191906142c2565b908152602001604051809103902060010160006101000a81548173ffffffffffffffffffffffffffffffffffffffff021916908373ffffffffffffffffffffffffffffffffffffffff160217905550604051602001610f9f906147b7565b6040516020818303038152906040528051906020012087604051602001610fc691906142c2565b60405160208183030381529060405280519060200120146110115786600089604051610ff291906142c2565b9081526020016040518091039020600201908161100f9190614978565b505b8460008960405161102291906142c2565b9081526020016040518091039020600701819055508560008960405161104891906142c2565b9081526020016040518091039020600401908051906020019061106c9291906136f4565b5060011515841515036110b457600160008960405161108b91906142c2565b908152602001604051809103902060030160026101000a81548160ff0219169083151502179055505b60016000896040516110c691906142c2565b908152602001604051809103902060030160006101000a81548160ff0219169083151502179055506001889080600181540180825580915050600190039060005260206000200160009091909190915090816111229190614978565b508760405161113191906142c2565b60405180910390207ffde17daabe48b554ebb28deab1885c922b8c13373b7281fa54b1244b22356b36336040516111689190614084565b60405180910390a25050505050505050565b600080600090506000838561118f9190614a79565b90505b838111156111c2576111ad81836135e890919063ffffffff16565b915080806111ba90614aad565b915050611192565b508091505092915050565b606081600073ffffffffffffffffffffffffffffffffffffffff166000826040516111f891906142c2565b908152602001604051809103902060000160009054906101000a900473ffffffffffffffffffffffffffffffffffffffff1673ffffffffffffffffffffffffffffffffffffffff1603611280576040517f08c379a000000000000000000000000000000000000000000000000000000000815260040161127790614325565b60405180910390fd5b6000808460405161129191906142c2565b90815260200160405180910390206004018054905067ffffffffffffffff8111156112bf576112be613901565b5b6040519080825280602002602001820160405280156112f257816020015b60608152602001906001900390816112dd5790505b5090506000808560405161130691906142c2565b90815260200160405180910390206004018054905067ffffffffffffffff81111561133457611333613901565b5b6040519080825280602002602001820160405280156113625781602001602082028036833780820191505090505b50905060005b60008660405161137891906142c2565b90815260200160405180910390206004018054905081101561143d576000866040516113a491906142c2565b90815260200160405180910390206005016000876040516113c591906142c2565b908152602001604051809103902060040182815481106113e8576113e76143d7565b5b906000526020600020016040516113ff9190614b59565b908152602001604051809103902060010154828281518110611424576114236143d7565b5b6020026020010181815250508080600101915050611368565b506000805b82518110156114985782818151811061145e5761145d6143d7565b5b602002602001015182101561148b578281815181106114805761147f6143d7565b5b602002602001015191505b8080600101915050611442565b50600081036114ac57829450505050611670565b6000805b6000886040516114c091906142c2565b908152602001604051809103902060040180549050811015611667576000886040516114ec91906142c2565b908152602001604051809103902060050160008960405161150d91906142c2565b908152602001604051809103902060040182815481106115305761152f6143d7565b5b906000526020600020016040516115479190614b59565b908152602001604051809103902060010154830361165a5760008860405161156f91906142c2565b90815260200160405180910390206004018181548110611592576115916143d7565b5b9060005260206000200180546115a790614255565b80601f01602080910402602001604051908101604052809291908181526020018280546115d390614255565b80156116205780601f106115f557610100808354040283529160200191611620565b820191906000526020600020905b81548152906001019060200180831161160357829003601f168201915b5050505050858381518110611638576116376143d7565b5b60200260200101819052506116576001836135e890919063ffffffff16565b91505b80806001019150506114b0565b50839550505050505b50919050565b60008060009050600091505b8282116116d45781816116959190614a79565b90508281036116a457506116d6565b828111156116c1576001826116b99190614b70565b9150506116d6565b81806116cc90614ba4565b925050611682565b505b919050565b80600073ffffffffffffffffffffffffffffffffffffffff1660008260405161170491906142c2565b908152602001604051809103902060000160009054906101000a900473ffffffffffffffffffffffffffffffffffffffff1673ffffffffffffffffffffffffffffffffffffffff160361178c576040517f08c379a000000000000000000000000000000000000000000000000000000000815260040161178390614325565b60405180910390fd5b60008260405161179c91906142c2565b908152602001604051809103902060030160009054906101000a900460ff166117fa576040517f08c379a00000000000000000000000000000000000000000000000000000000081526004016117f190614c38565b60405180910390fd5b3373ffffffffffffffffffffffffffffffffffffffff1660008360405161182191906142c2565b908152602001604051809103902060000160009054906101000a900473ffffffffffffffffffffffffffffffffffffffff1673ffffffffffffffffffffffffffffffffffffffff16146118a9576040517f08c379a00000000000000000000000000000000000000000000000000000000081526004016118a090614cca565b60405180910390fd5b600080836040516118ba91906142c2565b908152602001604051809103902060030160006101000a81548160ff0219169083151502179055506000826040516118f291906142c2565b908152602001604051809103902060030160029054906101000a900460ff16611acf576000611920836111cd565b90506000805b82518110156119ab5761199c60008660405161194291906142c2565b9081526020016040518091039020600501848381518110611966576119656143d7565b5b602002602001015160405161197b91906142c2565b908152602001604051809103902060020154836135e890919063ffffffff16565b91508080600101915050611926565b50600260009054906101000a900473ffffffffffffffffffffffffffffffffffffffff1673ffffffffffffffffffffffffffffffffffffffff1663a9059cbb6000866040516119fa91906142c2565b908152602001604051809103902060010160009054906101000a900473ffffffffffffffffffffffffffffffffffffffff16836040518363ffffffff1660e01b8152600401611a4a929190614406565b6020604051808303816000875af1158015611a69573d6000803e3d6000fd5b505050506040513d601f19601f82011682018060405250810190611a8d9190614444565b611acc576040517f08c379a0000000000000000000000000000000000000000000000000000000008152600401611ac3906144bd565b60405180910390fd5b50505b81604051611add91906142c2565b60405180910390207fa00a67652459c6dfc10b09a6811992aba29bf54e23a7b7c81a7b324d4e3994be60405160405180910390a25050565b60606001805480602002602001604051908101604052809291908181526020016000905b82821015611be5578382906000526020600020018054611b5890614255565b80601f0160208091040260200160405190810160405280929190818152602001828054611b8490614255565b8015611bd15780601f10611ba657610100808354040283529160200191611bd1565b820191906000526020600020905b815481529060010190602001808311611bb457829003601f168201915b505050505081526020019060010190611b39565b50505050905090565b606081600073ffffffffffffffffffffffffffffffffffffffff16600082604051611c1991906142c2565b908152602001604051809103902060000160009054906101000a900473ffffffffffffffffffffffffffffffffffffffff1673ffffffffffffffffffffffffffffffffffffffff1603611ca1576040517f08c379a0000000000000000000000000000000000000000000000000000000008152600401611c9890614325565b60405180910390fd5b600083604051611cb191906142c2565b90815260200160405180910390206002018054611ccd90614255565b80601f0160208091040260200160405190810160405280929190818152602001828054611cf990614255565b8015611d465780601f10611d1b57610100808354040283529160200191611d46565b820191906000526020600020905b815481529060010190602001808311611d2957829003601f168201915b5050505050915050919050565b600083604051611d6391906142c2565b908152602001604051809103902060030160009054906101000a900460ff16611dc1576040517f08c379a0000000000000000000000000000000000000000000000000000000008152600401611db890614d5c565b60405180910390fd5b60008084604051611dd291906142c2565b9081526020016040518091039020600401805480602002602001604051908101604052809291908181526020016000905b82821015611eaf578382906000526020600020018054611e2290614255565b80601f0160208091040260200160405190810160405280929190818152602001828054611e4e90614255565b8015611e9b5780601f10611e7057610100808354040283529160200191611e9b565b820191906000526020600020905b815481529060010190602001808311611e7e57829003601f168201915b505050505081526020019060010190611e03565b50505050905060005b8151811015611f925783604051602001611ed291906142c2565b60405160208183030381529060405280519060200120828281518110611efb57611efa6143d7565b5b6020026020010151604051602001611f1391906142c2565b604051602081830303815290604052805190602001200315611f9257611f446001835161364690919063ffffffff16565b8103611f85576040517f08c379a0000000000000000000000000000000000000000000000000000000008152600401611f7c90614dc8565b60405180910390fd5b8080600101915050611eb8565b5060008211611fd6576040517f08c379a0000000000000000000000000000000000000000000000000000000008152600401611fcd90614e34565b60405180910390fd5b600084604051611fe691906142c2565b908152602001604051809103902060030160019054906101000a900460ff16156120b95760008460405161201a91906142c2565b908152602001604051809103902060060160003373ffffffffffffffffffffffffffffffffffffffff1673ffffffffffffffffffffffffffffffffffffffff16815260200190815260200160002060000160019054906101000a900460ff166120b8576040517f08c379a00000000000000000000000000000000000000000000000000000000081526004016120af90614ea0565b60405180910390fd5b5b6000805b825181101561217f576121706000876040516120d991906142c2565b90815260200160405180910390206005018483815181106120fd576120fc6143d7565b5b602002602001015160405161211291906142c2565b908152602001604051809103902060000160003373ffffffffffffffffffffffffffffffffffffffff1673ffffffffffffffffffffffffffffffffffffffff16815260200190815260200160002054836135e890919063ffffffff16565b915080806001019150506120bd565b50600061218b82611676565b905060006121a285836135e890919063ffffffff16565b90506000876040516121b491906142c2565b908152602001604051809103902060070154811115612208576040517f08c379a00000000000000000000000000000000000000000000000000000000081526004016121ff90614f32565b60405180910390fd5b6000612214868461117a565b905080600260009054906101000a900473ffffffffffffffffffffffffffffffffffffffff1673ffffffffffffffffffffffffffffffffffffffff166370a08231336040518263ffffffff1660e01b81526004016122729190614084565b602060405180830381865afa15801561228f573d6000803e3d6000fd5b505050506040513d601f19601f820116820180604052508101906122b39190614f67565b10156122f4576040517f08c379a00000000000000000000000000000000000000000000000000000000081526004016122eb90615006565b60405180910390fd5b80600260009054906101000a900473ffffffffffffffffffffffffffffffffffffffff1673ffffffffffffffffffffffffffffffffffffffff1663dd62ed3e33306040518363ffffffff1660e01b8152600401612352929190615026565b602060405180830381865afa15801561236f573d6000803e3d6000fd5b505050506040513d601f19601f820116820180604052508101906123939190614f67565b10156123d4576040517f08c379a00000000000000000000000000000000000000000000000000000000081526004016123cb906150c1565b60405180910390fd5b600260009054906101000a900473ffffffffffffffffffffffffffffffffffffffff1673ffffffffffffffffffffffffffffffffffffffff166323b872dd3330846040518463ffffffff1660e01b8152600401612433939291906150e1565b6020604051808303816000875af1158015612452573d6000803e3d6000fd5b505050506040513d601f19601f820116820180604052508101906124769190614444565b6124b5576040517f08c379a00000000000000000000000000000000000000000000000000000000081526004016124ac906144bd565b60405180910390fd5b6125458160008a6040516124c991906142c2565b9081526020016040518091039020600501896040516124e891906142c2565b908152602001604051809103902060000160003373ffffffffffffffffffffffffffffffffffffffff1673ffffffffffffffffffffffffffffffffffffffff168152602001908152602001600020546135e890919063ffffffff16565b60008960405161255591906142c2565b90815260200160405180910390206005018860405161257491906142c2565b908152602001604051809103902060000160003373ffffffffffffffffffffffffffffffffffffffff1673ffffffffffffffffffffffffffffffffffffffff168152602001908152602001600020819055506126198660008a6040516125da91906142c2565b9081526020016040518091039020600501896040516125f991906142c2565b9081526020016040518091039020600101546135e890919063ffffffff16565b60008960405161262991906142c2565b90815260200160405180910390206005018860405161264891906142c2565b9081526020016040518091039020600101819055506126b08160008a60405161267191906142c2565b90815260200160405180910390206005018960405161269091906142c2565b9081526020016040518091039020600201546135e890919063ffffffff16565b6000896040516126c091906142c2565b9081526020016040518091039020600501886040516126df91906142c2565b9081526020016040518091039020600201819055508760405161270291906142c2565b60405180910390207f709cc456c2be834035f2c7655ccd34b1cdd97b374537807e49ce05afb2bbdcf2883360405161273b929190615118565b60405180910390a25050505050505050565b600081600073ffffffffffffffffffffffffffffffffffffffff1660008260405161277891906142c2565b908152602001604051809103902060000160009054906101000a900473ffffffffffffffffffffffffffffffffffffffff1673ffffffffffffffffffffffffffffffffffffffff1603612800576040517f08c379a00000000000000000000000000000000000000000000000000000000081526004016127f790614325565b60405180910390fd5b60008360405161281091906142c2565b908152602001604051809103902060030160009054906101000a900460ff161561286f576040517f08c379a000000000000000000000000000000000000000000000000000000000815260040161286690615194565b60405180910390fd5b60008360405161287f91906142c2565b908152602001604051809103902060060160003373ffffffffffffffffffffffffffffffffffffffff1673ffffffffffffffffffffffffffffffffffffffff16815260200190815260200160002060000160009054906101000a900460ff16156128ec5760009150612bb5565b600080846040516128fd91906142c2565b9081526020016040518091039020600401805480602002602001604051908101604052809291908181526020016000905b828210156129da57838290600052602060002001805461294d90614255565b80601f016020809104026020016040519081016040528092919081815260200182805461297990614255565b80156129c65780601f1061299b576101008083540402835291602001916129c6565b820191906000526020600020905b8154815290600101906020018083116129a957829003601f168201915b50505050508152602001906001019061292e565b5050505090506000805b8251811015612aa657612a97600087604051612a0091906142c2565b9081526020016040518091039020600501848381518110612a2457612a236143d7565b5b6020026020010151604051612a3991906142c2565b908152602001604051809103902060000160003373ffffffffffffffffffffffffffffffffffffffff1673ffffffffffffffffffffffffffffffffffffffff16815260200190815260200160002054836135e890919063ffffffff16565b915080806001019150506129e4565b50600085604051612ab791906142c2565b908152602001604051809103902060030160029054906101000a900460ff16612baf576000612ae5866111cd565b905060005b8151811015612bac57612b9d600088604051612b0691906142c2565b9081526020016040518091039020600501838381518110612b2a57612b296143d7565b5b6020026020010151604051612b3f91906142c2565b908152602001604051809103902060000160003373ffffffffffffffffffffffffffffffffffffffff1673ffffffffffffffffffffffffffffffffffffffff168152602001908152602001600020548461364690919063ffffffff16565b92508080600101915050612aea565b50505b80935050505b50919050565b60008082604051612bcc91906142c2565b908152602001604051809103902060000160009054906101000a900473ffffffffffffffffffffffffffffffffffffffff169050919050565b600083600073ffffffffffffffffffffffffffffffffffffffff16600082604051612c3091906142c2565b908152602001604051809103902060000160009054906101000a900473ffffffffffffffffffffffffffffffffffffffff1673ffffffffffffffffffffffffffffffffffffffff1603612cb8576040517f08c379a0000000000000000000000000000000000000000000000000000000008152600401612caf90614325565b60405180910390fd5b60008086604051612cc991906142c2565b9081526020016040518091039020600401805480602002602001604051908101604052809291908181526020016000905b82821015612da6578382906000526020600020018054612d1990614255565b80601f0160208091040260200160405190810160405280929190818152602001828054612d4590614255565b8015612d925780601f10612d6757610100808354040283529160200191612d92565b820191906000526020600020905b815481529060010190602001808311612d7557829003601f168201915b505050505081526020019060010190612cfa565b50505050905060005b8151811015612e895785604051602001612dc991906142c2565b60405160208183030381529060405280519060200120828281518110612df257612df16143d7565b5b6020026020010151604051602001612e0a91906142c2565b604051602081830303815290604052805190602001200315612e8957612e3b6001835161364690919063ffffffff16565b8103612e7c576040517f08c379a0000000000000000000000000000000000000000000000000000000008152600401612e7390614dc8565b60405180910390fd5b8080600101915050612daf565b50600086604051612e9a91906142c2565b908152602001604051809103902060050185604051612eb991906142c2565b908152602001604051809103902060000160008573ffffffffffffffffffffffffffffffffffffffff1673ffffffffffffffffffffffffffffffffffffffff16815260200190815260200160002054925050509392505050565b606081600073ffffffffffffffffffffffffffffffffffffffff16600082604051612f3e91906142c2565b908152602001604051809103902060000160009054906101000a900473ffffffffffffffffffffffffffffffffffffffff1673ffffffffffffffffffffffffffffffffffffffff1603612fc6576040517f08c379a0000000000000000000000000000000000000000000000000000000008152600401612fbd90614325565b60405180910390fd5b600083604051612fd691906142c2565b9081526020016040518091039020600401805480602002602001604051908101604052809291908181526020016000905b828210156130b357838290600052602060002001805461302690614255565b80601f016020809104026020016040519081016040528092919081815260200182805461305290614255565b801561309f5780601f106130745761010080835404028352916020019161309f565b820191906000526020600020905b81548152906001019060200180831161308257829003601f168201915b505050505081526020019060010190613007565b50505050915050919050565b600082600073ffffffffffffffffffffffffffffffffffffffff166000826040516130ea91906142c2565b908152602001604051809103902060000160009054906101000a900473ffffffffffffffffffffffffffffffffffffffff1673ffffffffffffffffffffffffffffffffffffffff1603613172576040517f08c379a000000000000000000000000000000000000000000000000000000000815260040161316990614325565b60405180910390fd5b6000808560405161318391906142c2565b9081526020016040518091039020600401805480602002602001604051908101604052809291908181526020016000905b828210156132605783829060005260206000200180546131d390614255565b80601f01602080910402602001604051908101604052809291908181526020018280546131ff90614255565b801561324c5780601f106132215761010080835404028352916020019161324c565b820191906000526020600020905b81548152906001019060200180831161322f57829003601f168201915b5050505050815260200190600101906131b4565b5050505090506000805b825181101561332c5761331d60008860405161328691906142c2565b90815260200160405180910390206005018483815181106132aa576132a96143d7565b5b60200260200101516040516132bf91906142c2565b908152602001604051809103902060000160008873ffffffffffffffffffffffffffffffffffffffff1673ffffffffffffffffffffffffffffffffffffffff16815260200190815260200160002054836135e890919063ffffffff16565b9150808060010191505061326a565b5080935050505092915050565b6000818051602081018201805184825260208301602085012081835280955050505050506000915090508060000160009054906101000a900473ffffffffffffffffffffffffffffffffffffffff16908060010160009054906101000a900473ffffffffffffffffffffffffffffffffffffffff16908060020180546133be90614255565b80601f01602080910402602001604051908101604052809291908181526020018280546133ea90614255565b80156134375780601f1061340c57610100808354040283529160200191613437565b820191906000526020600020905b81548152906001019060200180831161341a57829003601f168201915b5050505050908060030160009054906101000a900460ff16908060030160019054906101000a900460ff16908060030160029054906101000a900460ff16908060070154905087565b600082600073ffffffffffffffffffffffffffffffffffffffff166000826040516134ab91906142c2565b908152602001604051809103902060000160009054906101000a900473ffffffffffffffffffffffffffffffffffffffff1673ffffffffffffffffffffffffffffffffffffffff1603613533576040517f08c379a000000000000000000000000000000000000000000000000000000000815260040161352a90614325565b60405180910390fd5b60008460405161354391906142c2565b908152602001604051809103902060030160019054906101000a900460ff1661356f57600191506135e1565b60008460405161357f91906142c2565b908152602001604051809103902060060160008473ffffffffffffffffffffffffffffffffffffffff1673ffffffffffffffffffffffffffffffffffffffff16815260200190815260200160002060000160019054906101000a900460ff1691505b5092915050565b60008082846135f79190614a79565b90508381101561363c576040517f08c379a000000000000000000000000000000000000000000000000000000000815260040161363390615200565b60405180910390fd5b8091505092915050565b600061368883836040518060400160405280601e81526020017f536166654d6174683a207375627472616374696f6e206f766572666c6f770000815250613690565b905092915050565b60008383111582906136d8576040517f08c379a00000000000000000000000000000000000000000000000000000000081526004016136cf91906138d5565b60405180910390fd5b50600083856136e79190614b70565b9050809150509392505050565b82805482825590600052602060002090810192821561373c579160200282015b8281111561373b57825182908161372b9190614978565b5091602001919060010190613714565b5b509050613749919061374d565b5090565b5b8082111561376d57600081816137649190613771565b5060010161374e565b5090565b50805461377d90614255565b6000825580601f1061378f57506137ae565b601f0160209004906000526020600020908101906137ad91906137b1565b5b50565b5b808211156137ca5760008160009055506001016137b2565b5090565b6000604051905090565b600080fd5b600080fd5b6000819050919050565b6137f5816137e2565b811461380057600080fd5b50565b600081359050613812816137ec565b92915050565b60006020828403121561382e5761382d6137d8565b5b600061383c84828501613803565b91505092915050565b600081519050919050565b600082825260208201905092915050565b60005b8381101561387f578082015181840152602081019050613864565b60008484015250505050565b6000601f19601f8301169050919050565b60006138a782613845565b6138b18185613850565b93506138c1818560208601613861565b6138ca8161388b565b840191505092915050565b600060208201905081810360008301526138ef818461389c565b905092915050565b600080fd5b600080fd5b7f4e487b7100000000000000000000000000000000000000000000000000000000600052604160045260246000fd5b6139398261388b565b810181811067ffffffffffffffff8211171561395857613957613901565b5b80604052505050565b600061396b6137ce565b90506139778282613930565b919050565b600067ffffffffffffffff82111561399757613996613901565b5b6139a08261388b565b9050602081019050919050565b82818337600083830152505050565b60006139cf6139ca8461397c565b613961565b9050828152602081018484840111156139eb576139ea6138fc565b5b6139f68482856139ad565b509392505050565b600082601f830112613a1357613a126138f7565b5b8135613a238482602086016139bc565b91505092915050565b600060208284031215613a4257613a416137d8565b5b600082013567ffffffffffffffff811115613a6057613a5f6137dd565b5b613a6c848285016139fe565b91505092915050565b60008060408385031215613a8c57613a8b6137d8565b5b600083013567ffffffffffffffff811115613aaa57613aa96137dd565b5b613ab6858286016139fe565b925050602083013567ffffffffffffffff811115613ad757613ad66137dd565b5b613ae3858286016139fe565b9150509250929050565b613af6816137e2565b82525050565b6000602082019050613b116000830184613aed565b92915050565b600067ffffffffffffffff821115613b3257613b31613901565b5b602082029050602081019050919050565b600080fd5b6000613b5b613b5684613b17565b613961565b90508083825260208201905060208402830185811115613b7e57613b7d613b43565b5b835b81811015613bc557803567ffffffffffffffff811115613ba357613ba26138f7565b5b808601613bb089826139fe565b85526020850194505050602081019050613b80565b5050509392505050565b600082601f830112613be457613be36138f7565b5b8135613bf4848260208601613b48565b91505092915050565b60008115159050919050565b613c1281613bfd565b8114613c1d57600080fd5b50565b600081359050613c2f81613c09565b92915050565b600067ffffffffffffffff821115613c5057613c4f613901565b5b602082029050602081019050919050565b600073ffffffffffffffffffffffffffffffffffffffff82169050919050565b6000613c8c82613c61565b9050919050565b613c9c81613c81565b8114613ca757600080fd5b50565b600081359050613cb981613c93565b92915050565b6000613cd2613ccd84613c35565b613961565b90508083825260208201905060208402830185811115613cf557613cf4613b43565b5b835b81811015613d1e5780613d0a8882613caa565b845260208401935050602081019050613cf7565b5050509392505050565b600082601f830112613d3d57613d3c6138f7565b5b8135613d4d848260208601613cbf565b91505092915050565b600080600080600080600080610100898b031215613d7757613d766137d8565b5b600089013567ffffffffffffffff811115613d9557613d946137dd565b5b613da18b828c016139fe565b985050602089013567ffffffffffffffff811115613dc257613dc16137dd565b5b613dce8b828c016139fe565b975050604089013567ffffffffffffffff811115613def57613dee6137dd565b5b613dfb8b828c01613bcf565b9650506060613e0c8b828c01613803565b9550506080613e1d8b828c01613c20565b94505060a0613e2e8b828c01613c20565b93505060c089013567ffffffffffffffff811115613e4f57613e4e6137dd565b5b613e5b8b828c01613d28565b92505060e0613e6c8b828c01613caa565b9150509295985092959890939650565b60008060408385031215613e9357613e926137d8565b5b6000613ea185828601613803565b9250506020613eb285828601613803565b9150509250929050565b600081519050919050565b600082825260208201905092915050565b6000819050602082019050919050565b600082825260208201905092915050565b6000613f0482613845565b613f0e8185613ee8565b9350613f1e818560208601613861565b613f278161388b565b840191505092915050565b6000613f3e8383613ef9565b905092915050565b6000602082019050919050565b6000613f5e82613ebc565b613f688185613ec7565b935083602082028501613f7a85613ed8565b8060005b85811015613fb65784840389528151613f978582613f32565b9450613fa283613f46565b925060208a01995050600181019050613f7e565b50829750879550505050505092915050565b60006020820190508181036000830152613fe28184613f53565b905092915050565b600080600060608486031215614003576140026137d8565b5b600084013567ffffffffffffffff811115614021576140206137dd565b5b61402d868287016139fe565b935050602084013567ffffffffffffffff81111561404e5761404d6137dd565b5b61405a868287016139fe565b925050604061406b86828701613803565b9150509250925092565b61407e81613c81565b82525050565b60006020820190506140996000830184614075565b92915050565b6000806000606084860312156140b8576140b76137d8565b5b600084013567ffffffffffffffff8111156140d6576140d56137dd565b5b6140e2868287016139fe565b935050602084013567ffffffffffffffff811115614103576141026137dd565b5b61410f868287016139fe565b925050604061412086828701613caa565b9150509250925092565b60008060408385031215614141576141406137d8565b5b600083013567ffffffffffffffff81111561415f5761415e6137dd565b5b61416b858286016139fe565b925050602061417c85828601613caa565b9150509250929050565b61418f81613bfd565b82525050565b600060e0820190506141aa600083018a614075565b6141b76020830189614075565b81810360408301526141c9818861389c565b90506141d86060830187614186565b6141e56080830186614186565b6141f260a0830185614186565b6141ff60c0830184613aed565b98975050505050505050565b60006020820190506142206000830184614186565b92915050565b7f4e487b7100000000000000000000000000000000000000000000000000000000600052602260045260246000fd5b6000600282049050600182168061426d57607f821691505b6020821081036142805761427f614226565b5b50919050565b600081905092915050565b600061429c82613845565b6142a68185614286565b93506142b6818560208601613861565b80840191505092915050565b60006142ce8284614291565b915081905092915050565b7f506f6c6c20646f6573206e6f742065786973742e000000000000000000000000600082015250565b600061430f601483613850565b915061431a826142d9565b602082019050919050565b6000602082019050818103600083015261433e81614302565b9050919050565b7f596f752063616e6e6f7420636861726765206261636b20696620706f6c6c206960008201527f73206f70656e2e00000000000000000000000000000000000000000000000000602082015250565b60006143a1602783613850565b91506143ac82614345565b604082019050919050565b600060208201905081810360008301526143d081614394565b9050919050565b7f4e487b7100000000000000000000000000000000000000000000000000000000600052603260045260246000fd5b600060408201905061441b6000830185614075565b6144286020830184613aed565b9392505050565b60008151905061443e81613c09565b92915050565b60006020828403121561445a576144596137d8565b5b60006144688482850161442f565b91505092915050565b7f5472616e73616374696f6e206661696c65642e00000000000000000000000000600082015250565b60006144a7601383613850565b91506144b282614471565b602082019050919050565b600060208201905081810360008301526144d68161449a565b9050919050565b7f416e6f7468657220706f6c6c20616c7265616479206861732074686174206e6160008201527f6d652e0000000000000000000000000000000000000000000000000000000000602082015250565b6000614539602383613850565b9150614544826144dd565b604082019050919050565b600060208201905081810360008301526145688161452c565b9050919050565b7f596f75206d75737420616c6c6f7720666f72206f6e65206f72206d6f7265207660008201527f6f7465732e000000000000000000000000000000000000000000000000000000602082015250565b60006145cb602583613850565b91506145d68261456f565b604082019050919050565b600060208201905081810360008301526145fa816145be565b9050919050565b7f4e616d65207265736572766174696f6e206661696c65642e0000000000000000600082015250565b6000614637601883613850565b915061464282614601565b602082019050919050565b600060208201905081810360008301526146668161462a565b9050919050565b7f43616e2774206265207072697661746520616e6420616c6c6f77206e6f206f6e60008201527f6500000000000000000000000000000000000000000000000000000000000000602082015250565b60006146c9602183613850565b91506146d48261466d565b604082019050919050565b600060208201905081810360008301526146f8816146bc565b9050919050565b7f43616e2774206265207075626c696320616e6420726573747269637420766f7460008201527f6572732e00000000000000000000000000000000000000000000000000000000602082015250565b600061475b602483613850565b9150614766826146ff565b604082019050919050565b6000602082019050818103600083015261478a8161474e565b9050919050565b50565b60006147a1600083614286565b91506147ac82614791565b600082019050919050565b60006147c282614794565b9150819050919050565b60008190508160005260206000209050919050565b60006020601f8301049050919050565b600082821b905092915050565b60006008830261482e7fffffffffffffffffffffffffffffffffffffffffffffffffffffffffffffffff826147f1565b61483886836147f1565b95508019841693508086168417925050509392505050565b6000819050919050565b600061487561487061486b846137e2565b614850565b6137e2565b9050919050565b6000819050919050565b61488f8361485a565b6148a361489b8261487c565b8484546147fe565b825550505050565b600090565b6148b86148ab565b6148c3818484614886565b505050565b5b818110156148e7576148dc6000826148b0565b6001810190506148c9565b5050565b601f82111561492c576148fd816147cc565b614906846147e1565b81016020851015614915578190505b614929614921856147e1565b8301826148c8565b50505b505050565b600082821c905092915050565b600061494f60001984600802614931565b1980831691505092915050565b6000614968838361493e565b9150826002028217905092915050565b61498182613845565b67ffffffffffffffff81111561499a57614999613901565b5b6149a48254614255565b6149af8282856148eb565b600060209050601f8311600181146149e257600084156149d0578287015190505b6149da858261495c565b865550614a42565b601f1984166149f0866147cc565b60005b82811015614a18578489015182556001820191506020850194506020810190506149f3565b86831015614a355784890151614a31601f89168261493e565b8355505b6001600288020188555050505b505050505050565b7f4e487b7100000000000000000000000000000000000000000000000000000000600052601160045260246000fd5b6000614a84826137e2565b9150614a8f836137e2565b9250828201905080821115614aa757614aa6614a4a565b5b92915050565b6000614ab8826137e2565b915060008203614acb57614aca614a4a565b5b600182039050919050565b60008154614ae381614255565b614aed8186614286565b94506001821660008114614b085760018114614b1d57614b50565b60ff1983168652811515820286019350614b50565b614b26856147cc565b60005b83811015614b4857815481890152600182019150602081019050614b29565b838801955050505b50505092915050565b6000614b658284614ad6565b915081905092915050565b6000614b7b826137e2565b9150614b86836137e2565b9250828203905081811115614b9e57614b9d614a4a565b5b92915050565b6000614baf826137e2565b91507fffffffffffffffffffffffffffffffffffffffffffffffffffffffffffffffff8203614be157614be0614a4a565b5b600182019050919050565b7f506f6c6c20616c726561647920636c6f7365642e000000000000000000000000600082015250565b6000614c22601483613850565b9150614c2d82614bec565b602082019050919050565b60006020820190508181036000830152614c5181614c15565b9050919050565b7f596f7520617265206e6f7420746865206f776e6572206f66207468697320706f60008201527f6c6c2e0000000000000000000000000000000000000000000000000000000000602082015250565b6000614cb4602383613850565b9150614cbf82614c58565b604082019050919050565b60006020820190508181036000830152614ce381614ca7565b9050919050565b7f506f6c6c20646f6573206e6f74206578697374206f7220706f6c6c206973206e60008201527f6f74206f70656e2e000000000000000000000000000000000000000000000000602082015250565b6000614d46602883613850565b9150614d5182614cea565b604082019050919050565b60006020820190508181036000830152614d7581614d39565b9050919050565b7f4e6f7420616e206f7074696f6e00000000000000000000000000000000000000600082015250565b6000614db2600d83613850565b9150614dbd82614d7c565b602082019050919050565b60006020820190508181036000830152614de181614da5565b9050919050565b7f43616e6e6f742068617665203020766f7465732e000000000000000000000000600082015250565b6000614e1e601483613850565b9150614e2982614de8565b602082019050919050565b60006020820190508181036000830152614e4d81614e11565b9050919050565b7f596f7520617265206e6f7420616c6c6f77656420746f20766f74652e00000000600082015250565b6000614e8a601c83613850565b9150614e9582614e54565b602082019050919050565b60006020820190508181036000830152614eb981614e7d565b9050919050565b7f596f7520686176652073706563696669656420746f6f206d75636820766f746560008201527f73207468616e20796f752061726520616c6c6f7765642e000000000000000000602082015250565b6000614f1c603783613850565b9150614f2782614ec0565b604082019050919050565b60006020820190508181036000830152614f4b81614f0f565b9050919050565b600081519050614f61816137ec565b92915050565b600060208284031215614f7d57614f7c6137d8565b5b6000614f8b84828501614f52565b91505092915050565b7f596f7520646f206e6f74206861766520656e6f75676820564f545420636f696e60008201527f732e000000000000000000000000000000000000000000000000000000000000602082015250565b6000614ff0602283613850565b9150614ffb82614f94565b604082019050919050565b6000602082019050818103600083015261501f81614fe3565b9050919050565b600060408201905061503b6000830185614075565b6150486020830184614075565b9392505050565b7f596f7520646964206e6f7420617070726f76652074686520636f6e747261637460008201527f277320616c6c6f77616e63652e00000000000000000000000000000000000000602082015250565b60006150ab602d83613850565b91506150b68261504f565b604082019050919050565b600060208201905081810360008301526150da8161509e565b9050919050565b60006060820190506150f66000830186614075565b6151036020830185614075565b6151106040830184613aed565b949350505050565b60006040820190508181036000830152615132818561389c565b90506151416020830184614075565b9392505050565b7f506f6c6c206973206f70656e2e00000000000000000000000000000000000000600082015250565b600061517e600d83613850565b915061518982615148565b602082019050919050565b600060208201905081810360008301526151ad81615171565b9050919050565b7f536166654d6174683a206164646974696f6e206f766572666c6f770000000000600082015250565b60006151ea601b83613850565b91506151f5826151b4565b602082019050919050565b60006020820190508181036000830152615219816151dd565b905091905056fea26469706673582212204fe15023a4e01e1d341b943ee4a8dbde7ccf1f50526e1af883097b840550dbe064736f6c634300081a0033",
  "linkReferences": {},
  "deployedLinkReferences": {}
}