{
  "_format": "hh-sol-artifact-1",
  "contractName": "VoteDappRegular",
  "sourceName": "contracts/VoteDappRegular.sol",
  "abi": [
    {
      "inputs": [
        {
          "internalType": "address",
          "name": "_token",
          "type": "address"
        },
        {
          "internalType": "address",
          "name": "_storage",
          "type": "address"
        }
      ],
      "stateMutability": "nonpayable",
      "type": "constructor"
    },
    {
      "anonymous": false,
      "inputs": [
        {
          "indexed": true,
          "internalType": "string",
          "name": "_pollName",
          "type": "string"
        },
        {
          "indexed": false,
          "internalType": "address",
          "name": "_owner",
          "type": "address"
        }
      ],
      "name": "pollCreated",
      "type": "event"
    },
    {
      "anonymous": false,
      "inputs": [
        {
          "indexed": true,
          "internalType": "string",
          "name": "_pollName",
          "type": "string"
        }
      ],
      "name": "pollEnded",
      "type": "event"
    },
    {
      "anonymous": false,
      "inputs": [
        {
          "indexed": true,
          "internalType": "string",
          "name": "_pollName",
          "type": "string"
        },
        {
          "indexed": false,
          "internalType": "string",
          "name": "_option",
          "type": "string"
        },
        {
          "indexed": false,
          "internalType": "address",
          "name": "_voter",
          "type": "address"
        }
      ],
      "name": "pollVoted",
      "type": "event"
    },
    {
      "inputs": [
        {
          "internalType": "string",
          "name": "",
          "type": "string"
        }
      ],
      "name": "Polls",
      "outputs": [
        {
          "internalType": "address",
          "name": "owner",
          "type": "address"
        },
        {
          "internalType": "address",
          "name": "recipient",
          "type": "address"
        },
        {
          "internalType": "string",
          "name": "description",
          "type": "string"
        },
        {
          "internalType": "bool",
          "name": "open",
          "type": "bool"
        },
        {
          "internalType": "bool",
          "name": "privatePoll",
          "type": "bool"
        },
        {
          "internalType": "bool",
          "name": "returnMoneyOnCompletion",
          "type": "bool"
        },
        {
          "internalType": "uint256",
          "name": "cost",
          "type": "uint256"
        },
        {
          "internalType": "uint256",
          "name": "maxVotes",
          "type": "uint256"
        }
      ],
      "stateMutability": "view",
      "type": "function"
    },
    {
      "inputs": [
        {
          "internalType": "string",
          "name": "pollName",
          "type": "string"
        }
      ],
      "name": "checkGetYourMoney",
      "outputs": [
        {
          "internalType": "uint256",
          "name": "",
          "type": "uint256"
        }
      ],
      "stateMutability": "view",
      "type": "function"
    },
    {
      "inputs": [
        {
          "internalType": "string",
          "name": "pollName",
          "type": "string"
        },
        {
          "internalType": "string",
          "name": "description",
          "type": "string"
        },
        {
          "internalType": "string[]",
          "name": "toptions",
          "type": "string[]"
        },
        {
          "internalType": "uint256",
          "name": "maxVotes",
          "type": "uint256"
        },
        {
          "internalType": "uint256",
          "name": "votecost",
          "type": "uint256"
        },
        {
          "internalType": "bool",
          "name": "returnMoneyOnCompletion",
          "type": "bool"
        },
        {
          "internalType": "bool",
          "name": "privatePoll",
          "type": "bool"
        },
        {
          "internalType": "address[]",
          "name": "allowedVoters",
          "type": "address[]"
        },
        {
          "internalType": "address",
          "name": "recipient",
          "type": "address"
        }
      ],
      "name": "createPoll",
      "outputs": [],
      "stateMutability": "nonpayable",
      "type": "function"
    },
    {
      "inputs": [
        {
          "internalType": "string",
          "name": "pollName",
          "type": "string"
        }
      ],
      "name": "endPoll",
      "outputs": [],
      "stateMutability": "nonpayable",
      "type": "function"
    },
    {
      "inputs": [
        {
          "internalType": "string",
          "name": "pollName",
          "type": "string"
        }
      ],
      "name": "getPollDescription",
      "outputs": [
        {
          "internalType": "string",
          "name": "",
          "type": "string"
        }
      ],
      "stateMutability": "view",
      "type": "function"
    },
    {
      "inputs": [],
      "name": "getPollList",
      "outputs": [
        {
          "internalType": "string[]",
          "name": "",
          "type": "string[]"
        }
      ],
      "stateMutability": "view",
      "type": "function"
    },
    {
      "inputs": [
        {
          "internalType": "string",
          "name": "pollName",
          "type": "string"
        }
      ],
      "name": "getPollOwner",
      "outputs": [
        {
          "internalType": "address",
          "name": "",
          "type": "address"
        }
      ],
      "stateMutability": "view",
      "type": "function"
    },
    {
      "inputs": [
        {
          "internalType": "string",
          "name": "pollName",
          "type": "string"
        }
      ],
      "name": "getYourMoney",
      "outputs": [],
      "stateMutability": "nonpayable",
      "type": "function"
    },
    {
      "inputs": [
        {
          "internalType": "string",
          "name": "pollName",
          "type": "string"
        },
        {
          "internalType": "address",
          "name": "voter",
          "type": "address"
        }
      ],
      "name": "isAllowedToVote",
      "outputs": [
        {
          "internalType": "bool",
          "name": "",
          "type": "bool"
        }
      ],
      "stateMutability": "view",
      "type": "function"
    },
    {
      "inputs": [
        {
          "internalType": "uint256",
          "name": "",
          "type": "uint256"
        }
      ],
      "name": "listofPolls",
      "outputs": [
        {
          "internalType": "string",
          "name": "",
          "type": "string"
        }
      ],
      "stateMutability": "view",
      "type": "function"
    },
    {
      "inputs": [
        {
          "internalType": "string",
          "name": "pollName",
          "type": "string"
        },
        {
          "internalType": "string",
          "name": "option",
          "type": "string"
        }
      ],
      "name": "requestOptionVotes",
      "outputs": [
        {
          "internalType": "uint256",
          "name": "",
          "type": "uint256"
        }
      ],
      "stateMutability": "view",
      "type": "function"
    },
    {
      "inputs": [
        {
          "internalType": "string",
          "name": "pollName",
          "type": "string"
        }
      ],
      "name": "requestOptions",
      "outputs": [
        {
          "internalType": "string[]",
          "name": "",
          "type": "string[]"
        }
      ],
      "stateMutability": "view",
      "type": "function"
    },
    {
      "inputs": [
        {
          "internalType": "string",
          "name": "pollName",
          "type": "string"
        }
      ],
      "name": "requestWinner",
      "outputs": [
        {
          "internalType": "string[]",
          "name": "",
          "type": "string[]"
        }
      ],
      "stateMutability": "view",
      "type": "function"
    },
    {
      "inputs": [
        {
          "internalType": "string",
          "name": "pollName",
          "type": "string"
        },
        {
          "internalType": "string",
          "name": "option",
          "type": "string"
        },
        {
          "internalType": "address",
          "name": "voter",
          "type": "address"
        }
      ],
      "name": "trackSpecificVotes",
      "outputs": [
        {
          "internalType": "uint256",
          "name": "",
          "type": "uint256"
        }
      ],
      "stateMutability": "view",
      "type": "function"
    },
    {
      "inputs": [
        {
          "internalType": "string",
          "name": "pollName",
          "type": "string"
        },
        {
          "internalType": "address",
          "name": "voter",
          "type": "address"
        }
      ],
      "name": "trackTotalVotes",
      "outputs": [
        {
          "internalType": "uint256",
          "name": "",
          "type": "uint256"
        }
      ],
      "stateMutability": "view",
      "type": "function"
    },
    {
      "inputs": [
        {
          "internalType": "string",
          "name": "pollName",
          "type": "string"
        },
        {
          "internalType": "string",
          "name": "option",
          "type": "string"
        },
        {
          "internalType": "uint256",
          "name": "votes",
          "type": "uint256"
        }
      ],
      "name": "vote",
      "outputs": [],
      "stateMutability": "nonpayable",
      "type": "function"
    }
  ],
  "bytecode": "0x608060405234801561001057600080fd5b506040516157663803806157668339818101604052810190610032919061011e565b81600260006101000a81548173ffffffffffffffffffffffffffffffffffffffff021916908373ffffffffffffffffffffffffffffffffffffffff16021790555080600360006101000a81548173ffffffffffffffffffffffffffffffffffffffff021916908373ffffffffffffffffffffffffffffffffffffffff160217905550505061015e565b600080fd5b600073ffffffffffffffffffffffffffffffffffffffff82169050919050565b60006100eb826100c0565b9050919050565b6100fb816100e0565b811461010657600080fd5b50565b600081519050610118816100f2565b92915050565b60008060408385031215610135576101346100bb565b5b600061014385828601610109565b925050602061015485828601610109565b9150509250929050565b6155f98061016d6000396000f3fe608060405234801561001057600080fd5b50600436106101005760003560e01c80636f3ea48c11610097578063ad27106b11610066578063ad27106b146102e3578063b81d5a9614610313578063d499b29914610343578063e8692c611461037a57610100565b80636f3ea48c146102375780637a4c96ad1461026757806385bf544b1461028357806394d5cbfd146102b357610100565b80634ac3b118116100d35780634ac3b118146101b157806354a9ac5e146101cd57806363511325146101fd5780636a506c221461021957610100565b80631b8f20e814610105578063299c4491146101355780632adf51f2146101515780633333765014610181575b600080fd5b61011f600480360381019061011a9190613a3d565b6103aa565b60405161012c9190613afa565b60405180910390f35b61014f600480360381019061014a9190613c51565b610456565b005b61016b60048036038101906101669190613c9a565b610add565b6040516101789190613d21565b60405180910390f35b61019b60048036038101906101969190613d9a565b610dad565b6040516101a89190613d21565b60405180910390f35b6101cb60048036038101906101c69190614006565b6110bb565b005b6101e760048036038101906101e29190613c51565b6116e8565b6040516101f4919061424c565b60405180910390f35b61021760048036038101906102129190613c51565b611b4b565b005b610221611ff1565b60405161022e919061424c565b60405180910390f35b610251600480360381019061024c9190613c51565b6120ca565b60405161025e9190613afa565b60405180910390f35b610281600480360381019061027c919061426e565b61222f565b005b61029d600480360381019061029891906142f9565b612bd5565b6040516102aa9190613d21565b60405180910390f35b6102cd60048036038101906102c89190613c51565b612e4f565b6040516102da9190613d21565b60405180910390f35b6102fd60048036038101906102f89190613c51565b6132e8565b60405161030a9190614364565b60405180910390f35b61032d60048036038101906103289190613c51565b613332565b60405161033a919061424c565b60405180910390f35b61035d60048036038101906103589190613c51565b6134de565b60405161037198979695949392919061438e565b60405180910390f35b610394600480360381019061038f91906142f9565b61362b565b6040516103a19190614413565b60405180910390f35b600181815481106103ba57600080fd5b9060005260206000200160009150905080546103d59061445d565b80601f01602080910402602001604051908101604052809291908181526020018280546104019061445d565b801561044e5780601f106104235761010080835404028352916020019161044e565b820191906000526020600020905b81548152906001019060200180831161043157829003601f168201915b505050505081565b80600073ffffffffffffffffffffffffffffffffffffffff1660008260405161047f91906144ca565b908152602001604051809103902060000160009054906101000a900473ffffffffffffffffffffffffffffffffffffffff1673ffffffffffffffffffffffffffffffffffffffff1603610507576040517f08c379a00000000000000000000000000000000000000000000000000000000081526004016104fe9061452d565b60405180910390fd5b60008260405161051791906144ca565b908152602001604051809103902060030160009054906101000a900460ff1615610576576040517f08c379a000000000000000000000000000000000000000000000000000000000815260040161056d906145bf565b60405180910390fd5b6000808360405161058791906144ca565b908152602001604051809103902060070154116105d9576040517f08c379a00000000000000000000000000000000000000000000000000000000081526004016105d09061462b565b60405180910390fd5b6000826040516105e991906144ca565b908152602001604051809103902060060160003373ffffffffffffffffffffffffffffffffffffffff1673ffffffffffffffffffffffffffffffffffffffff16815260200190815260200160002060000160009054906101000a900460ff1615610688576040517f08c379a000000000000000000000000000000000000000000000000000000000815260040161067f90614697565b60405180910390fd5b600160008360405161069a91906144ca565b908152602001604051809103902060060160003373ffffffffffffffffffffffffffffffffffffffff1673ffffffffffffffffffffffffffffffffffffffff16815260200190815260200160002060000160006101000a81548160ff0219169083151502179055506000808360405161071391906144ca565b9081526020016040518091039020600401805480602002602001604051908101604052809291908181526020016000905b828210156107f05783829060005260206000200180546107639061445d565b80601f016020809104026020016040519081016040528092919081815260200182805461078f9061445d565b80156107dc5780601f106107b1576101008083540402835291602001916107dc565b820191906000526020600020905b8154815290600101906020018083116107bf57829003601f168201915b505050505081526020019060010190610744565b5050505090506000805b82518110156108bc576108ad60008660405161081691906144ca565b908152602001604051809103902060050184838151811061083a576108396146b7565b5b602002602001015160405161084f91906144ca565b908152602001604051809103902060010160003373ffffffffffffffffffffffffffffffffffffffff1673ffffffffffffffffffffffffffffffffffffffff168152602001908152602001600020548361379390919063ffffffff16565b915080806001019150506107fa565b5060006108c8856116e8565b90506000856040516108da91906144ca565b908152602001604051809103902060030160029054906101000a900460ff166109c45760005b81518110156109c2576109b360008760405161091c91906144ca565b90815260200160405180910390206005018383815181106109405761093f6146b7565b5b602002602001015160405161095591906144ca565b908152602001604051809103902060010160003373ffffffffffffffffffffffffffffffffffffffff1673ffffffffffffffffffffffffffffffffffffffff16815260200190815260200160002054846137f190919063ffffffff16565b92508080600101915050610900565b505b600260009054906101000a900473ffffffffffffffffffffffffffffffffffffffff1673ffffffffffffffffffffffffffffffffffffffff1663a9059cbb33610a37600089604051610a1691906144ca565b9081526020016040518091039020600701548661383b90919063ffffffff16565b6040518363ffffffff1660e01b8152600401610a549291906146e6565b6020604051808303816000875af1158015610a73573d6000803e3d6000fd5b505050506040513d601f19601f82011682018060405250810190610a979190614724565b610ad6576040517f08c379a0000000000000000000000000000000000000000000000000000000008152600401610acd9061479d565b60405180910390fd5b5050505050565b600082600073ffffffffffffffffffffffffffffffffffffffff16600082604051610b0891906144ca565b908152602001604051809103902060000160009054906101000a900473ffffffffffffffffffffffffffffffffffffffff1673ffffffffffffffffffffffffffffffffffffffff1603610b90576040517f08c379a0000000000000000000000000000000000000000000000000000000008152600401610b879061452d565b60405180910390fd5b60008085604051610ba191906144ca565b9081526020016040518091039020600401805480602002602001604051908101604052809291908181526020016000905b82821015610c7e578382906000526020600020018054610bf19061445d565b80601f0160208091040260200160405190810160405280929190818152602001828054610c1d9061445d565b8015610c6a5780601f10610c3f57610100808354040283529160200191610c6a565b820191906000526020600020905b815481529060010190602001808311610c4d57829003601f168201915b505050505081526020019060010190610bd2565b50505050905060005b8151811015610d615784604051602001610ca191906144ca565b60405160208183030381529060405280519060200120828281518110610cca57610cc96146b7565b5b6020026020010151604051602001610ce291906144ca565b604051602081830303815290604052805190602001200315610d6157610d13600183516137f190919063ffffffff16565b8103610d54576040517f08c379a0000000000000000000000000000000000000000000000000000000008152600401610d4b90614809565b60405180910390fd5b8080600101915050610c87565b50600085604051610d7291906144ca565b908152602001604051809103902060050184604051610d9191906144ca565b9081526020016040518091039020600001549250505092915050565b600083600073ffffffffffffffffffffffffffffffffffffffff16600082604051610dd891906144ca565b908152602001604051809103902060000160009054906101000a900473ffffffffffffffffffffffffffffffffffffffff1673ffffffffffffffffffffffffffffffffffffffff1603610e60576040517f08c379a0000000000000000000000000000000000000000000000000000000008152600401610e579061452d565b60405180910390fd5b60008086604051610e7191906144ca565b9081526020016040518091039020600401805480602002602001604051908101604052809291908181526020016000905b82821015610f4e578382906000526020600020018054610ec19061445d565b80601f0160208091040260200160405190810160405280929190818152602001828054610eed9061445d565b8015610f3a5780601f10610f0f57610100808354040283529160200191610f3a565b820191906000526020600020905b815481529060010190602001808311610f1d57829003601f168201915b505050505081526020019060010190610ea2565b50505050905060005b81518110156110315785604051602001610f7191906144ca565b60405160208183030381529060405280519060200120828281518110610f9a57610f996146b7565b5b6020026020010151604051602001610fb291906144ca565b60405160208183030381529060405280519060200120031561103157610fe3600183516137f190919063ffffffff16565b8103611024576040517f08c379a000000000000000000000000000000000000000000000000000000000815260040161101b90614809565b60405180910390fd5b8080600101915050610f57565b5060008660405161104291906144ca565b90815260200160405180910390206005018560405161106191906144ca565b908152602001604051809103902060010160008573ffffffffffffffffffffffffffffffffffffffff1673ffffffffffffffffffffffffffffffffffffffff16815260200190815260200160002054925050509392505050565b600073ffffffffffffffffffffffffffffffffffffffff1660008a6040516110e391906144ca565b908152602001604051809103902060000160009054906101000a900473ffffffffffffffffffffffffffffffffffffffff1673ffffffffffffffffffffffffffffffffffffffff161461116b576040517f08c379a00000000000000000000000000000000000000000000000000000000081526004016111629061489b565b60405180910390fd5b60018610156111af576040517f08c379a00000000000000000000000000000000000000000000000000000000081526004016111a69061492d565b60405180910390fd5b600360009054906101000a900473ffffffffffffffffffffffffffffffffffffffff1673ffffffffffffffffffffffffffffffffffffffff166311456b478a6040518263ffffffff1660e01b815260040161120a9190613afa565b6020604051808303816000875af1158015611229573d6000803e3d6000fd5b505050506040513d601f19601f8201168201806040525081019061124d9190614724565b61128c576040517f08c379a000000000000000000000000000000000000000000000000000000000815260040161128390614999565b60405180910390fd5b82156113c35760008251116112d6576040517f08c379a00000000000000000000000000000000000000000000000000000000081526004016112cd90614a2b565b60405180910390fd5b600160008a6040516112e891906144ca565b908152602001604051809103902060030160016101000a81548160ff02191690831515021790555060005b82518110156113bd57600160008b60405161132e91906144ca565b90815260200160405180910390206006016000858481518110611354576113536146b7565b5b602002602001015173ffffffffffffffffffffffffffffffffffffffff1673ffffffffffffffffffffffffffffffffffffffff16815260200190815260200160002060000160016101000a81548160ff0219169083151502179055508080600101915050611313565b50611408565b6000825114611407576040517f08c379a00000000000000000000000000000000000000000000000000000000081526004016113fe90614abd565b60405180910390fd5b5b3360008a60405161141991906144ca565b908152602001604051809103902060000160006101000a81548173ffffffffffffffffffffffffffffffffffffffff021916908373ffffffffffffffffffffffffffffffffffffffff16021790555060405160200161147790614b03565b604051602081830303815290604052805190602001208860405160200161149e91906144ca565b60405160208183030381529060405280519060200120146114e9578760008a6040516114ca91906144ca565b908152602001604051809103902060020190816114e79190614cc4565b505b8560008a6040516114fa91906144ca565b9081526020016040518091039020600801819055508660008a60405161152091906144ca565b90815260200160405180910390206004019080519060200190611544929190613919565b506000851115611621578460008a60405161155f91906144ca565b90815260200160405180910390206007018190555060011515841515036115bf57600160008a60405161159291906144ca565b908152602001604051809103902060030160026101000a81548160ff021916908315150217905550611620565b8060008a6040516115d091906144ca565b908152602001604051809103902060010160006101000a81548173ffffffffffffffffffffffffffffffffffffffff021916908373ffffffffffffffffffffffffffffffffffffffff1602179055505b5b600160008a60405161163391906144ca565b908152602001604051809103902060030160006101000a81548160ff02191690831515021790555060018990806001815401808255809150506001900390600052602060002001600090919091909150908161168f9190614cc4565b508860405161169e91906144ca565b60405180910390207ffde17daabe48b554ebb28deab1885c922b8c13373b7281fa54b1244b22356b36336040516116d59190614364565b60405180910390a2505050505050505050565b606081600073ffffffffffffffffffffffffffffffffffffffff1660008260405161171391906144ca565b908152602001604051809103902060000160009054906101000a900473ffffffffffffffffffffffffffffffffffffffff1673ffffffffffffffffffffffffffffffffffffffff160361179b576040517f08c379a00000000000000000000000000000000000000000000000000000000081526004016117929061452d565b60405180910390fd5b600080846040516117ac91906144ca565b90815260200160405180910390206004018054905067ffffffffffffffff8111156117da576117d9613b26565b5b6040519080825280602002602001820160405280156118085781602001602082028036833780820191505090505b50905060005b81518110156118c05760008560405161182791906144ca565b908152602001604051809103902060050160008660405161184891906144ca565b9081526020016040518091039020600401828154811061186b5761186a6146b7565b5b906000526020600020016040516118829190614e19565b9081526020016040518091039020600001548282815181106118a7576118a66146b7565b5b602002602001018181525050808060010191505061180e565b506000805b825181101561191b578281815181106118e1576118e06146b7565b5b602002602001015182101561190e57828181518110611903576119026146b7565b5b602002602001015191505b80806001019150506118c5565b506000808660405161192d91906144ca565b90815260200160405180910390206004018054905067ffffffffffffffff81111561195b5761195a613b26565b5b60405190808252806020026020018201604052801561198e57816020015b60608152602001906001900390816119795790505b509050600082036119a457809450505050611b45565b6000805b8451811015611b3c576000886040516119c191906144ca565b90815260200160405180910390206005016000896040516119e291906144ca565b90815260200160405180910390206004018281548110611a0557611a046146b7565b5b90600052602060002001604051611a1c9190614e19565b9081526020016040518091039020600001548403611b2f57600088604051611a4491906144ca565b90815260200160405180910390206004018181548110611a6757611a666146b7565b5b906000526020600020018054611a7c9061445d565b80601f0160208091040260200160405190810160405280929190818152602001828054611aa89061445d565b8015611af55780601f10611aca57610100808354040283529160200191611af5565b820191906000526020600020905b815481529060010190602001808311611ad857829003601f168201915b5050505050838381518110611b0d57611b0c6146b7565b5b6020026020010181905250611b2c60018361379390919063ffffffff16565b91505b80806001019150506119a8565b50819550505050505b50919050565b80600073ffffffffffffffffffffffffffffffffffffffff16600082604051611b7491906144ca565b908152602001604051809103902060000160009054906101000a900473ffffffffffffffffffffffffffffffffffffffff1673ffffffffffffffffffffffffffffffffffffffff1603611bfc576040517f08c379a0000000000000000000000000000000000000000000000000000000008152600401611bf39061452d565b60405180910390fd5b600082604051611c0c91906144ca565b908152602001604051809103902060030160009054906101000a900460ff16611c6a576040517f08c379a0000000000000000000000000000000000000000000000000000000008152600401611c6190614e7c565b60405180910390fd5b3373ffffffffffffffffffffffffffffffffffffffff16600083604051611c9191906144ca565b908152602001604051809103902060000160009054906101000a900473ffffffffffffffffffffffffffffffffffffffff1673ffffffffffffffffffffffffffffffffffffffff1614611d19576040517f08c379a0000000000000000000000000000000000000000000000000000000008152600401611d1090614f0e565b60405180910390fd5b60008083604051611d2a91906144ca565b908152602001604051809103902060030160006101000a81548160ff02191690831515021790555060008083604051611d6391906144ca565b908152602001604051809103902060070154118015611db4575060001515600083604051611d9191906144ca565b908152602001604051809103902060030160029054906101000a900460ff161515145b15611fab576000611dc4836116e8565b90506000805b8251811015611e4f57611e40600086604051611de691906144ca565b9081526020016040518091039020600501848381518110611e0a57611e096146b7565b5b6020026020010151604051611e1f91906144ca565b9081526020016040518091039020600001548361379390919063ffffffff16565b91508080600101915050611dca565b5060008085604051611e6191906144ca565b908152602001604051809103902060010160009054906101000a900473ffffffffffffffffffffffffffffffffffffffff169050600260009054906101000a900473ffffffffffffffffffffffffffffffffffffffff1673ffffffffffffffffffffffffffffffffffffffff1663a9059cbb82611f08600089604051611ee791906144ca565b9081526020016040518091039020600701548661383b90919063ffffffff16565b6040518363ffffffff1660e01b8152600401611f259291906146e6565b6020604051808303816000875af1158015611f44573d6000803e3d6000fd5b505050506040513d601f19601f82011682018060405250810190611f689190614724565b611fa7576040517f08c379a0000000000000000000000000000000000000000000000000000000008152600401611f9e9061479d565b60405180910390fd5b5050505b81604051611fb991906144ca565b60405180910390207fa00a67652459c6dfc10b09a6811992aba29bf54e23a7b7c81a7b324d4e3994be60405160405180910390a25050565b60606001805480602002602001604051908101604052809291908181526020016000905b828210156120c15783829060005260206000200180546120349061445d565b80601f01602080910402602001604051908101604052809291908181526020018280546120609061445d565b80156120ad5780601f10612082576101008083540402835291602001916120ad565b820191906000526020600020905b81548152906001019060200180831161209057829003601f168201915b505050505081526020019060010190612015565b50505050905090565b606081600073ffffffffffffffffffffffffffffffffffffffff166000826040516120f591906144ca565b908152602001604051809103902060000160009054906101000a900473ffffffffffffffffffffffffffffffffffffffff1673ffffffffffffffffffffffffffffffffffffffff160361217d576040517f08c379a00000000000000000000000000000000000000000000000000000000081526004016121749061452d565b60405180910390fd5b60008360405161218d91906144ca565b908152602001604051809103902060020180546121a99061445d565b80601f01602080910402602001604051908101604052809291908181526020018280546121d59061445d565b80156122225780601f106121f757610100808354040283529160200191612222565b820191906000526020600020905b81548152906001019060200180831161220557829003601f168201915b5050505050915050919050565b60008360405161223f91906144ca565b908152602001604051809103902060030160009054906101000a900460ff1661229d576040517f08c379a000000000000000000000000000000000000000000000000000000000815260040161229490614fa0565b60405180910390fd5b600080846040516122ae91906144ca565b9081526020016040518091039020600401805480602002602001604051908101604052809291908181526020016000905b8282101561238b5783829060005260206000200180546122fe9061445d565b80601f016020809104026020016040519081016040528092919081815260200182805461232a9061445d565b80156123775780601f1061234c57610100808354040283529160200191612377565b820191906000526020600020905b81548152906001019060200180831161235a57829003601f168201915b5050505050815260200190600101906122df565b50505050905060005b815181101561246e57836040516020016123ae91906144ca565b604051602081830303815290604052805190602001208282815181106123d7576123d66146b7565b5b60200260200101516040516020016123ef91906144ca565b60405160208183030381529060405280519060200120031561246e57612420600183516137f190919063ffffffff16565b8103612461576040517f08c379a000000000000000000000000000000000000000000000000000000000815260040161245890614809565b60405180910390fd5b8080600101915050612394565b50600082116124b2576040517f08c379a00000000000000000000000000000000000000000000000000000000081526004016124a99061500c565b60405180910390fd5b6000846040516124c291906144ca565b908152602001604051809103902060030160019054906101000a900460ff1615612595576000846040516124f691906144ca565b908152602001604051809103902060060160003373ffffffffffffffffffffffffffffffffffffffff1673ffffffffffffffffffffffffffffffffffffffff16815260200190815260200160002060000160019054906101000a900460ff16612594576040517f08c379a000000000000000000000000000000000000000000000000000000000815260040161258b90615078565b60405180910390fd5b5b6000805b825181101561265b5761264c6000876040516125b591906144ca565b90815260200160405180910390206005018483815181106125d9576125d86146b7565b5b60200260200101516040516125ee91906144ca565b908152602001604051809103902060010160003373ffffffffffffffffffffffffffffffffffffffff1673ffffffffffffffffffffffffffffffffffffffff168152602001908152602001600020548361379390919063ffffffff16565b91508080600101915050612599565b5061266f838261379390919063ffffffff16565b905060008560405161268191906144ca565b9081526020016040518091039020600801548111156126d5576040517f08c379a00000000000000000000000000000000000000000000000000000000081526004016126cc9061510a565b60405180910390fd5b600080866040516126e691906144ca565b90815260200160405180910390206007015411156129d75760006127348460008860405161271491906144ca565b90815260200160405180910390206007015461383b90919063ffffffff16565b905080600260009054906101000a900473ffffffffffffffffffffffffffffffffffffffff1673ffffffffffffffffffffffffffffffffffffffff166370a08231336040518263ffffffff1660e01b81526004016127929190614364565b602060405180830381865afa1580156127af573d6000803e3d6000fd5b505050506040513d601f19601f820116820180604052508101906127d3919061513f565b1015612814576040517f08c379a000000000000000000000000000000000000000000000000000000000815260040161280b906151de565b60405180910390fd5b80600260009054906101000a900473ffffffffffffffffffffffffffffffffffffffff1673ffffffffffffffffffffffffffffffffffffffff1663dd62ed3e33306040518363ffffffff1660e01b81526004016128729291906151fe565b602060405180830381865afa15801561288f573d6000803e3d6000fd5b505050506040513d601f19601f820116820180604052508101906128b3919061513f565b10156128f4576040517f08c379a00000000000000000000000000000000000000000000000000000000081526004016128eb90615299565b60405180910390fd5b600260009054906101000a900473ffffffffffffffffffffffffffffffffffffffff1673ffffffffffffffffffffffffffffffffffffffff166323b872dd3330846040518463ffffffff1660e01b8152600401612953939291906152b9565b6020604051808303816000875af1158015612972573d6000803e3d6000fd5b505050506040513d601f19601f820116820180604052508101906129969190614724565b6129d5576040517f08c379a00000000000000000000000000000000000000000000000000000000081526004016129cc9061479d565b60405180910390fd5b505b612a67836000876040516129eb91906144ca565b908152602001604051809103902060050186604051612a0a91906144ca565b908152602001604051809103902060010160003373ffffffffffffffffffffffffffffffffffffffff1673ffffffffffffffffffffffffffffffffffffffff1681526020019081526020016000205461379390919063ffffffff16565b600086604051612a7791906144ca565b908152602001604051809103902060050185604051612a9691906144ca565b908152602001604051809103902060010160003373ffffffffffffffffffffffffffffffffffffffff1673ffffffffffffffffffffffffffffffffffffffff16815260200190815260200160002081905550612b3b83600087604051612afc91906144ca565b908152602001604051809103902060050186604051612b1b91906144ca565b90815260200160405180910390206000015461379390919063ffffffff16565b600086604051612b4b91906144ca565b908152602001604051809103902060050185604051612b6a91906144ca565b90815260200160405180910390206000018190555084604051612b8d91906144ca565b60405180910390207f709cc456c2be834035f2c7655ccd34b1cdd97b374537807e49ce05afb2bbdcf28533604051612bc69291906152f0565b60405180910390a25050505050565b600082600073ffffffffffffffffffffffffffffffffffffffff16600082604051612c0091906144ca565b908152602001604051809103902060000160009054906101000a900473ffffffffffffffffffffffffffffffffffffffff1673ffffffffffffffffffffffffffffffffffffffff1603612c88576040517f08c379a0000000000000000000000000000000000000000000000000000000008152600401612c7f9061452d565b60405180910390fd5b60008085604051612c9991906144ca565b9081526020016040518091039020600401805480602002602001604051908101604052809291908181526020016000905b82821015612d76578382906000526020600020018054612ce99061445d565b80601f0160208091040260200160405190810160405280929190818152602001828054612d159061445d565b8015612d625780601f10612d3757610100808354040283529160200191612d62565b820191906000526020600020905b815481529060010190602001808311612d4557829003601f168201915b505050505081526020019060010190612cca565b5050505090506000805b8251811015612e4257612e33600088604051612d9c91906144ca565b9081526020016040518091039020600501848381518110612dc057612dbf6146b7565b5b6020026020010151604051612dd591906144ca565b908152602001604051809103902060010160008873ffffffffffffffffffffffffffffffffffffffff1673ffffffffffffffffffffffffffffffffffffffff168152602001908152602001600020548361379390919063ffffffff16565b91508080600101915050612d80565b5080935050505092915050565b600081600073ffffffffffffffffffffffffffffffffffffffff16600082604051612e7a91906144ca565b908152602001604051809103902060000160009054906101000a900473ffffffffffffffffffffffffffffffffffffffff1673ffffffffffffffffffffffffffffffffffffffff1603612f02576040517f08c379a0000000000000000000000000000000000000000000000000000000008152600401612ef99061452d565b60405180910390fd5b600083604051612f1291906144ca565b908152602001604051809103902060030160009054906101000a900460ff1615612f71576040517f08c379a0000000000000000000000000000000000000000000000000000000008152600401612f689061536c565b60405180910390fd5b600083604051612f8191906144ca565b908152602001604051809103902060060160003373ffffffffffffffffffffffffffffffffffffffff1673ffffffffffffffffffffffffffffffffffffffff16815260200190815260200160002060000160009054906101000a900460ff168061300b575060008084604051612ff791906144ca565b908152602001604051809103902060070154145b1561301957600091506132e2565b6000808460405161302a91906144ca565b9081526020016040518091039020600401805480602002602001604051908101604052809291908181526020016000905b8282101561310757838290600052602060002001805461307a9061445d565b80601f01602080910402602001604051908101604052809291908181526020018280546130a69061445d565b80156130f35780601f106130c8576101008083540402835291602001916130f3565b820191906000526020600020905b8154815290600101906020018083116130d657829003601f168201915b50505050508152602001906001019061305b565b5050505090506000805b82518110156131d3576131c460008760405161312d91906144ca565b9081526020016040518091039020600501848381518110613151576131506146b7565b5b602002602001015160405161316691906144ca565b908152602001604051809103902060010160003373ffffffffffffffffffffffffffffffffffffffff1673ffffffffffffffffffffffffffffffffffffffff168152602001908152602001600020548361379390919063ffffffff16565b91508080600101915050613111565b5060006131df866116e8565b90506000866040516131f191906144ca565b908152602001604051809103902060030160029054906101000a900460ff166132db5760005b81518110156132d9576132ca60008860405161323391906144ca565b9081526020016040518091039020600501838381518110613257576132566146b7565b5b602002602001015160405161326c91906144ca565b908152602001604051809103902060010160003373ffffffffffffffffffffffffffffffffffffffff1673ffffffffffffffffffffffffffffffffffffffff16815260200190815260200160002054846137f190919063ffffffff16565b92508080600101915050613217565b505b8194505050505b50919050565b600080826040516132f991906144ca565b908152602001604051809103902060000160009054906101000a900473ffffffffffffffffffffffffffffffffffffffff169050919050565b606081600073ffffffffffffffffffffffffffffffffffffffff1660008260405161335d91906144ca565b908152602001604051809103902060000160009054906101000a900473ffffffffffffffffffffffffffffffffffffffff1673ffffffffffffffffffffffffffffffffffffffff16036133e5576040517f08c379a00000000000000000000000000000000000000000000000000000000081526004016133dc9061452d565b60405180910390fd5b6000836040516133f591906144ca565b9081526020016040518091039020600401805480602002602001604051908101604052809291908181526020016000905b828210156134d25783829060005260206000200180546134459061445d565b80601f01602080910402602001604051908101604052809291908181526020018280546134719061445d565b80156134be5780601f10613493576101008083540402835291602001916134be565b820191906000526020600020905b8154815290600101906020018083116134a157829003601f168201915b505050505081526020019060010190613426565b50505050915050919050565b6000818051602081018201805184825260208301602085012081835280955050505050506000915090508060000160009054906101000a900473ffffffffffffffffffffffffffffffffffffffff16908060010160009054906101000a900473ffffffffffffffffffffffffffffffffffffffff16908060020180546135639061445d565b80601f016020809104026020016040519081016040528092919081815260200182805461358f9061445d565b80156135dc5780601f106135b1576101008083540402835291602001916135dc565b820191906000526020600020905b8154815290600101906020018083116135bf57829003601f168201915b5050505050908060030160009054906101000a900460ff16908060030160019054906101000a900460ff16908060030160029054906101000a900460ff16908060070154908060080154905088565b600082600073ffffffffffffffffffffffffffffffffffffffff1660008260405161365691906144ca565b908152602001604051809103902060000160009054906101000a900473ffffffffffffffffffffffffffffffffffffffff1673ffffffffffffffffffffffffffffffffffffffff16036136de576040517f08c379a00000000000000000000000000000000000000000000000000000000081526004016136d59061452d565b60405180910390fd5b6000846040516136ee91906144ca565b908152602001604051809103902060030160019054906101000a900460ff1661371a576001915061378c565b60008460405161372a91906144ca565b908152602001604051809103902060060160008473ffffffffffffffffffffffffffffffffffffffff1673ffffffffffffffffffffffffffffffffffffffff16815260200190815260200160002060000160019054906101000a900460ff1691505b5092915050565b60008082846137a291906153bb565b9050838110156137e7576040517f08c379a00000000000000000000000000000000000000000000000000000000081526004016137de9061543b565b60405180910390fd5b8091505092915050565b600061383383836040518060400160405280601e81526020017f536166654d6174683a207375627472616374696f6e206f766572666c6f7700008152506138b5565b905092915050565b600080830361384d57600090506138af565b6000828461385b919061545b565b905082848261386a91906154cc565b146138aa576040517f08c379a00000000000000000000000000000000000000000000000000000000081526004016138a19061556f565b60405180910390fd5b809150505b92915050565b60008383111582906138fd576040517f08c379a00000000000000000000000000000000000000000000000000000000081526004016138f49190613afa565b60405180910390fd5b506000838561390c919061558f565b9050809150509392505050565b828054828255906000526020600020908101928215613961579160200282015b828111156139605782518290816139509190614cc4565b5091602001919060010190613939565b5b50905061396e9190613972565b5090565b5b8082111561399257600081816139899190613996565b50600101613973565b5090565b5080546139a29061445d565b6000825580601f106139b457506139d3565b601f0160209004906000526020600020908101906139d291906139d6565b5b50565b5b808211156139ef5760008160009055506001016139d7565b5090565b6000604051905090565b600080fd5b600080fd5b6000819050919050565b613a1a81613a07565b8114613a2557600080fd5b50565b600081359050613a3781613a11565b92915050565b600060208284031215613a5357613a526139fd565b5b6000613a6184828501613a28565b91505092915050565b600081519050919050565b600082825260208201905092915050565b60005b83811015613aa4578082015181840152602081019050613a89565b60008484015250505050565b6000601f19601f8301169050919050565b6000613acc82613a6a565b613ad68185613a75565b9350613ae6818560208601613a86565b613aef81613ab0565b840191505092915050565b60006020820190508181036000830152613b148184613ac1565b905092915050565b600080fd5b600080fd5b7f4e487b7100000000000000000000000000000000000000000000000000000000600052604160045260246000fd5b613b5e82613ab0565b810181811067ffffffffffffffff82111715613b7d57613b7c613b26565b5b80604052505050565b6000613b906139f3565b9050613b9c8282613b55565b919050565b600067ffffffffffffffff821115613bbc57613bbb613b26565b5b613bc582613ab0565b9050602081019050919050565b82818337600083830152505050565b6000613bf4613bef84613ba1565b613b86565b905082815260208101848484011115613c1057613c0f613b21565b5b613c1b848285613bd2565b509392505050565b600082601f830112613c3857613c37613b1c565b5b8135613c48848260208601613be1565b91505092915050565b600060208284031215613c6757613c666139fd565b5b600082013567ffffffffffffffff811115613c8557613c84613a02565b5b613c9184828501613c23565b91505092915050565b60008060408385031215613cb157613cb06139fd565b5b600083013567ffffffffffffffff811115613ccf57613cce613a02565b5b613cdb85828601613c23565b925050602083013567ffffffffffffffff811115613cfc57613cfb613a02565b5b613d0885828601613c23565b9150509250929050565b613d1b81613a07565b82525050565b6000602082019050613d366000830184613d12565b92915050565b600073ffffffffffffffffffffffffffffffffffffffff82169050919050565b6000613d6782613d3c565b9050919050565b613d7781613d5c565b8114613d8257600080fd5b50565b600081359050613d9481613d6e565b92915050565b600080600060608486031215613db357613db26139fd565b5b600084013567ffffffffffffffff811115613dd157613dd0613a02565b5b613ddd86828701613c23565b935050602084013567ffffffffffffffff811115613dfe57613dfd613a02565b5b613e0a86828701613c23565b9250506040613e1b86828701613d85565b9150509250925092565b600067ffffffffffffffff821115613e4057613e3f613b26565b5b602082029050602081019050919050565b600080fd5b6000613e69613e6484613e25565b613b86565b90508083825260208201905060208402830185811115613e8c57613e8b613e51565b5b835b81811015613ed357803567ffffffffffffffff811115613eb157613eb0613b1c565b5b808601613ebe8982613c23565b85526020850194505050602081019050613e8e565b5050509392505050565b600082601f830112613ef257613ef1613b1c565b5b8135613f02848260208601613e56565b91505092915050565b60008115159050919050565b613f2081613f0b565b8114613f2b57600080fd5b50565b600081359050613f3d81613f17565b92915050565b600067ffffffffffffffff821115613f5e57613f5d613b26565b5b602082029050602081019050919050565b6000613f82613f7d84613f43565b613b86565b90508083825260208201905060208402830185811115613fa557613fa4613e51565b5b835b81811015613fce5780613fba8882613d85565b845260208401935050602081019050613fa7565b5050509392505050565b600082601f830112613fed57613fec613b1c565b5b8135613ffd848260208601613f6f565b91505092915050565b60008060008060008060008060006101208a8c031215614029576140286139fd565b5b60008a013567ffffffffffffffff81111561404757614046613a02565b5b6140538c828d01613c23565b99505060208a013567ffffffffffffffff81111561407457614073613a02565b5b6140808c828d01613c23565b98505060408a013567ffffffffffffffff8111156140a1576140a0613a02565b5b6140ad8c828d01613edd565b97505060606140be8c828d01613a28565b96505060806140cf8c828d01613a28565b95505060a06140e08c828d01613f2e565b94505060c06140f18c828d01613f2e565b93505060e08a013567ffffffffffffffff81111561411257614111613a02565b5b61411e8c828d01613fd8565b9250506101006141308c828d01613d85565b9150509295985092959850929598565b600081519050919050565b600082825260208201905092915050565b6000819050602082019050919050565b600082825260208201905092915050565b600061418882613a6a565b614192818561416c565b93506141a2818560208601613a86565b6141ab81613ab0565b840191505092915050565b60006141c2838361417d565b905092915050565b6000602082019050919050565b60006141e282614140565b6141ec818561414b565b9350836020820285016141fe8561415c565b8060005b8581101561423a578484038952815161421b85826141b6565b9450614226836141ca565b925060208a01995050600181019050614202565b50829750879550505050505092915050565b6000602082019050818103600083015261426681846141d7565b905092915050565b600080600060608486031215614287576142866139fd565b5b600084013567ffffffffffffffff8111156142a5576142a4613a02565b5b6142b186828701613c23565b935050602084013567ffffffffffffffff8111156142d2576142d1613a02565b5b6142de86828701613c23565b92505060406142ef86828701613a28565b9150509250925092565b600080604083850312156143105761430f6139fd565b5b600083013567ffffffffffffffff81111561432e5761432d613a02565b5b61433a85828601613c23565b925050602061434b85828601613d85565b9150509250929050565b61435e81613d5c565b82525050565b60006020820190506143796000830184614355565b92915050565b61438881613f0b565b82525050565b6000610100820190506143a4600083018b614355565b6143b1602083018a614355565b81810360408301526143c38189613ac1565b90506143d2606083018861437f565b6143df608083018761437f565b6143ec60a083018661437f565b6143f960c0830185613d12565b61440660e0830184613d12565b9998505050505050505050565b6000602082019050614428600083018461437f565b92915050565b7f4e487b7100000000000000000000000000000000000000000000000000000000600052602260045260246000fd5b6000600282049050600182168061447557607f821691505b6020821081036144885761448761442e565b5b50919050565b600081905092915050565b60006144a482613a6a565b6144ae818561448e565b93506144be818560208601613a86565b80840191505092915050565b60006144d68284614499565b915081905092915050565b7f506f6c6c20646f6573206e6f742065786973742e000000000000000000000000600082015250565b6000614517601483613a75565b9150614522826144e1565b602082019050919050565b600060208201905081810360008301526145468161450a565b9050919050565b7f596f752063616e6e6f7420636861726765206261636b20696620706f6c6c206960008201527f73206f70656e2e00000000000000000000000000000000000000000000000000602082015250565b60006145a9602783613a75565b91506145b48261454d565b604082019050919050565b600060208201905081810360008301526145d88161459c565b9050919050565b7f4e6f7420612070617920746f20766f746520706f6c6c2e000000000000000000600082015250565b6000614615601783613a75565b9150614620826145df565b602082019050919050565b6000602082019050818103600083015261464481614608565b9050919050565b7f596f7520616c72656164792063686172676564206261636b2e00000000000000600082015250565b6000614681601983613a75565b915061468c8261464b565b602082019050919050565b600060208201905081810360008301526146b081614674565b9050919050565b7f4e487b7100000000000000000000000000000000000000000000000000000000600052603260045260246000fd5b60006040820190506146fb6000830185614355565b6147086020830184613d12565b9392505050565b60008151905061471e81613f17565b92915050565b60006020828403121561473a576147396139fd565b5b60006147488482850161470f565b91505092915050565b7f5472616e73616374696f6e206661696c65642e00000000000000000000000000600082015250565b6000614787601383613a75565b915061479282614751565b602082019050919050565b600060208201905081810360008301526147b68161477a565b9050919050565b7f4e6f7420616e206f7074696f6e00000000000000000000000000000000000000600082015250565b60006147f3600d83613a75565b91506147fe826147bd565b602082019050919050565b60006020820190508181036000830152614822816147e6565b9050919050565b7f416e6f7468657220706f6c6c20616c7265616479206861732074686174206e6160008201527f6d652e0000000000000000000000000000000000000000000000000000000000602082015250565b6000614885602383613a75565b915061489082614829565b604082019050919050565b600060208201905081810360008301526148b481614878565b9050919050565b7f596f75206d75737420616c6c6f7720666f72206f6e65206f72206d6f7265207660008201527f6f7465732e000000000000000000000000000000000000000000000000000000602082015250565b6000614917602583613a75565b9150614922826148bb565b604082019050919050565b600060208201905081810360008301526149468161490a565b9050919050565b7f4e616d65207265736572766174696f6e206661696c65642e0000000000000000600082015250565b6000614983601883613a75565b915061498e8261494d565b602082019050919050565b600060208201905081810360008301526149b281614976565b9050919050565b7f43616e2774206265207072697661746520616e6420616c6c6f77206e6f206f6e60008201527f6500000000000000000000000000000000000000000000000000000000000000602082015250565b6000614a15602183613a75565b9150614a20826149b9565b604082019050919050565b60006020820190508181036000830152614a4481614a08565b9050919050565b7f43616e2774206265207075626c696320616e6420726573747269637420766f7460008201527f6572732e00000000000000000000000000000000000000000000000000000000602082015250565b6000614aa7602483613a75565b9150614ab282614a4b565b604082019050919050565b60006020820190508181036000830152614ad681614a9a565b9050919050565b50565b6000614aed60008361448e565b9150614af882614add565b600082019050919050565b6000614b0e82614ae0565b9150819050919050565b60008190508160005260206000209050919050565b60006020601f8301049050919050565b600082821b905092915050565b600060088302614b7a7fffffffffffffffffffffffffffffffffffffffffffffffffffffffffffffffff82614b3d565b614b848683614b3d565b95508019841693508086168417925050509392505050565b6000819050919050565b6000614bc1614bbc614bb784613a07565b614b9c565b613a07565b9050919050565b6000819050919050565b614bdb83614ba6565b614bef614be782614bc8565b848454614b4a565b825550505050565b600090565b614c04614bf7565b614c0f818484614bd2565b505050565b5b81811015614c3357614c28600082614bfc565b600181019050614c15565b5050565b601f821115614c7857614c4981614b18565b614c5284614b2d565b81016020851015614c61578190505b614c75614c6d85614b2d565b830182614c14565b50505b505050565b600082821c905092915050565b6000614c9b60001984600802614c7d565b1980831691505092915050565b6000614cb48383614c8a565b9150826002028217905092915050565b614ccd82613a6a565b67ffffffffffffffff811115614ce657614ce5613b26565b5b614cf0825461445d565b614cfb828285614c37565b600060209050601f831160018114614d2e5760008415614d1c578287015190505b614d268582614ca8565b865550614d8e565b601f198416614d3c86614b18565b60005b82811015614d6457848901518255600182019150602085019450602081019050614d3f565b86831015614d815784890151614d7d601f891682614c8a565b8355505b6001600288020188555050505b505050505050565b60008154614da38161445d565b614dad818661448e565b94506001821660008114614dc85760018114614ddd57614e10565b60ff1983168652811515820286019350614e10565b614de685614b18565b60005b83811015614e0857815481890152600182019150602081019050614de9565b838801955050505b50505092915050565b6000614e258284614d96565b915081905092915050565b7f506f6c6c20616c726561647920636c6f7365642e000000000000000000000000600082015250565b6000614e66601483613a75565b9150614e7182614e30565b602082019050919050565b60006020820190508181036000830152614e9581614e59565b9050919050565b7f596f7520617265206e6f7420746865206f776e6572206f66207468697320706f60008201527f6c6c2e0000000000000000000000000000000000000000000000000000000000602082015250565b6000614ef8602383613a75565b9150614f0382614e9c565b604082019050919050565b60006020820190508181036000830152614f2781614eeb565b9050919050565b7f506f6c6c20646f6573206e6f74206578697374206f7220706f6c6c206973206e60008201527f6f74206f70656e2e000000000000000000000000000000000000000000000000602082015250565b6000614f8a602883613a75565b9150614f9582614f2e565b604082019050919050565b60006020820190508181036000830152614fb981614f7d565b9050919050565b7f43616e6e6f742068617665203020766f7465732e000000000000000000000000600082015250565b6000614ff6601483613a75565b915061500182614fc0565b602082019050919050565b6000602082019050818103600083015261502581614fe9565b9050919050565b7f596f7520617265206e6f7420616c6c6f77656420746f20766f74652e00000000600082015250565b6000615062601c83613a75565b915061506d8261502c565b602082019050919050565b6000602082019050818103600083015261509181615055565b9050919050565b7f596f7520686176652073706563696669656420746f6f206d75636820766f746560008201527f73207468616e20796f752061726520616c6c6f7765642e000000000000000000602082015250565b60006150f4603783613a75565b91506150ff82615098565b604082019050919050565b60006020820190508181036000830152615123816150e7565b9050919050565b60008151905061513981613a11565b92915050565b600060208284031215615155576151546139fd565b5b60006151638482850161512a565b91505092915050565b7f596f7520646f206e6f74206861766520656e6f75676820564f545420636f696e60008201527f732e000000000000000000000000000000000000000000000000000000000000602082015250565b60006151c8602283613a75565b91506151d38261516c565b604082019050919050565b600060208201905081810360008301526151f7816151bb565b9050919050565b60006040820190506152136000830185614355565b6152206020830184614355565b9392505050565b7f596f7520646964206e6f7420617070726f76652074686520636f6e747261637460008201527f277320616c6c6f77616e63652e00000000000000000000000000000000000000602082015250565b6000615283602d83613a75565b915061528e82615227565b604082019050919050565b600060208201905081810360008301526152b281615276565b9050919050565b60006060820190506152ce6000830186614355565b6152db6020830185614355565b6152e86040830184613d12565b949350505050565b6000604082019050818103600083015261530a8185613ac1565b90506153196020830184614355565b9392505050565b7f506f6c6c206973206e6f7420636c6f7365642e00000000000000000000000000600082015250565b6000615356601383613a75565b915061536182615320565b602082019050919050565b6000602082019050818103600083015261538581615349565b9050919050565b7f4e487b7100000000000000000000000000000000000000000000000000000000600052601160045260246000fd5b60006153c682613a07565b91506153d183613a07565b92508282019050808211156153e9576153e861538c565b5b92915050565b7f536166654d6174683a206164646974696f6e206f766572666c6f770000000000600082015250565b6000615425601b83613a75565b9150615430826153ef565b602082019050919050565b6000602082019050818103600083015261545481615418565b9050919050565b600061546682613a07565b915061547183613a07565b925082820261547f81613a07565b915082820484148315176154965761549561538c565b5b5092915050565b7f4e487b7100000000000000000000000000000000000000000000000000000000600052601260045260246000fd5b60006154d782613a07565b91506154e283613a07565b9250826154f2576154f161549d565b5b828204905092915050565b7f536166654d6174683a206d756c7469706c69636174696f6e206f766572666c6f60008201527f7700000000000000000000000000000000000000000000000000000000000000602082015250565b6000615559602183613a75565b9150615564826154fd565b604082019050919050565b600060208201905081810360008301526155888161554c565b9050919050565b600061559a82613a07565b91506155a583613a07565b92508282039050818111156155bd576155bc61538c565b5b9291505056fea26469706673582212202de70ae7f869098689fb15da7d98ddeb192c19ecb166a2c3f923df471d5b944264736f6c634300081a0033",
  "linkReferences": {},
  "deployedLinkReferences": {}
}