{
  "_format": "hh-sol-artifact-1",
  "contractName": "VoteDappToken",
  "sourceName": "contracts/VoteDappTokenSaleV2.sol",
  "abi": [
    {
      "inputs": [
        {
          "internalType": "uint256",
          "name": "_tokenPrice",
          "type": "uint256"
        }
      ],
      "stateMutability": "nonpayable",
      "type": "constructor"
    },
    {
      "anonymous": false,
      "inputs": [
        {
          "indexed": true,
          "internalType": "address",
          "name": "_owner",
          "type": "address"
        },
        {
          "indexed": true,
          "internalType": "address",
          "name": "_spender",
          "type": "address"
        },
        {
          "indexed": false,
          "internalType": "uint256",
          "name": "_value",
          "type": "uint256"
        }
      ],
      "name": "Approval",
      "type": "event"
    },
    {
      "anonymous": false,
      "inputs": [
        {
          "indexed": false,
          "internalType": "address",
          "name": "_buyer",
          "type": "address"
        },
        {
          "indexed": false,
          "internalType": "uint256",
          "name": "_amount",
          "type": "uint256"
        }
      ],
      "name": "Return",
      "type": "event"
    },
    {
      "anonymous": false,
      "inputs": [
        {
          "indexed": false,
          "internalType": "address",
          "name": "_buyer",
          "type": "address"
        },
        {
          "indexed": false,
          "internalType": "uint256",
          "name": "_amount",
          "type": "uint256"
        }
      ],
      "name": "Sell",
      "type": "event"
    },
    {
      "anonymous": false,
      "inputs": [
        {
          "indexed": true,
          "internalType": "address",
          "name": "_from",
          "type": "address"
        },
        {
          "indexed": true,
          "internalType": "address",
          "name": "_to",
          "type": "address"
        },
        {
          "indexed": false,
          "internalType": "uint256",
          "name": "_value",
          "type": "uint256"
        }
      ],
      "name": "Transfer",
      "type": "event"
    },
    {
      "inputs": [
        {
          "internalType": "address",
          "name": "",
          "type": "address"
        },
        {
          "internalType": "address",
          "name": "",
          "type": "address"
        }
      ],
      "name": "allowance",
      "outputs": [
        {
          "internalType": "uint256",
          "name": "",
          "type": "uint256"
        }
      ],
      "stateMutability": "view",
      "type": "function"
    },
    {
      "inputs": [
        {
          "internalType": "address",
          "name": "_spender",
          "type": "address"
        },
        {
          "internalType": "uint256",
          "name": "_value",
          "type": "uint256"
        }
      ],
      "name": "approve",
      "outputs": [
        {
          "internalType": "bool",
          "name": "",
          "type": "bool"
        }
      ],
      "stateMutability": "nonpayable",
      "type": "function"
    },
    {
      "inputs": [
        {
          "internalType": "address",
          "name": "",
          "type": "address"
        }
      ],
      "name": "balanceOf",
      "outputs": [
        {
          "internalType": "uint256",
          "name": "",
          "type": "uint256"
        }
      ],
      "stateMutability": "view",
      "type": "function"
    },
    {
      "inputs": [
        {
          "internalType": "uint256",
          "name": "amount",
          "type": "uint256"
        }
      ],
      "name": "buyTokens",
      "outputs": [],
      "stateMutability": "payable",
      "type": "function"
    },
    {
      "inputs": [],
      "name": "name",
      "outputs": [
        {
          "internalType": "string",
          "name": "",
          "type": "string"
        }
      ],
      "stateMutability": "view",
      "type": "function"
    },
    {
      "inputs": [
        {
          "internalType": "uint256",
          "name": "amount",
          "type": "uint256"
        }
      ],
      "name": "returnTokens",
      "outputs": [
        {
          "internalType": "bool",
          "name": "",
          "type": "bool"
        }
      ],
      "stateMutability": "nonpayable",
      "type": "function"
    },
    {
      "inputs": [],
      "name": "standard",
      "outputs": [
        {
          "internalType": "string",
          "name": "",
          "type": "string"
        }
      ],
      "stateMutability": "view",
      "type": "function"
    },
    {
      "inputs": [],
      "name": "symbol",
      "outputs": [
        {
          "internalType": "string",
          "name": "",
          "type": "string"
        }
      ],
      "stateMutability": "view",
      "type": "function"
    },
    {
      "inputs": [],
      "name": "tokenPrice",
      "outputs": [
        {
          "internalType": "uint256",
          "name": "",
          "type": "uint256"
        }
      ],
      "stateMutability": "view",
      "type": "function"
    },
    {
      "inputs": [],
      "name": "tokensInCirculation",
      "outputs": [
        {
          "internalType": "uint256",
          "name": "",
          "type": "uint256"
        }
      ],
      "stateMutability": "view",
      "type": "function"
    },
    {
      "inputs": [],
      "name": "tokensSold",
      "outputs": [
        {
          "internalType": "uint256",
          "name": "",
          "type": "uint256"
        }
      ],
      "stateMutability": "view",
      "type": "function"
    },
    {
      "inputs": [
        {
          "internalType": "address",
          "name": "_to",
          "type": "address"
        },
        {
          "internalType": "uint256",
          "name": "_value",
          "type": "uint256"
        }
      ],
      "name": "transfer",
      "outputs": [
        {
          "internalType": "bool",
          "name": "",
          "type": "bool"
        }
      ],
      "stateMutability": "nonpayable",
      "type": "function"
    },
    {
      "inputs": [
        {
          "internalType": "address",
          "name": "_from",
          "type": "address"
        },
        {
          "internalType": "address",
          "name": "_to",
          "type": "address"
        },
        {
          "internalType": "uint256",
          "name": "_value",
          "type": "uint256"
        }
      ],
      "name": "transferFrom",
      "outputs": [
        {
          "internalType": "bool",
          "name": "",
          "type": "bool"
        }
      ],
      "stateMutability": "nonpayable",
      "type": "function"
    }
  ],
  "bytecode": "0x60806040526040518060400160405280600e81526020017f566f74654461707020546f6b656e00000000000000000000000000000000000081525060009081610048919061039f565b506040518060400160405280600381526020017f56444100000000000000000000000000000000000000000000000000000000008152506001908161008d919061039f565b506040518060400160405280601b81526020017f4e4f5420414e204552433230205354414e4441524420544f4b454e0000000000815250600290816100d2919061039f565b503480156100df57600080fd5b50604051611ca1380380611ca1833981810160405281019061010191906104a2565b33600360006101000a81548173ffffffffffffffffffffffffffffffffffffffff021916908373ffffffffffffffffffffffffffffffffffffffff16021790555080600481905550506104cf565b600081519050919050565b7f4e487b7100000000000000000000000000000000000000000000000000000000600052604160045260246000fd5b7f4e487b7100000000000000000000000000000000000000000000000000000000600052602260045260246000fd5b600060028204905060018216806101d057607f821691505b6020821081036101e3576101e2610189565b5b50919050565b60008190508160005260206000209050919050565b60006020601f8301049050919050565b600082821b905092915050565b60006008830261024b7fffffffffffffffffffffffffffffffffffffffffffffffffffffffffffffffff8261020e565b610255868361020e565b95508019841693508086168417925050509392505050565b6000819050919050565b6000819050919050565b600061029c6102976102928461026d565b610277565b61026d565b9050919050565b6000819050919050565b6102b683610281565b6102ca6102c2826102a3565b84845461021b565b825550505050565b600090565b6102df6102d2565b6102ea8184846102ad565b505050565b5b8181101561030e576103036000826102d7565b6001810190506102f0565b5050565b601f82111561035357610324816101e9565b61032d846101fe565b8101602085101561033c578190505b610350610348856101fe565b8301826102ef565b50505b505050565b600082821c905092915050565b600061037660001984600802610358565b1980831691505092915050565b600061038f8383610365565b9150826002028217905092915050565b6103a88261014f565b67ffffffffffffffff8111156103c1576103c061015a565b5b6103cb82546101b8565b6103d6828285610312565b600060209050601f83116001811461040957600084156103f7578287015190505b6104018582610383565b865550610469565b601f198416610417866101e9565b60005b8281101561043f5784890151825560018201915060208501945060208101905061041a565b8683101561045c5784890151610458601f891682610365565b8355505b6001600288020188555050505b505050505050565b600080fd5b61047f8161026d565b811461048a57600080fd5b50565b60008151905061049c81610476565b92915050565b6000602082840312156104b8576104b7610471565b5b60006104c68482850161048d565b91505092915050565b6117c3806104de6000396000f3fe6080604052600436106100c25760003560e01c80635a3b7e421161007f57806395d89b411161005957806395d89b4114610283578063a9059cbb146102ae578063dd62ed3e146102eb578063f5a0d6c014610328576100c2565b80635a3b7e42146101f057806370a082311461021b5780637ff9b59614610258576100c2565b806306fdde03146100c7578063095ea7b3146100f257806323b872dd1461012f5780633610724e1461016c5780633ae1786f14610188578063518ab2a8146101c5575b600080fd5b3480156100d357600080fd5b506100dc610353565b6040516100e991906110e6565b60405180910390f35b3480156100fe57600080fd5b50610119600480360381019061011491906111a1565b6103e1565b60405161012691906111fc565b60405180910390f35b34801561013b57600080fd5b5061015660048036038101906101519190611217565b6104d3565b60405161016391906111fc565b60405180910390f35b6101866004803603810190610181919061126a565b610853565b005b34801561019457600080fd5b506101af60048036038101906101aa919061126a565b6109b0565b6040516101bc91906111fc565b60405180910390f35b3480156101d157600080fd5b506101da610b48565b6040516101e791906112a6565b60405180910390f35b3480156101fc57600080fd5b50610205610b4e565b60405161021291906110e6565b60405180910390f35b34801561022757600080fd5b50610242600480360381019061023d91906112c1565b610bdc565b60405161024f91906112a6565b60405180910390f35b34801561026457600080fd5b5061026d610bf4565b60405161027a91906112a6565b60405180910390f35b34801561028f57600080fd5b50610298610bfa565b6040516102a591906110e6565b60405180910390f35b3480156102ba57600080fd5b506102d560048036038101906102d091906111a1565b610c88565b6040516102e291906111fc565b60405180910390f35b3480156102f757600080fd5b50610312600480360381019061030d91906112ee565b610ea5565b60405161031f91906112a6565b60405180910390f35b34801561033457600080fd5b5061033d610eca565b60405161034a91906112a6565b60405180910390f35b600080546103609061135d565b80601f016020809104026020016040519081016040528092919081815260200182805461038c9061135d565b80156103d95780601f106103ae576101008083540402835291602001916103d9565b820191906000526020600020905b8154815290600101906020018083116103bc57829003601f168201915b505050505081565b600081600860003373ffffffffffffffffffffffffffffffffffffffff1673ffffffffffffffffffffffffffffffffffffffff16815260200190815260200160002060008573ffffffffffffffffffffffffffffffffffffffff1673ffffffffffffffffffffffffffffffffffffffff168152602001908152602001600020819055508273ffffffffffffffffffffffffffffffffffffffff163373ffffffffffffffffffffffffffffffffffffffff167f8c5be1e5ebec7d5bd14f71427d1e84f3dd0314c0f7b2291e5b200ac8c7c3b925846040516104c191906112a6565b60405180910390a36001905092915050565b6000600760008573ffffffffffffffffffffffffffffffffffffffff1673ffffffffffffffffffffffffffffffffffffffff1681526020019081526020016000205482111561052157600080fd5b600860008573ffffffffffffffffffffffffffffffffffffffff1673ffffffffffffffffffffffffffffffffffffffff16815260200190815260200160002060003373ffffffffffffffffffffffffffffffffffffffff1673ffffffffffffffffffffffffffffffffffffffff168152602001908152602001600020548211156105aa57600080fd5b6105fc82600760008773ffffffffffffffffffffffffffffffffffffffff1673ffffffffffffffffffffffffffffffffffffffff16815260200190815260200160002054610ed090919063ffffffff16565b600760008673ffffffffffffffffffffffffffffffffffffffff1673ffffffffffffffffffffffffffffffffffffffff1681526020019081526020016000208190555061069182600760008673ffffffffffffffffffffffffffffffffffffffff1673ffffffffffffffffffffffffffffffffffffffff16815260200190815260200160002054610f1a90919063ffffffff16565b600760008573ffffffffffffffffffffffffffffffffffffffff1673ffffffffffffffffffffffffffffffffffffffff1681526020019081526020016000208190555061076382600860008773ffffffffffffffffffffffffffffffffffffffff1673ffffffffffffffffffffffffffffffffffffffff16815260200190815260200160002060003373ffffffffffffffffffffffffffffffffffffffff1673ffffffffffffffffffffffffffffffffffffffff16815260200190815260200160002054610ed090919063ffffffff16565b600860008673ffffffffffffffffffffffffffffffffffffffff1673ffffffffffffffffffffffffffffffffffffffff16815260200190815260200160002060003373ffffffffffffffffffffffffffffffffffffffff1673ffffffffffffffffffffffffffffffffffffffff168152602001908152602001600020819055508273ffffffffffffffffffffffffffffffffffffffff168473ffffffffffffffffffffffffffffffffffffffff167fddf252ad1be2c89b69c2b068fc378daa952ba7f163c4a11628f55a4df523b3ef8460405161084091906112a6565b60405180910390a3600190509392505050565b61086860045482610f7890919063ffffffff16565b34146108a9576040517f08c379a00000000000000000000000000000000000000000000000000000000081526004016108a090611400565b60405180910390fd5b6108fb81600760003373ffffffffffffffffffffffffffffffffffffffff1673ffffffffffffffffffffffffffffffffffffffff16815260200190815260200160002054610f1a90919063ffffffff16565b600760003373ffffffffffffffffffffffffffffffffffffffff1673ffffffffffffffffffffffffffffffffffffffff1681526020019081526020016000208190555061095381600554610f1a90919063ffffffff16565b60058190555061096e81600654610f1a90919063ffffffff16565b6006819055507f5e5e995ce3133561afceaa51a9a154d5db228cd7525d34df5185582c18d3df0933826040516109a592919061142f565b60405180910390a150565b600081600760003373ffffffffffffffffffffffffffffffffffffffff1673ffffffffffffffffffffffffffffffffffffffff168152602001908152602001600020541015610a34576040517f08c379a0000000000000000000000000000000000000000000000000000000008152600401610a2b906114ca565b60405180910390fd5b610a8682600760003373ffffffffffffffffffffffffffffffffffffffff1673ffffffffffffffffffffffffffffffffffffffff16815260200190815260200160002054610ed090919063ffffffff16565b600760003373ffffffffffffffffffffffffffffffffffffffff1673ffffffffffffffffffffffffffffffffffffffff168152602001908152602001600020819055503373ffffffffffffffffffffffffffffffffffffffff166108fc610af860045485610f7890919063ffffffff16565b9081150290604051600060405180830381858888f19350505050158015610b23573d6000803e3d6000fd5b50610b3982600654610ed090919063ffffffff16565b60068190555060019050919050565b60055481565b60028054610b5b9061135d565b80601f0160208091040260200160405190810160405280929190818152602001828054610b879061135d565b8015610bd45780601f10610ba957610100808354040283529160200191610bd4565b820191906000526020600020905b815481529060010190602001808311610bb757829003601f168201915b505050505081565b60076020528060005260406000206000915090505481565b60045481565b60018054610c079061135d565b80601f0160208091040260200160405190810160405280929190818152602001828054610c339061135d565b8015610c805780601f10610c5557610100808354040283529160200191610c80565b820191906000526020600020905b815481529060010190602001808311610c6357829003601f168201915b505050505081565b600081600760003373ffffffffffffffffffffffffffffffffffffffff1673ffffffffffffffffffffffffffffffffffffffff168152602001908152602001600020541015610d0c576040517f08c379a0000000000000000000000000000000000000000000000000000000008152600401610d0390611536565b60405180910390fd5b610d5e82600760003373ffffffffffffffffffffffffffffffffffffffff1673ffffffffffffffffffffffffffffffffffffffff16815260200190815260200160002054610ed090919063ffffffff16565b600760003373ffffffffffffffffffffffffffffffffffffffff1673ffffffffffffffffffffffffffffffffffffffff16815260200190815260200160002081905550610df382600760008673ffffffffffffffffffffffffffffffffffffffff1673ffffffffffffffffffffffffffffffffffffffff16815260200190815260200160002054610f1a90919063ffffffff16565b600760008573ffffffffffffffffffffffffffffffffffffffff1673ffffffffffffffffffffffffffffffffffffffff168152602001908152602001600020819055508273ffffffffffffffffffffffffffffffffffffffff163373ffffffffffffffffffffffffffffffffffffffff167fddf252ad1be2c89b69c2b068fc378daa952ba7f163c4a11628f55a4df523b3ef84604051610e9391906112a6565b60405180910390a36001905092915050565b6008602052816000526040600020602052806000526040600020600091509150505481565b60065481565b6000610f1283836040518060400160405280601e81526020017f536166654d6174683a207375627472616374696f6e206f766572666c6f770000815250610ff2565b905092915050565b6000808284610f299190611585565b905083811015610f6e576040517f08c379a0000000000000000000000000000000000000000000000000000000008152600401610f6590611605565b60405180910390fd5b8091505092915050565b6000808303610f8a5760009050610fec565b60008284610f989190611625565b9050828482610fa79190611696565b14610fe7576040517f08c379a0000000000000000000000000000000000000000000000000000000008152600401610fde90611739565b60405180910390fd5b809150505b92915050565b600083831115829061103a576040517f08c379a000000000000000000000000000000000000000000000000000000000815260040161103191906110e6565b60405180910390fd5b50600083856110499190611759565b9050809150509392505050565b600081519050919050565b600082825260208201905092915050565b60005b83811015611090578082015181840152602081019050611075565b60008484015250505050565b6000601f19601f8301169050919050565b60006110b882611056565b6110c28185611061565b93506110d2818560208601611072565b6110db8161109c565b840191505092915050565b6000602082019050818103600083015261110081846110ad565b905092915050565b600080fd5b600073ffffffffffffffffffffffffffffffffffffffff82169050919050565b60006111388261110d565b9050919050565b6111488161112d565b811461115357600080fd5b50565b6000813590506111658161113f565b92915050565b6000819050919050565b61117e8161116b565b811461118957600080fd5b50565b60008135905061119b81611175565b92915050565b600080604083850312156111b8576111b7611108565b5b60006111c685828601611156565b92505060206111d78582860161118c565b9150509250929050565b60008115159050919050565b6111f6816111e1565b82525050565b600060208201905061121160008301846111ed565b92915050565b6000806000606084860312156112305761122f611108565b5b600061123e86828701611156565b935050602061124f86828701611156565b92505060406112608682870161118c565b9150509250925092565b6000602082840312156112805761127f611108565b5b600061128e8482850161118c565b91505092915050565b6112a08161116b565b82525050565b60006020820190506112bb6000830184611297565b92915050565b6000602082840312156112d7576112d6611108565b5b60006112e584828501611156565b91505092915050565b6000806040838503121561130557611304611108565b5b600061131385828601611156565b925050602061132485828601611156565b9150509250929050565b7f4e487b7100000000000000000000000000000000000000000000000000000000600052602260045260246000fd5b6000600282049050600182168061137557607f821691505b6020821081036113885761138761132e565b5b50919050565b7f596f7520646964206e6f742073656e642074686520636f727265637420616d6f60008201527f756e74206f662065746865722e00000000000000000000000000000000000000602082015250565b60006113ea602d83611061565b91506113f58261138e565b604082019050919050565b60006020820190508181036000830152611419816113dd565b9050919050565b6114298161112d565b82525050565b60006040820190506114446000830185611420565b6114516020830184611297565b9392505050565b7f596f7520646f206e6f7420686176652074686174206d75636820746f6b656e7360008201527f2e00000000000000000000000000000000000000000000000000000000000000602082015250565b60006114b4602183611061565b91506114bf82611458565b604082019050919050565b600060208201905081810360008301526114e3816114a7565b9050919050565b7f596f7520646f6e2774206861766520656e6f75676820746f6b656e732e000000600082015250565b6000611520601d83611061565b915061152b826114ea565b602082019050919050565b6000602082019050818103600083015261154f81611513565b9050919050565b7f4e487b7100000000000000000000000000000000000000000000000000000000600052601160045260246000fd5b60006115908261116b565b915061159b8361116b565b92508282019050808211156115b3576115b2611556565b5b92915050565b7f536166654d6174683a206164646974696f6e206f766572666c6f770000000000600082015250565b60006115ef601b83611061565b91506115fa826115b9565b602082019050919050565b6000602082019050818103600083015261161e816115e2565b9050919050565b60006116308261116b565b915061163b8361116b565b92508282026116498161116b565b915082820484148315176116605761165f611556565b5b5092915050565b7f4e487b7100000000000000000000000000000000000000000000000000000000600052601260045260246000fd5b60006116a18261116b565b91506116ac8361116b565b9250826116bc576116bb611667565b5b828204905092915050565b7f536166654d6174683a206d756c7469706c69636174696f6e206f766572666c6f60008201527f7700000000000000000000000000000000000000000000000000000000000000602082015250565b6000611723602183611061565b915061172e826116c7565b604082019050919050565b6000602082019050818103600083015261175281611716565b9050919050565b60006117648261116b565b915061176f8361116b565b925082820390508181111561178757611786611556565b5b9291505056fea2646970667358221220bb784919db10373dd3c81945d76122df76a701d8f5c9917d2b6ba4a7c6e8775964736f6c634300081a0033",
  "linkReferences": {},
  "deployedLinkReferences": {}
}